{"contracts/Mastermind.sol":{"Mastermind":{"abi":[{"inputs":[],"stateMutability":"nonpayable","type":"constructor"},{"inputs":[{"internalType":"address","name":"sender","type":"address"},{"internalType":"uint256","name":"tokenId","type":"uint256"},{"internalType":"address","name":"owner","type":"address"}],"name":"ERC721IncorrectOwner","type":"error"},{"inputs":[{"internalType":"address","name":"operator","type":"address"},{"internalType":"uint256","name":"tokenId","type":"uint256"}],"name":"ERC721InsufficientApproval","type":"error"},{"inputs":[{"internalType":"address","name":"approver","type":"address"}],"name":"ERC721InvalidApprover","type":"error"},{"inputs":[{"internalType":"address","name":"operator","type":"address"}],"name":"ERC721InvalidOperator","type":"error"},{"inputs":[{"internalType":"address","name":"owner","type":"address"}],"name":"ERC721InvalidOwner","type":"error"},{"inputs":[{"internalType":"address","name":"receiver","type":"address"}],"name":"ERC721InvalidReceiver","type":"error"},{"inputs":[{"internalType":"address","name":"sender","type":"address"}],"name":"ERC721InvalidSender","type":"error"},{"inputs":[{"internalType":"uint256","name":"tokenId","type":"uint256"}],"name":"ERC721NonexistentToken","type":"error"},{"inputs":[],"name":"Mastermind__GameAlreadyStarted","type":"error"},{"anonymous":false,"inputs":[{"indexed":true,"internalType":"address","name":"owner","type":"address"},{"indexed":true,"internalType":"address","name":"approved","type":"address"},{"indexed":true,"internalType":"uint256","name":"tokenId","type":"uint256"}],"name":"Approval","type":"event"},{"anonymous":false,"inputs":[{"indexed":true,"internalType":"address","name":"owner","type":"address"},{"indexed":true,"internalType":"address","name":"operator","type":"address"},{"indexed":false,"internalType":"bool","name":"approved","type":"bool"}],"name":"ApprovalForAll","type":"event"},{"anonymous":false,"inputs":[{"indexed":true,"internalType":"address","name":"codebreaker","type":"address"},{"indexed":false,"internalType":"uint256","name":"timestamp","type":"uint256"}],"name":"CodebreakerSet","type":"event"},{"anonymous":false,"inputs":[{"indexed":true,"internalType":"address","name":"codemaker","type":"address"},{"indexed":false,"internalType":"uint256","name":"timestamp","type":"uint256"}],"name":"CodemakerSet","type":"event"},{"anonymous":false,"inputs":[{"indexed":true,"internalType":"address","name":"winner","type":"address"},{"indexed":false,"internalType":"uint256","name":"timestamp","type":"uint256"}],"name":"GameEnded","type":"event"},{"anonymous":false,"inputs":[{"indexed":true,"internalType":"address","name":"codemaker","type":"address"},{"indexed":false,"internalType":"uint256","name":"timestamp","type":"uint256"}],"name":"GameStarted","type":"event"},{"anonymous":false,"inputs":[{"indexed":false,"internalType":"enum Mastermind.GameStatus","name":"status","type":"uint8"},{"indexed":false,"internalType":"uint256","name":"timestamp","type":"uint256"}],"name":"GameStatusChanged","type":"event"},{"anonymous":false,"inputs":[{"indexed":true,"internalType":"address","name":"codebreaker","type":"address"},{"indexed":false,"internalType":"uint8[]","name":"guess","type":"uint8[]"},{"indexed":false,"internalType":"uint8","name":"blackPegs","type":"uint8"},{"indexed":false,"internalType":"uint8","name":"whitePegs","type":"uint8"},{"indexed":false,"internalType":"bool","name":"correct","type":"bool"},{"indexed":false,"internalType":"uint256","name":"timestamp","type":"uint256"}],"name":"GuessMade","type":"event"},{"anonymous":false,"inputs":[{"indexed":false,"internalType":"uint256","name":"scoreCodebreaker","type":"uint256"},{"indexed":false,"internalType":"uint256","name":"scoreCodemaker","type":"uint256"},{"indexed":false,"internalType":"uint256","name":"timestamp","type":"uint256"}],"name":"ScoreUpdated","type":"event"},{"anonymous":false,"inputs":[{"indexed":true,"internalType":"address","name":"from","type":"address"},{"indexed":true,"internalType":"address","name":"to","type":"address"},{"indexed":true,"internalType":"uint256","name":"tokenId","type":"uint256"}],"name":"Transfer","type":"event"},{"inputs":[{"internalType":"address","name":"to","type":"address"},{"internalType":"uint256","name":"tokenId","type":"uint256"}],"name":"approve","outputs":[],"stateMutability":"nonpayable","type":"function"},{"inputs":[{"internalType":"address","name":"owner","type":"address"}],"name":"balanceOf","outputs":[{"internalType":"uint256","name":"","type":"uint256"}],"stateMutability":"view","type":"function"},{"inputs":[],"name":"codebreaker","outputs":[{"internalType":"address","name":"","type":"address"}],"stateMutability":"view","type":"function"},{"inputs":[],"name":"codemaker","outputs":[{"internalType":"address","name":"","type":"address"}],"stateMutability":"view","type":"function"},{"inputs":[],"name":"gameActive","outputs":[{"internalType":"bool","name":"","type":"bool"}],"stateMutability":"view","type":"function"},{"inputs":[],"name":"gameStatus","outputs":[{"internalType":"enum Mastermind.GameStatus","name":"","type":"uint8"}],"stateMutability":"view","type":"function"},{"inputs":[{"internalType":"uint256","name":"tokenId","type":"uint256"}],"name":"getApproved","outputs":[{"internalType":"address","name":"","type":"address"}],"stateMutability":"view","type":"function"},{"inputs":[],"name":"getBreakerScore","outputs":[{"internalType":"uint256","name":"","type":"uint256"}],"stateMutability":"view","type":"function"},{"inputs":[],"name":"getGuesses","outputs":[{"components":[{"internalType":"uint8[]","name":"code","type":"uint8[]"},{"internalType":"uint8","name":"blackPegs","type":"uint8"},{"internalType":"uint8","name":"whitePegs","type":"uint8"},{"internalType":"bool","name":"correct","type":"bool"}],"internalType":"struct Mastermind.Guess[]","name":"","type":"tuple[]"}],"stateMutability":"view","type":"function"},{"inputs":[],"name":"getGuessesCodes","outputs":[{"internalType":"uint8[][]","name":"","type":"uint8[][]"}],"stateMutability":"view","type":"function"},{"inputs":[],"name":"getLatestFeedback","outputs":[{"internalType":"uint8","name":"blackPegs","type":"uint8"},{"internalType":"uint8","name":"whitePegs","type":"uint8"}],"stateMutability":"view","type":"function"},{"inputs":[],"name":"getMakerScore","outputs":[{"internalType":"uint256","name":"","type":"uint256"}],"stateMutability":"view","type":"function"},{"inputs":[],"name":"guessCount","outputs":[{"internalType":"uint256","name":"","type":"uint256"}],"stateMutability":"view","type":"function"},{"inputs":[{"internalType":"uint256","name":"","type":"uint256"}],"name":"guesses","outputs":[{"internalType":"uint8","name":"blackPegs","type":"uint8"},{"internalType":"uint8","name":"whitePegs","type":"uint8"},{"internalType":"bool","name":"correct","type":"bool"}],"stateMutability":"view","type":"function"},{"inputs":[{"internalType":"address","name":"owner","type":"address"},{"internalType":"address","name":"operator","type":"address"}],"name":"isApprovedForAll","outputs":[{"internalType":"bool","name":"","type":"bool"}],"stateMutability":"view","type":"function"},{"inputs":[{"internalType":"uint8[]","name":"_guess","type":"uint8[]"}],"name":"makeGuess","outputs":[],"stateMutability":"nonpayable","type":"function"},{"inputs":[],"name":"name","outputs":[{"internalType":"string","name":"","type":"string"}],"stateMutability":"view","type":"function"},{"inputs":[{"internalType":"uint256","name":"tokenId","type":"uint256"}],"name":"ownerOf","outputs":[{"internalType":"address","name":"","type":"address"}],"stateMutability":"view","type":"function"},{"inputs":[{"internalType":"address","name":"from","type":"address"},{"internalType":"address","name":"to","type":"address"},{"internalType":"uint256","name":"tokenId","type":"uint256"}],"name":"safeTransferFrom","outputs":[],"stateMutability":"nonpayable","type":"function"},{"inputs":[{"internalType":"address","name":"from","type":"address"},{"internalType":"address","name":"to","type":"address"},{"internalType":"uint256","name":"tokenId","type":"uint256"},{"internalType":"bytes","name":"data","type":"bytes"}],"name":"safeTransferFrom","outputs":[],"stateMutability":"nonpayable","type":"function"},{"inputs":[],"name":"scoreCodebreaker","outputs":[{"internalType":"uint256","name":"","type":"uint256"}],"stateMutability":"view","type":"function"},{"inputs":[],"name":"scoreCodemaker","outputs":[{"internalType":"uint256","name":"","type":"uint256"}],"stateMutability":"view","type":"function"},{"inputs":[{"internalType":"address","name":"operator","type":"address"},{"internalType":"bool","name":"approved","type":"bool"}],"name":"setApprovalForAll","outputs":[],"stateMutability":"nonpayable","type":"function"},{"inputs":[],"name":"setCodebreaker","outputs":[],"stateMutability":"nonpayable","type":"function"},{"inputs":[],"name":"setCodemaker","outputs":[],"stateMutability":"nonpayable","type":"function"},{"inputs":[{"internalType":"uint8[]","name":"_secretCode","type":"uint8[]"}],"name":"startGame","outputs":[],"stateMutability":"nonpayable","type":"function"},{"inputs":[{"internalType":"bytes4","name":"interfaceId","type":"bytes4"}],"name":"supportsInterface","outputs":[{"internalType":"bool","name":"","type":"bool"}],"stateMutability":"view","type":"function"},{"inputs":[],"name":"symbol","outputs":[{"internalType":"string","name":"","type":"string"}],"stateMutability":"view","type":"function"},{"inputs":[{"internalType":"uint256","name":"tokenId","type":"uint256"}],"name":"tokenURI","outputs":[{"internalType":"string","name":"","type":"string"}],"stateMutability":"view","type":"function"},{"inputs":[{"internalType":"address","name":"from","type":"address"},{"internalType":"address","name":"to","type":"address"},{"internalType":"uint256","name":"tokenId","type":"uint256"}],"name":"transferFrom","outputs":[],"stateMutability":"nonpayable","type":"function"}],"evm":{"bytecode":{"linkReferences":{},"object":"60806040523480156200001157600080fd5b506040518060400160405280600a81526020017f4d61737465724d696e64000000000000000000000000000000000000000000008152506040518060400160405280600381526020017f4d534d000000000000000000000000000000000000000000000000000000000081525081600090816200008f91906200033f565b508060019081620000a191906200033f565b5050506000600c60006101000a81548160ff02191690831515021790555062000426565b600081519050919050565b7f4e487b7100000000000000000000000000000000000000000000000000000000600052604160045260246000fd5b7f4e487b7100000000000000000000000000000000000000000000000000000000600052602260045260246000fd5b600060028204905060018216806200014757607f821691505b6020821081036200015d576200015c620000ff565b5b50919050565b60008190508160005260206000209050919050565b60006020601f8301049050919050565b600082821b905092915050565b600060088302620001c77fffffffffffffffffffffffffffffffffffffffffffffffffffffffffffffffff8262000188565b620001d3868362000188565b95508019841693508086168417925050509392505050565b6000819050919050565b6000819050919050565b6000620002206200021a6200021484620001eb565b620001f5565b620001eb565b9050919050565b6000819050919050565b6200023c83620001ff565b620002546200024b8262000227565b84845462000195565b825550505050565b600090565b6200026b6200025c565b6200027881848462000231565b505050565b5b81811015620002a0576200029460008262000261565b6001810190506200027e565b5050565b601f821115620002ef57620002b98162000163565b620002c48462000178565b81016020851015620002d4578190505b620002ec620002e38562000178565b8301826200027d565b50505b505050565b600082821c905092915050565b60006200031460001984600802620002f4565b1980831691505092915050565b60006200032f838362000301565b9150826002028217905092915050565b6200034a82620000c5565b67ffffffffffffffff811115620003665762000365620000d0565b5b6200037282546200012e565b6200037f828285620002a4565b600060209050601f831160018114620003b75760008415620003a2578287015190505b620003ae858262000321565b8655506200041e565b601f198416620003c78662000163565b60005b82811015620003f157848901518255600182019150602085019450602081019050620003ca565b868310156200041157848901516200040d601f89168262000301565b8355505b6001600288020188555050505b505050505050565b6156bc80620004366000396000f3fe608060405234801561001057600080fd5b50600436106101da5760003560e01c8063797642db11610104578063b88d4fde116100a2578063db1329d511610071578063db1329d514610523578063e985e9c514610542578063f020044f14610572578063f0d4e2db14610590576101da565b8063b88d4fde1461049b578063c0e361d2146104b7578063c68a9fe4146104d5578063c87b56dd146104f3576101da565b80638e5cd8e9116100de5780638e5cd8e91461043b57806395d89b4114610445578063a22cb46514610463578063a42dc7b71461047f576101da565b8063797642db146103f5578063801db33d146104135780638489460614610431576101da565b806323b872dd1161017c57806350633fa71161014b57806350633fa7146103595780636352211e1461037757806370a08231146103a7578063722fed7e146103d7576101da565b806323b872dd146102e7578063276d21211461030357806329b817c81461031f57806342842e0e1461033d576101da565b8063081812fc116101b8578063081812fc1461024b578063095ea7b31461027b5780630e5c05f1146102975780631f491389146102b5576101da565b8063011d7ab2146101df57806301ffc9a7146101fd57806306fdde031461022d575b600080fd5b6101e76105ae565b6040516101f49190613223565b60405180910390f35b610217600480360381019061021291906132aa565b6105b4565b60405161022491906132f2565b60405180910390f35b610235610696565b604051610242919061339d565b60405180910390f35b610265600480360381019061026091906133eb565b610728565b6040516102729190613459565b60405180910390f35b610295600480360381019061029091906134a0565b610744565b005b61029f61075a565b6040516102ac9190613459565b60405180910390f35b6102cf60048036038101906102ca91906133eb565b610780565b6040516102de939291906134fc565b60405180910390f35b61030160048036038101906102fc9190613533565b6107e1565b005b61031d600480360381019061031891906136fa565b6108e3565b005b610327610cd3565b6040516103349190613223565b60405180910390f35b61035760048036038101906103529190613533565b610cdd565b005b610361610cfd565b60405161036e9190613459565b60405180910390f35b610391600480360381019061038c91906133eb565b610d23565b60405161039e9190613459565b60405180910390f35b6103c160048036038101906103bc9190613743565b610d35565b6040516103ce9190613223565b60405180910390f35b6103df610def565b6040516103ec91906137e7565b60405180910390f35b6103fd610e02565b60405161040a91906139f4565b60405180910390f35b61041b610f34565b6040516104289190613223565b60405180910390f35b610439610f3e565b005b610443611041565b005b61044d611144565b60405161045a919061339d565b60405180910390f35b61047d60048036038101906104789190613a42565b6111d6565b005b610499600480360381019061049491906136fa565b6111ec565b005b6104b560048036038101906104b09190613b37565b611836565b005b6104bf611853565b6040516104cc9190613223565b60405180910390f35b6104dd611859565b6040516104ea9190613223565b60405180910390f35b61050d600480360381019061050891906133eb565b61185f565b60405161051a919061339d565b60405180910390f35b61052b6119a3565b604051610539929190613bba565b60405180910390f35b61055c60048036038101906105579190613be3565b611b16565b60405161056991906132f2565b60405180910390f35b61057a611baa565b60405161058791906132f2565b60405180910390f35b610598611bbd565b6040516105a59190613ce5565b60405180910390f35b600f5481565b60007f80ac58cd000000000000000000000000000000000000000000000000000000007bffffffffffffffffffffffffffffffffffffffffffffffffffffffff1916827bffffffffffffffffffffffffffffffffffffffffffffffffffffffff1916148061067f57507f5b5e139f000000000000000000000000000000000000000000000000000000007bffffffffffffffffffffffffffffffffffffffffffffffffffffffff1916827bffffffffffffffffffffffffffffffffffffffffffffffffffffffff1916145b8061068f575061068e82611cf3565b5b9050919050565b6060600080546106a590613d36565b80601f01602080910402602001604051908101604052809291908181526020018280546106d190613d36565b801561071e5780601f106106f35761010080835404028352916020019161071e565b820191906000526020600020905b81548152906001019060200180831161070157829003601f168201915b5050505050905090565b600061073382611d5d565b5061073d82611de5565b9050919050565b6107568282610751611e22565b611e2a565b5050565b600860009054906101000a900473ffffffffffffffffffffffffffffffffffffffff1681565b600d818154811061079057600080fd5b90600052602060002090600202016000915090508060010160009054906101000a900460ff16908060010160019054906101000a900460ff16908060010160029054906101000a900460ff16905083565b600073ffffffffffffffffffffffffffffffffffffffff168273ffffffffffffffffffffffffffffffffffffffff16036108535760006040517f64a0ae9200000000000000000000000000000000000000000000000000000000815260040161084a9190613459565b60405180910390fd5b60006108678383610862611e22565b611e3c565b90508373ffffffffffffffffffffffffffffffffffffffff168173ffffffffffffffffffffffffffffffffffffffff16146108dd578382826040517f64283d7b0000000000000000000000000000000000000000000000000000000081526004016108d493929190613d67565b60405180910390fd5b50505050565b600760009054906101000a900473ffffffffffffffffffffffffffffffffffffffff1673ffffffffffffffffffffffffffffffffffffffff163373ffffffffffffffffffffffffffffffffffffffff1614610973576040517f08c379a000000000000000000000000000000000000000000000000000000000815260040161096a90613e10565b60405180910390fd5b600073ffffffffffffffffffffffffffffffffffffffff16600760009054906101000a900473ffffffffffffffffffffffffffffffffffffffff1673ffffffffffffffffffffffffffffffffffffffff1603610a04576040517f08c379a00000000000000000000000000000000000000000000000000000000081526004016109fb90613e7c565b60405180910390fd5b600073ffffffffffffffffffffffffffffffffffffffff16600860009054906101000a900473ffffffffffffffffffffffffffffffffffffffff1673ffffffffffffffffffffffffffffffffffffffff1603610a95576040517f08c379a0000000000000000000000000000000000000000000000000000000008152600401610a8c90613ee8565b60405180910390fd5b600460ff16815114610adc576040517f08c379a0000000000000000000000000000000000000000000000000000000008152600401610ad390613f7a565b60405180910390fd5b60011515600c60009054906101000a900460ff16151503610b29576040517fbcefc32900000000000000000000000000000000000000000000000000000000815260040160405180910390fd5b80600a9080519060200190610b3f929190613075565b5080604051602001610b51919061402a565b604051602081830303815290604052805190602001206009819055506000600b81905550600d6000610b83919061311c565b6001600c60006101000a81548160ff0219169083151502179055506000600c60016101000a81548160ff02191690836002811115610bc457610bc3613770565b5b02179055506000600e819055506000600f81905550600760009054906101000a900473ffffffffffffffffffffffffffffffffffffffff1673ffffffffffffffffffffffffffffffffffffffff167fea32a03505fd9f04d664676d72295a86c5fb0465e69654751907ca305bc1d1c742604051610c419190613223565b60405180910390a27fafcf3201aa5a8b6350cd7e42802f62089c82cf3e88f4ef6d7a1cabd94763d8d9600c60019054906101000a900460ff1642604051610c89929190614041565b60405180910390a17fb2383e82269e758b9ec0fc961ac69cecc166570a12068c11b3f9cf29c8de9e88600e54600f5442604051610cc89392919061406a565b60405180910390a150565b6000600f54905090565b610cf883838360405180602001604052806000815250611836565b505050565b600760009054906101000a900473ffffffffffffffffffffffffffffffffffffffff1681565b6000610d2e82611d5d565b9050919050565b60008073ffffffffffffffffffffffffffffffffffffffff168273ffffffffffffffffffffffffffffffffffffffff1603610da85760006040517f89c62b64000000000000000000000000000000000000000000000000000000008152600401610d9f9190613459565b60405180910390fd5b600360008373ffffffffffffffffffffffffffffffffffffffff1673ffffffffffffffffffffffffffffffffffffffff168152602001908152602001600020549050919050565b600c60019054906101000a900460ff1681565b6060600d805480602002602001604051908101604052809291908181526020016000905b82821015610f2b578382906000526020600020906002020160405180608001604052908160008201805480602002602001604051908101604052809291908181526020018280548015610ebe57602002820191906000526020600020906000905b82829054906101000a900460ff1660ff1681526020019060010190602082600001049283019260010382029150808411610e875790505b505050505081526020016001820160009054906101000a900460ff1660ff1660ff1681526020016001820160019054906101000a900460ff1660ff1660ff1681526020016001820160029054906101000a900460ff16151515158152505081526020019060010190610e26565b50505050905090565b6000600e54905090565b600c60009054906101000a900460ff1615610f8e576040517f08c379a0000000000000000000000000000000000000000000000000000000008152600401610f85906140ed565b60405180910390fd5b33600860006101000a81548173ffffffffffffffffffffffffffffffffffffffff021916908373ffffffffffffffffffffffffffffffffffffffff160217905550600860009054906101000a900473ffffffffffffffffffffffffffffffffffffffff1673ffffffffffffffffffffffffffffffffffffffff167fe030cca42591fdc0fe1e7a7cc3892f5f6d13aaa3aebcafa2563c78df1b9de251426040516110379190613223565b60405180910390a2565b600c60009054906101000a900460ff1615611091576040517f08c379a0000000000000000000000000000000000000000000000000000000008152600401611088906140ed565b60405180910390fd5b33600760006101000a81548173ffffffffffffffffffffffffffffffffffffffff021916908373ffffffffffffffffffffffffffffffffffffffff160217905550600760009054906101000a900473ffffffffffffffffffffffffffffffffffffffff1673ffffffffffffffffffffffffffffffffffffffff167f65bd3084c68c3b9e4a26f0857a1c9a69285e55ded79629480351f98856f096a24260405161113a9190613223565b60405180910390a2565b60606001805461115390613d36565b80601f016020809104026020016040519081016040528092919081815260200182805461117f90613d36565b80156111cc5780601f106111a1576101008083540402835291602001916111cc565b820191906000526020600020905b8154815290600101906020018083116111af57829003601f168201915b5050505050905090565b6111e86111e1611e22565b8383612056565b5050565b600860009054906101000a900473ffffffffffffffffffffffffffffffffffffffff1673ffffffffffffffffffffffffffffffffffffffff163373ffffffffffffffffffffffffffffffffffffffff161461127c576040517f08c379a00000000000000000000000000000000000000000000000000000000081526004016112739061417f565b60405180910390fd5b600c60009054906101000a900460ff166112cb576040517f08c379a00000000000000000000000000000000000000000000000000000000081526004016112c2906141eb565b60405180910390fd5b600460ff16815114611312576040517f08c379a000000000000000000000000000000000000000000000000000000000815260040161130990614257565b60405180910390fd5b600a60ff16600b541061135a576040517f08c379a0000000000000000000000000000000000000000000000000000000008152600401611351906142e9565b60405180910390fd5b600080611366836121c5565b915091506000600460ff168360ff16149050600d60405180608001604052808681526020018560ff1681526020018460ff168152602001831515815250908060018154018082558091505060019003906000526020600020906002020160009091909190915060008201518160000190805190602001906113e8929190613075565b5060208201518160010160006101000a81548160ff021916908360ff16021790555060408201518160010160016101000a81548160ff021916908360ff16021790555060608201518160010160026101000a81548160ff0219169083151502179055505050600860009054906101000a900473ffffffffffffffffffffffffffffffffffffffff1673ffffffffffffffffffffffffffffffffffffffff167f0b733e8664b442058353db00385a5c6640f039b74589925d748092f1d1b6baad85858585426040516114bd959493929190614378565b60405180910390a2801561166d576000600c60006101000a81548160ff0219169083151502179055506001600c60016101000a81548160ff0219169083600281111561150c5761150b613770565b5b0217905550612710600e60008282546115259190614401565b9250508190555061153660066123ec565b60006115426006612402565b9050611570600860009054906101000a900473ffffffffffffffffffffffffffffffffffffffff1682612410565b7fafcf3201aa5a8b6350cd7e42802f62089c82cf3e88f4ef6d7a1cabd94763d8d9600c60019054906101000a900460ff16426040516115b0929190614041565b60405180910390a1600860009054906101000a900473ffffffffffffffffffffffffffffffffffffffff1673ffffffffffffffffffffffffffffffffffffffff167fd4ba6fec82d9b0e8ffe50b9fed9e4be3b25c984ce1e0e016405a5528726e8a2c426040516116209190613223565b60405180910390a27fb2383e82269e758b9ec0fc961ac69cecc166570a12068c11b3f9cf29c8de9e88600e54600f544260405161165f9392919061406a565b60405180910390a150611830565b6064600f60008282546116809190614401565b92505081905550600b600081548092919061169a90614435565b9190505550600a60ff16600b541061182f576000600c60006101000a81548160ff0219169083151502179055506002600c60016101000a81548160ff021916908360028111156116ed576116ec613770565b5b02179055506116fc60066123ec565b60006117086006612402565b9050611736600760009054906101000a900473ffffffffffffffffffffffffffffffffffffffff1682612410565b7fafcf3201aa5a8b6350cd7e42802f62089c82cf3e88f4ef6d7a1cabd94763d8d9600c60019054906101000a900460ff1642604051611776929190614041565b60405180910390a1600760009054906101000a900473ffffffffffffffffffffffffffffffffffffffff1673ffffffffffffffffffffffffffffffffffffffff167fd4ba6fec82d9b0e8ffe50b9fed9e4be3b25c984ce1e0e016405a5528726e8a2c426040516117e69190613223565b60405180910390a27fb2383e82269e758b9ec0fc961ac69cecc166570a12068c11b3f9cf29c8de9e88600e54600f54426040516118259392919061406a565b60405180910390a1505b5b50505050565b6118418484846107e1565b61184d8484848461242e565b50505050565b600e5481565b600b5481565b606060006001600281111561187757611876613770565b5b600c60019054906101000a900460ff16600281111561189957611898613770565b5b146118d9576040518060400160405280600481526020017f4c6f737400000000000000000000000000000000000000000000000000000000815250611910565b6040518060400160405280600381526020017f576f6e00000000000000000000000000000000000000000000000000000000008152505b9050600061191e82856125e5565b9050600061192b85610d23565b9050600061196d61193b8761264c565b8561194585612827565b866040516020016119599493929190614719565b6040516020818303038152906040526129e4565b9050611977612b56565b81604051602001611989929190614799565b604051602081830303815290604052945050505050919050565b6000806000600d80549050116119ee576040517f08c379a00000000000000000000000000000000000000000000000000000000081526004016119e590614809565b60405180910390fd5b6000600d6001600d80549050611a049190614829565b81548110611a1557611a1461485d565b5b906000526020600020906002020160405180608001604052908160008201805480602002602001604051908101604052809291908181526020018280548015611aa357602002820191906000526020600020906000905b82829054906101000a900460ff1660ff1681526020019060010190602082600001049283019260010382029150808411611a6c5790505b505050505081526020016001820160009054906101000a900460ff1660ff1660ff1681526020016001820160019054906101000a900460ff1660ff1660ff1681526020016001820160029054906101000a900460ff16151515158152505090508060200151816040015192509250509091565b6000600560008473ffffffffffffffffffffffffffffffffffffffff1673ffffffffffffffffffffffffffffffffffffffff16815260200190815260200160002060008373ffffffffffffffffffffffffffffffffffffffff1673ffffffffffffffffffffffffffffffffffffffff16815260200190815260200160002060009054906101000a900460ff16905092915050565b600c60009054906101000a900460ff1681565b60606000600d8054905067ffffffffffffffff811115611be057611bdf61358b565b5b604051908082528060200260200182016040528015611c1357816020015b6060815260200190600190039081611bfe5790505b50905060005b600d80549050811015611ceb57600d8181548110611c3a57611c3961485d565b5b9060005260206000209060020201600001805480602002602001604051908101604052809291908181526020018280548015611cbb57602002820191906000526020600020906000905b82829054906101000a900460ff1660ff1681526020019060010190602082600001049283019260010382029150808411611c845790505b5050505050828281518110611cd357611cd261485d565b5b60200260200101819052508080600101915050611c19565b508091505090565b60007f01ffc9a7000000000000000000000000000000000000000000000000000000007bffffffffffffffffffffffffffffffffffffffffffffffffffffffff1916827bffffffffffffffffffffffffffffffffffffffffffffffffffffffff1916149050919050565b600080611d6983612b93565b9050600073ffffffffffffffffffffffffffffffffffffffff168173ffffffffffffffffffffffffffffffffffffffff1603611ddc57826040517f7e273289000000000000000000000000000000000000000000000000000000008152600401611dd39190613223565b60405180910390fd5b80915050919050565b60006004600083815260200190815260200160002060009054906101000a900473ffffffffffffffffffffffffffffffffffffffff169050919050565b600033905090565b611e378383836001612bd0565b505050565b600080611e4884612b93565b9050600073ffffffffffffffffffffffffffffffffffffffff168373ffffffffffffffffffffffffffffffffffffffff1614611e8a57611e89818486612d95565b5b600073ffffffffffffffffffffffffffffffffffffffff168173ffffffffffffffffffffffffffffffffffffffff1614611f1b57611ecc600085600080612bd0565b6001600360008373ffffffffffffffffffffffffffffffffffffffff1673ffffffffffffffffffffffffffffffffffffffff168152602001908152602001600020600082825403925050819055505b600073ffffffffffffffffffffffffffffffffffffffff168573ffffffffffffffffffffffffffffffffffffffff1614611f9e576001600360008773ffffffffffffffffffffffffffffffffffffffff1673ffffffffffffffffffffffffffffffffffffffff168152602001908152602001600020600082825401925050819055505b846002600086815260200190815260200160002060006101000a81548173ffffffffffffffffffffffffffffffffffffffff021916908373ffffffffffffffffffffffffffffffffffffffff160217905550838573ffffffffffffffffffffffffffffffffffffffff168273ffffffffffffffffffffffffffffffffffffffff167fddf252ad1be2c89b69c2b068fc378daa952ba7f163c4a11628f55a4df523b3ef60405160405180910390a4809150509392505050565b600073ffffffffffffffffffffffffffffffffffffffff168273ffffffffffffffffffffffffffffffffffffffff16036120c757816040517f5b08ba180000000000000000000000000000000000000000000000000000000081526004016120be9190613459565b60405180910390fd5b80600560008573ffffffffffffffffffffffffffffffffffffffff1673ffffffffffffffffffffffffffffffffffffffff16815260200190815260200160002060008473ffffffffffffffffffffffffffffffffffffffff1673ffffffffffffffffffffffffffffffffffffffff16815260200190815260200160002060006101000a81548160ff0219169083151502179055508173ffffffffffffffffffffffffffffffffffffffff168373ffffffffffffffffffffffffffffffffffffffff167f17307eab39ab6107e8899845ad3d59bd9653f200f220920489ca2b5937696c31836040516121b891906132f2565b60405180910390a3505050565b6000806121d0613140565b6121d8613140565b60005b600460ff168160ff1610156122b857600a8160ff16815481106122015761220061485d565b5b90600052602060002090602091828204019190069054906101000a900460ff1660ff16868260ff168151811061223a5761223961485d565b5b602002602001015160ff16036122ab5784806122559061488c565b9550506001838260ff16600481106122705761226f61485d565b5b602002019060ff16908160ff16815250506001828260ff16600481106122995761229861485d565b5b602002019060ff16908160ff16815250505b80806001019150506121db565b5060005b600460ff168160ff1610156123e4576000828260ff16600481106122e3576122e261485d565b5b602002015160ff16036123d75760005b600460ff168160ff1610156123d5576000848260ff166004811061231a5761231961485d565b5b602002015160ff161480156123875750600a8160ff16815481106123415761234061485d565b5b90600052602060002090602091828204019190069054906101000a900460ff1660ff16878360ff168151811061237a5761237961485d565b5b602002602001015160ff16145b156123c85784806123979061488c565b9550506001848260ff16600481106123b2576123b161485d565b5b602002019060ff16908160ff16815250506123d5565b80806001019150506122f3565b505b80806001019150506122bc565b505050915091565b6001816000016000828254019250508190555050565b600081600001549050919050565b61242a828260405180602001604052806000815250612e59565b5050565b60008373ffffffffffffffffffffffffffffffffffffffff163b11156125df578273ffffffffffffffffffffffffffffffffffffffff1663150b7a02612472611e22565b8685856040518563ffffffff1660e01b8152600401612494949392919061490a565b6020604051808303816000875af19250505080156124d057506040513d601f19601f820116820180604052508101906124cd919061496b565b60015b612554573d8060008114612500576040519150601f19603f3d011682016040523d82523d6000602084013e612505565b606091505b50600081510361254c57836040517f64a0ae920000000000000000000000000000000000000000000000000000000081526004016125439190613459565b60405180910390fd5b805181602001fd5b63150b7a0260e01b7bffffffffffffffffffffffffffffffffffffffffffffffffffffffff1916817bffffffffffffffffffffffffffffffffffffffffffffffffffffffff1916146125dd57836040517f64a0ae920000000000000000000000000000000000000000000000000000000081526004016125d49190613459565b60405180910390fd5b505b50505050565b60606000836125f38461264c565b60405160200161260492919061519c565b60405160208183030381529060405290506000612620826129e4565b60405160200161263091906152d2565b6040516020818303038152906040529050809250505092915050565b60606000604e905060008167ffffffffffffffff8111156126705761266f61358b565b5b6040519080825280601f01601f1916602001820160405280156126a25781602001600182028036833780820191505090505b50905060005b60008514612734576000600a866126bf9190615323565b9050600a866126ce9190615354565b95508060306126dd9190614401565b60f81b8383806126ec90614435565b9450815181106126ff576126fe61485d565b5b60200101907effffffffffffffffffffffffffffffffffffffffffffffffffffffffffffff1916908160001a905350506126a8565b60008167ffffffffffffffff8111156127505761274f61358b565b5b6040519080825280601f01601f1916602001820160405280156127825781602001600182028036833780820191505090505b50905060005b8281101561281457836001828561279f9190614829565b6127a99190614829565b815181106127ba576127b961485d565b5b602001015160f81c60f81b8282815181106127d8576127d761485d565b5b60200101907effffffffffffffffffffffffffffffffffffffffffffffffffffffffffffff1916908160001a9053508080600101915050612788565b5060008190508095505050505050919050565b60606000602867ffffffffffffffff8111156128465761284561358b565b5b6040519080825280601f01601f1916602001820160405280156128785781602001600182028036833780820191505090505b50905060005b60148110156129da5760008160136128969190614829565b60086128a29190615385565b60026128ae91906154fa565b8573ffffffffffffffffffffffffffffffffffffffff166128cf9190615354565b60f81b9050600060108260f81c6128e69190615545565b60f81b905060008160f81c60106128fd9190615576565b8360f81c61290b91906155b3565b60f81b905061291982612e75565b858560026129279190615385565b815181106129385761293761485d565b5b60200101907effffffffffffffffffffffffffffffffffffffffffffffffffffffffffffff1916908160001a90535061297081612e75565b8560018660026129809190615385565b61298a9190614401565b8151811061299b5761299a61485d565b5b60200101907effffffffffffffffffffffffffffffffffffffffffffffffffffffffffffff1916908160001a905350505050808060010191505061287e565b5080915050919050565b60606000825103612a0657604051806020016040528060008152509050612b51565b60006040518060600160405280604081526020016156476040913990506000600360028551612a359190614401565b612a3f9190615354565b6004612a4b9190615385565b67ffffffffffffffff811115612a6457612a6361358b565b5b6040519080825280601f01601f191660200182016040528015612a965781602001600182028036833780820191505090505b50905060018201602082018586518701602081018051600082525b82841015612b0c576003840193508351603f8160121c168701518653600186019550603f81600c1c168701518653600186019550603f8160061c168701518653600186019550603f8116870151865360018601955050612ab1565b80825260038a510660018114612b295760028114612b3c57612b44565b603d6001870353603d6002870353612b44565b603d60018703535b5050505050505080925050505b919050565b60606040518060400160405280601d81526020017f646174613a6170706c69636174696f6e2f6a736f6e3b6261736536342c000000815250905090565b60006002600083815260200190815260200160002060009054906101000a900473ffffffffffffffffffffffffffffffffffffffff169050919050565b8080612c095750600073ffffffffffffffffffffffffffffffffffffffff168273ffffffffffffffffffffffffffffffffffffffff1614155b15612d3d576000612c1984611d5d565b9050600073ffffffffffffffffffffffffffffffffffffffff168373ffffffffffffffffffffffffffffffffffffffff1614158015612c8457508273ffffffffffffffffffffffffffffffffffffffff168173ffffffffffffffffffffffffffffffffffffffff1614155b8015612c975750612c958184611b16565b155b15612cd957826040517fa9fbf51f000000000000000000000000000000000000000000000000000000008152600401612cd09190613459565b60405180910390fd5b8115612d3b57838573ffffffffffffffffffffffffffffffffffffffff168273ffffffffffffffffffffffffffffffffffffffff167f8c5be1e5ebec7d5bd14f71427d1e84f3dd0314c0f7b2291e5b200ac8c7c3b92560405160405180910390a45b505b836004600085815260200190815260200160002060006101000a81548173ffffffffffffffffffffffffffffffffffffffff021916908373ffffffffffffffffffffffffffffffffffffffff16021790555050505050565b612da0838383612ebb565b612e5457600073ffffffffffffffffffffffffffffffffffffffff168373ffffffffffffffffffffffffffffffffffffffff1603612e1557806040517f7e273289000000000000000000000000000000000000000000000000000000008152600401612e0c9190613223565b60405180910390fd5b81816040517f177e802f000000000000000000000000000000000000000000000000000000008152600401612e4b9291906155e8565b60405180910390fd5b505050565b612e638383612f7c565b612e70600084848461242e565b505050565b6000600a8260f81c60ff161015612ea05760308260f81c612e969190615611565b60f81b9050612eb6565b60578260f81c612eb09190615611565b60f81b90505b919050565b60008073ffffffffffffffffffffffffffffffffffffffff168373ffffffffffffffffffffffffffffffffffffffff1614158015612f7357508273ffffffffffffffffffffffffffffffffffffffff168473ffffffffffffffffffffffffffffffffffffffff161480612f345750612f338484611b16565b5b80612f7257508273ffffffffffffffffffffffffffffffffffffffff16612f5a83611de5565b73ffffffffffffffffffffffffffffffffffffffff16145b5b90509392505050565b600073ffffffffffffffffffffffffffffffffffffffff168273ffffffffffffffffffffffffffffffffffffffff1603612fee5760006040517f64a0ae92000000000000000000000000000000000000000000000000000000008152600401612fe59190613459565b60405180910390fd5b6000612ffc83836000611e3c565b9050600073ffffffffffffffffffffffffffffffffffffffff168173ffffffffffffffffffffffffffffffffffffffff16146130705760006040517f73c6ac6e0000000000000000000000000000000000000000000000000000000081526004016130679190613459565b60405180910390fd5b505050565b82805482825590600052602060002090601f0160209004810192821561310b5791602002820160005b838211156130dc57835183826101000a81548160ff021916908360ff160217905550926020019260010160208160000104928301926001030261309e565b80156131095782816101000a81549060ff02191690556001016020816000010492830192600103026130dc565b505b5090506131189190613162565b5090565b508054600082556002029060005260206000209081019061313d919061317f565b50565b6040518060800160405280600490602082028036833780820191505090505090565b5b8082111561317b576000816000905550600101613163565b5090565b5b808211156131de576000808201600061319991906131e2565b6001820160006101000a81549060ff02191690556001820160016101000a81549060ff02191690556001820160026101000a81549060ff021916905550600201613180565b5090565b50805460008255601f0160209004906000526020600020908101906132079190613162565b50565b6000819050919050565b61321d8161320a565b82525050565b60006020820190506132386000830184613214565b92915050565b6000604051905090565b600080fd5b600080fd5b60007fffffffff0000000000000000000000000000000000000000000000000000000082169050919050565b61328781613252565b811461329257600080fd5b50565b6000813590506132a48161327e565b92915050565b6000602082840312156132c0576132bf613248565b5b60006132ce84828501613295565b91505092915050565b60008115159050919050565b6132ec816132d7565b82525050565b600060208201905061330760008301846132e3565b92915050565b600081519050919050565b600082825260208201905092915050565b60005b8381101561334757808201518184015260208101905061332c565b60008484015250505050565b6000601f19601f8301169050919050565b600061336f8261330d565b6133798185613318565b9350613389818560208601613329565b61339281613353565b840191505092915050565b600060208201905081810360008301526133b78184613364565b905092915050565b6133c88161320a565b81146133d357600080fd5b50565b6000813590506133e5816133bf565b92915050565b60006020828403121561340157613400613248565b5b600061340f848285016133d6565b91505092915050565b600073ffffffffffffffffffffffffffffffffffffffff82169050919050565b600061344382613418565b9050919050565b61345381613438565b82525050565b600060208201905061346e600083018461344a565b92915050565b61347d81613438565b811461348857600080fd5b50565b60008135905061349a81613474565b92915050565b600080604083850312156134b7576134b6613248565b5b60006134c58582860161348b565b92505060206134d6858286016133d6565b9150509250929050565b600060ff82169050919050565b6134f6816134e0565b82525050565b600060608201905061351160008301866134ed565b61351e60208301856134ed565b61352b60408301846132e3565b949350505050565b60008060006060848603121561354c5761354b613248565b5b600061355a8682870161348b565b935050602061356b8682870161348b565b925050604061357c868287016133d6565b9150509250925092565b600080fd5b7f4e487b7100000000000000000000000000000000000000000000000000000000600052604160045260246000fd5b6135c382613353565b810181811067ffffffffffffffff821117156135e2576135e161358b565b5b80604052505050565b60006135f561323e565b905061360182826135ba565b919050565b600067ffffffffffffffff8211156136215761362061358b565b5b602082029050602081019050919050565b600080fd5b613640816134e0565b811461364b57600080fd5b50565b60008135905061365d81613637565b92915050565b600061367661367184613606565b6135eb565b9050808382526020820190506020840283018581111561369957613698613632565b5b835b818110156136c257806136ae888261364e565b84526020840193505060208101905061369b565b5050509392505050565b600082601f8301126136e1576136e0613586565b5b81356136f1848260208601613663565b91505092915050565b6000602082840312156137105761370f613248565b5b600082013567ffffffffffffffff81111561372e5761372d61324d565b5b61373a848285016136cc565b91505092915050565b60006020828403121561375957613758613248565b5b60006137678482850161348b565b91505092915050565b7f4e487b7100000000000000000000000000000000000000000000000000000000600052602160045260246000fd5b600381106137b0576137af613770565b5b50565b60008190506137c18261379f565b919050565b60006137d1826137b3565b9050919050565b6137e1816137c6565b82525050565b60006020820190506137fc60008301846137d8565b92915050565b600081519050919050565b600082825260208201905092915050565b6000819050602082019050919050565b600081519050919050565b600082825260208201905092915050565b6000819050602082019050919050565b613863816134e0565b82525050565b6000613875838361385a565b60208301905092915050565b6000602082019050919050565b60006138998261382e565b6138a38185613839565b93506138ae8361384a565b8060005b838110156138df5781516138c68882613869565b97506138d183613881565b9250506001810190506138b2565b5085935050505092915050565b6138f5816132d7565b82525050565b60006080830160008301518482036000860152613918828261388e565b915050602083015161392d602086018261385a565b506040830151613940604086018261385a565b50606083015161395360608601826138ec565b508091505092915050565b600061396a83836138fb565b905092915050565b6000602082019050919050565b600061398a82613802565b613994818561380d565b9350836020820285016139a68561381e565b8060005b858110156139e257848403895281516139c3858261395e565b94506139ce83613972565b925060208a019950506001810190506139aa565b50829750879550505050505092915050565b60006020820190508181036000830152613a0e818461397f565b905092915050565b613a1f816132d7565b8114613a2a57600080fd5b50565b600081359050613a3c81613a16565b92915050565b60008060408385031215613a5957613a58613248565b5b6000613a678582860161348b565b9250506020613a7885828601613a2d565b9150509250929050565b600080fd5b600067ffffffffffffffff821115613aa257613aa161358b565b5b613aab82613353565b9050602081019050919050565b82818337600083830152505050565b6000613ada613ad584613a87565b6135eb565b905082815260208101848484011115613af657613af5613a82565b5b613b01848285613ab8565b509392505050565b600082601f830112613b1e57613b1d613586565b5b8135613b2e848260208601613ac7565b91505092915050565b60008060008060808587031215613b5157613b50613248565b5b6000613b5f8782880161348b565b9450506020613b708782880161348b565b9350506040613b81878288016133d6565b925050606085013567ffffffffffffffff811115613ba257613ba161324d565b5b613bae87828801613b09565b91505092959194509250565b6000604082019050613bcf60008301856134ed565b613bdc60208301846134ed565b9392505050565b60008060408385031215613bfa57613bf9613248565b5b6000613c088582860161348b565b9250506020613c198582860161348b565b9150509250929050565b600081519050919050565b600082825260208201905092915050565b6000819050602082019050919050565b6000613c5b838361388e565b905092915050565b6000602082019050919050565b6000613c7b82613c23565b613c858185613c2e565b935083602082028501613c9785613c3f565b8060005b85811015613cd35784840389528151613cb48582613c4f565b9450613cbf83613c63565b925060208a01995050600181019050613c9b565b50829750879550505050505092915050565b60006020820190508181036000830152613cff8184613c70565b905092915050565b7f4e487b7100000000000000000000000000000000000000000000000000000000600052602260045260246000fd5b60006002820490506001821680613d4e57607f821691505b602082108103613d6157613d60613d07565b5b50919050565b6000606082019050613d7c600083018661344a565b613d896020830185613214565b613d96604083018461344a565b949350505050565b7f4f6e6c792074686520636f64656d616b65722063616e2063616c6c207468697360008201527f2066756e6374696f6e0000000000000000000000000000000000000000000000602082015250565b6000613dfa602983613318565b9150613e0582613d9e565b604082019050919050565b60006020820190508181036000830152613e2981613ded565b9050919050565b7f636f64656d616b65722061646472657373206d75737420626520736574000000600082015250565b6000613e66601d83613318565b9150613e7182613e30565b602082019050919050565b60006020820190508181036000830152613e9581613e59565b9050919050565b7f436f6465627265616b65722061646472657373206d7573742062652073657400600082015250565b6000613ed2601f83613318565b9150613edd82613e9c565b602082019050919050565b60006020820190508181036000830152613f0181613ec5565b9050919050565b7f53656372657420636f6465206d757374206265203420646967697473206c6f6e60008201527f6700000000000000000000000000000000000000000000000000000000000000602082015250565b6000613f64602183613318565b9150613f6f82613f08565b604082019050919050565b60006020820190508181036000830152613f9381613f57565b9050919050565b600081905092915050565b613fae816134e0565b82525050565b6000613fc08383613fa5565b60208301905092915050565b6000613fd78261382e565b613fe18185613f9a565b9350613fec8361384a565b8060005b8381101561401d5781516140048882613fb4565b975061400f83613881565b925050600181019050613ff0565b5085935050505092915050565b60006140368284613fcc565b915081905092915050565b600060408201905061405660008301856137d8565b6140636020830184613214565b9392505050565b600060608201905061407f6000830186613214565b61408c6020830185613214565b6140996040830184613214565b949350505050565b7f47616d6520696e2073657373696f6e0000000000000000000000000000000000600082015250565b60006140d7600f83613318565b91506140e2826140a1565b602082019050919050565b60006020820190508181036000830152614106816140ca565b9050919050565b7f4f6e6c792074686520636f6465627265616b65722063616e2063616c6c20746860008201527f69732066756e6374696f6e000000000000000000000000000000000000000000602082015250565b6000614169602b83613318565b91506141748261410d565b604082019050919050565b600060208201905081810360008301526141988161415c565b9050919050565b7f47616d65206973206e6f74206163746976650000000000000000000000000000600082015250565b60006141d5601283613318565b91506141e08261419f565b602082019050919050565b60006020820190508181036000830152614204816141c8565b9050919050565b7f4775657373206d757374206265203420646967697473206c6f6e670000000000600082015250565b6000614241601b83613318565b915061424c8261420b565b602082019050919050565b6000602082019050818103600083015261427081614234565b9050919050565b7f4d6178696d756d206e756d626572206f6620677565737365732072656163686560008201527f6400000000000000000000000000000000000000000000000000000000000000602082015250565b60006142d3602183613318565b91506142de82614277565b604082019050919050565b60006020820190508181036000830152614302816142c6565b9050919050565b600082825260208201905092915050565b60006143258261382e565b61432f8185614309565b935061433a8361384a565b8060005b8381101561436b5781516143528882613869565b975061435d83613881565b92505060018101905061433e565b5085935050505092915050565b600060a0820190508181036000830152614392818861431a565b90506143a160208301876134ed565b6143ae60408301866134ed565b6143bb60608301856132e3565b6143c86080830184613214565b9695505050505050565b7f4e487b7100000000000000000000000000000000000000000000000000000000600052601160045260246000fd5b600061440c8261320a565b91506144178361320a565b925082820190508082111561442f5761442e6143d2565b5b92915050565b60006144408261320a565b91507fffffffffffffffffffffffffffffffffffffffffffffffffffffffffffffffff8203614472576144716143d2565b5b600182019050919050565b600081905092915050565b7f7b226e616d65223a224d61737465726d696e6420230000000000000000000000600082015250565b60006144be60158361447d565b91506144c982614488565b601582019050919050565b60006144df8261330d565b6144e9818561447d565b93506144f9818560208601613329565b80840191505092915050565b7f222c20226465736372697074696f6e223a22416e204e4654207468617420726560008201527f666c6563747320746865206f7574636f6d65206f662061204d61737465726d6960208201527f6e642067616d65222c2000000000000000000000000000000000000000000000604082015250565b6000614587604a8361447d565b915061459282614505565b604a82019050919050565b7f2261747472696275746573223a205b7b2274726169745f74797065223a20226760008201527f616d655f726573756c74222c202276616c7565223a2022000000000000000000602082015250565b60006145f960378361447d565b91506146048261459d565b603782019050919050565b7f227d2c207b2274726169745f74797065223a20226f776e6572222c202276616c60008201527f7565223a20220000000000000000000000000000000000000000000000000000602082015250565b600061466b60268361447d565b91506146768261460f565b602682019050919050565b7f227d5d2c2022696d616765223a22000000000000000000000000000000000000600082015250565b60006146b7600e8361447d565b91506146c282614681565b600e82019050919050565b7f227d000000000000000000000000000000000000000000000000000000000000600082015250565b600061470360028361447d565b915061470e826146cd565b600282019050919050565b6000614724826144b1565b915061473082876144d4565b915061473b8261457a565b9150614746826145ec565b915061475282866144d4565b915061475d8261465e565b915061476982856144d4565b9150614774826146aa565b915061478082846144d4565b915061478b826146f6565b915081905095945050505050565b60006147a582856144d4565b91506147b182846144d4565b91508190509392505050565b7f4e6f2067756573736573206d6164652079657400000000000000000000000000600082015250565b60006147f3601383613318565b91506147fe826147bd565b602082019050919050565b60006020820190508181036000830152614822816147e6565b9050919050565b60006148348261320a565b915061483f8361320a565b9250828203905081811115614857576148566143d2565b5b92915050565b7f4e487b7100000000000000000000000000000000000000000000000000000000600052603260045260246000fd5b6000614897826134e0565b915060ff82036148aa576148a96143d2565b5b600182019050919050565b600081519050919050565b600082825260208201905092915050565b60006148dc826148b5565b6148e681856148c0565b93506148f6818560208601613329565b6148ff81613353565b840191505092915050565b600060808201905061491f600083018761344a565b61492c602083018661344a565b6149396040830185613214565b818103606083015261494b81846148d1565b905095945050505050565b6000815190506149658161327e565b92915050565b60006020828403121561498157614980613248565b5b600061498f84828501614956565b91505092915050565b7f3c7376672077696474683d2233303022206865696768743d223330302220786d60008201527f6c6e733d22687474703a2f2f7777772e77332e6f72672f323030302f7376672260208201527f3e00000000000000000000000000000000000000000000000000000000000000604082015250565b6000614a1a60418361447d565b9150614a2582614998565b604182019050919050565b7f3c726563742077696474683d2233303022206865696768743d2233303022206660008201527f696c6c3d2223336330613633222072783d223430222072793d2234302220737460208201527f726f6b653d222366666437303022207374726f6b652d77696474683d2232302260408201527f2f3e000000000000000000000000000000000000000000000000000000000000606082015250565b6000614ad860628361447d565b9150614ae382614a30565b606282019050919050565b7f3c636972636c652063783d22313530222063793d2236302220723d223330222060008201527f66696c6c3d2223303063666666222f3e00000000000000000000000000000000602082015250565b6000614b4a60308361447d565b9150614b5582614aee565b603082019050919050565b7f3c636972636c652063783d223630222063793d223135302220723d223330222060008201527f66696c6c3d2223303066663537222f3e00000000000000000000000000000000602082015250565b6000614bbc60308361447d565b9150614bc782614b60565b603082019050919050565b7f3c636972636c652063783d22313530222063793d223234302220723d2233302260008201527f2066696c6c3d2223666635633563222f3e000000000000000000000000000000602082015250565b6000614c2e60318361447d565b9150614c3982614bd2565b603182019050919050565b7f3c636972636c652063783d22323430222063793d223135302220723d2233302260008201527f2066696c6c3d2223623235636666222f3e000000000000000000000000000000602082015250565b6000614ca060318361447d565b9150614cab82614c44565b603182019050919050565b7f3c636972636c652063783d223630222063793d2236302220723d22333022206660008201527f696c6c3d2223666639623030222f3e0000000000000000000000000000000000602082015250565b6000614d12602f8361447d565b9150614d1d82614cb6565b602f82019050919050565b7f3c636972636c652063783d22323430222063793d2236302220723d223330222060008201527f66696c6c3d2223666635636632222f3e00000000000000000000000000000000602082015250565b6000614d8460308361447d565b9150614d8f82614d28565b603082019050919050565b7f3c636972636c652063783d22323430222063793d223234302220723d2233302260008201527f2066696c6c3d2223666639623030222f3e000000000000000000000000000000602082015250565b6000614df660318361447d565b9150614e0182614d9a565b603182019050919050565b7f3c636972636c652063783d223630222063793d223234302220723d223330222060008201527f66696c6c3d2223666663663030222f3e00000000000000000000000000000000602082015250565b6000614e6860308361447d565b9150614e7382614e0c565b603082019050919050565b7f3c7465787420783d223135302220793d223136352220666f6e742d66616d696c60008201527f793d22417269616c2220666f6e742d73697a653d223732222066696c6c3d222360208201527f6335363866662220746578742d616e63686f723d226d6964646c652220646f6d60408201527f696e616e742d626173656c696e653d226d6964646c65223e6d3c2f746578743e606082015250565b6000614f2660808361447d565b9150614f3182614e7e565b608082019050919050565b7f3c7465787420783d2231302220793d223238302220666f6e742d66616d696c7960008201527f3d22417269616c2220666f6e742d73697a653d223136222066696c6c3d22626c60208201527f61636b223e000000000000000000000000000000000000000000000000000000604082015250565b6000614fbe60458361447d565b9150614fc982614f3c565b604582019050919050565b7f47616d6520526573756c743a2000000000000000000000000000000000000000600082015250565b600061500a600d8361447d565b915061501582614fd4565b600d82019050919050565b7f3c2f746578743e00000000000000000000000000000000000000000000000000600082015250565b600061505660078361447d565b915061506182615020565b600782019050919050565b7f3c7465787420783d2231302220793d223239352220666f6e742d66616d696c7960008201527f3d22417269616c2220666f6e742d73697a653d223136222066696c6c3d22626c60208201527f61636b223e000000000000000000000000000000000000000000000000000000604082015250565b60006150ee60458361447d565b91506150f98261506c565b604582019050919050565b7f546f6b656e2049443a2000000000000000000000000000000000000000000000600082015250565b600061513a600a8361447d565b915061514582615104565b600a82019050919050565b7f3c2f7376673e0000000000000000000000000000000000000000000000000000600082015250565b600061518660068361447d565b915061519182615150565b600682019050919050565b60006151a782614a0d565b91506151b282614acb565b91506151bd82614b3d565b91506151c882614baf565b91506151d382614c21565b91506151de82614c93565b91506151e982614d05565b91506151f482614d77565b91506151ff82614de9565b915061520a82614e5b565b915061521582614f19565b915061522082614fb1565b915061522b82614ffd565b915061523782856144d4565b915061524282615049565b915061524d826150e1565b91506152588261512d565b915061526482846144d4565b915061526f82615049565b915061527a82615179565b91508190509392505050565b7f646174613a696d6167652f7376672b786d6c3b6261736536342c000000000000600082015250565b60006152bc601a8361447d565b91506152c782615286565b601a82019050919050565b60006152dd826152af565b91506152e982846144d4565b915081905092915050565b7f4e487b7100000000000000000000000000000000000000000000000000000000600052601260045260246000fd5b600061532e8261320a565b91506153398361320a565b925082615349576153486152f4565b5b828206905092915050565b600061535f8261320a565b915061536a8361320a565b92508261537a576153796152f4565b5b828204905092915050565b60006153908261320a565b915061539b8361320a565b92508282026153a98161320a565b915082820484148315176153c0576153bf6143d2565b5b5092915050565b60008160011c9050919050565b6000808291508390505b600185111561541e578086048111156153fa576153f96143d2565b5b60018516156154095780820291505b8081029050615417856153c7565b94506153de565b94509492505050565b60008261543757600190506154f3565b8161544557600090506154f3565b816001811461545b576002811461546557615494565b60019150506154f3565b60ff841115615477576154766143d2565b5b8360020a91508482111561548e5761548d6143d2565b5b506154f3565b5060208310610133831016604e8410600b84101617156154c95782820a9050838111156154c4576154c36143d2565b5b6154f3565b6154d684848460016153d4565b925090508184048111156154ed576154ec6143d2565b5b81810290505b9392505050565b60006155058261320a565b91506155108361320a565b925061553d7fffffffffffffffffffffffffffffffffffffffffffffffffffffffffffffffff8484615427565b905092915050565b6000615550826134e0565b915061555b836134e0565b92508261556b5761556a6152f4565b5b828204905092915050565b6000615581826134e0565b915061558c836134e0565b925082820261559a816134e0565b91508082146155ac576155ab6143d2565b5b5092915050565b60006155be826134e0565b91506155c9836134e0565b9250828203905060ff8111156155e2576155e16143d2565b5b92915050565b60006040820190506155fd600083018561344a565b61560a6020830184613214565b9392505050565b600061561c826134e0565b9150615627836134e0565b9250828201905060ff8111156156405761563f6143d2565b5b9291505056fe4142434445464748494a4b4c4d4e4f505152535455565758595a6162636465666768696a6b6c6d6e6f707172737475767778797a303132333435363738392b2fa26469706673582212205e985996eca365fc022be3164e82630e12c50cc14d937242829ea507f8cc284a64736f6c63430008180033","opcodes":"PUSH1 0x80 PUSH1 0x40 MSTORE CALLVALUE DUP1 ISZERO PUSH3 0x11 JUMPI PUSH1 0x0 DUP1 REVERT JUMPDEST POP PUSH1 0x40 MLOAD DUP1 PUSH1 0x40 ADD PUSH1 0x40 MSTORE DUP1 PUSH1 0xA DUP2 MSTORE PUSH1 0x20 ADD PUSH32 0x4D61737465724D696E6400000000000000000000000000000000000000000000 DUP2 MSTORE POP PUSH1 0x40 MLOAD DUP1 PUSH1 0x40 ADD PUSH1 0x40 MSTORE DUP1 PUSH1 0x3 DUP2 MSTORE PUSH1 0x20 ADD PUSH32 0x4D534D0000000000000000000000000000000000000000000000000000000000 DUP2 MSTORE POP DUP2 PUSH1 0x0 SWAP1 DUP2 PUSH3 0x8F SWAP2 SWAP1 PUSH3 0x33F JUMP JUMPDEST POP DUP1 PUSH1 0x1 SWAP1 DUP2 PUSH3 0xA1 SWAP2 SWAP1 PUSH3 0x33F JUMP JUMPDEST POP POP POP PUSH1 0x0 PUSH1 0xC PUSH1 0x0 PUSH2 0x100 EXP DUP2 SLOAD DUP2 PUSH1 0xFF MUL NOT AND SWAP1 DUP4 ISZERO ISZERO MUL OR SWAP1 SSTORE POP PUSH3 0x426 JUMP JUMPDEST PUSH1 0x0 DUP2 MLOAD SWAP1 POP SWAP2 SWAP1 POP JUMP JUMPDEST PUSH32 0x4E487B7100000000000000000000000000000000000000000000000000000000 PUSH1 0x0 MSTORE PUSH1 0x41 PUSH1 0x4 MSTORE PUSH1 0x24 PUSH1 0x0 REVERT JUMPDEST PUSH32 0x4E487B7100000000000000000000000000000000000000000000000000000000 PUSH1 0x0 MSTORE PUSH1 0x22 PUSH1 0x4 MSTORE PUSH1 0x24 PUSH1 0x0 REVERT JUMPDEST PUSH1 0x0 PUSH1 0x2 DUP3 DIV SWAP1 POP PUSH1 0x1 DUP3 AND DUP1 PUSH3 0x147 JUMPI PUSH1 0x7F DUP3 AND SWAP2 POP JUMPDEST PUSH1 0x20 DUP3 LT DUP2 SUB PUSH3 0x15D JUMPI PUSH3 0x15C PUSH3 0xFF JUMP JUMPDEST JUMPDEST POP SWAP2 SWAP1 POP JUMP JUMPDEST PUSH1 0x0 DUP2 SWAP1 POP DUP2 PUSH1 0x0 MSTORE PUSH1 0x20 PUSH1 0x0 KECCAK256 SWAP1 POP SWAP2 SWAP1 POP JUMP JUMPDEST PUSH1 0x0 PUSH1 0x20 PUSH1 0x1F DUP4 ADD DIV SWAP1 POP SWAP2 SWAP1 POP JUMP JUMPDEST PUSH1 0x0 DUP3 DUP3 SHL SWAP1 POP SWAP3 SWAP2 POP POP JUMP JUMPDEST PUSH1 0x0 PUSH1 0x8 DUP4 MUL PUSH3 0x1C7 PUSH32 0xFFFFFFFFFFFFFFFFFFFFFFFFFFFFFFFFFFFFFFFFFFFFFFFFFFFFFFFFFFFFFFFF DUP3 PUSH3 0x188 JUMP JUMPDEST PUSH3 0x1D3 DUP7 DUP4 PUSH3 0x188 JUMP JUMPDEST SWAP6 POP DUP1 NOT DUP5 AND SWAP4 POP DUP1 DUP7 AND DUP5 OR SWAP3 POP POP POP SWAP4 SWAP3 POP POP POP JUMP JUMPDEST PUSH1 0x0 DUP2 SWAP1 POP SWAP2 SWAP1 POP JUMP JUMPDEST PUSH1 0x0 DUP2 SWAP1 POP SWAP2 SWAP1 POP JUMP JUMPDEST PUSH1 0x0 PUSH3 0x220 PUSH3 0x21A PUSH3 0x214 DUP5 PUSH3 0x1EB JUMP JUMPDEST PUSH3 0x1F5 JUMP JUMPDEST PUSH3 0x1EB JUMP JUMPDEST SWAP1 POP SWAP2 SWAP1 POP JUMP JUMPDEST PUSH1 0x0 DUP2 SWAP1 POP SWAP2 SWAP1 POP JUMP JUMPDEST PUSH3 0x23C DUP4 PUSH3 0x1FF JUMP JUMPDEST PUSH3 0x254 PUSH3 0x24B DUP3 PUSH3 0x227 JUMP JUMPDEST DUP5 DUP5 SLOAD PUSH3 0x195 JUMP JUMPDEST DUP3 SSTORE POP POP POP POP JUMP JUMPDEST PUSH1 0x0 SWAP1 JUMP JUMPDEST PUSH3 0x26B PUSH3 0x25C JUMP JUMPDEST PUSH3 0x278 DUP2 DUP5 DUP5 PUSH3 0x231 JUMP JUMPDEST POP POP POP JUMP JUMPDEST JUMPDEST DUP2 DUP2 LT ISZERO PUSH3 0x2A0 JUMPI PUSH3 0x294 PUSH1 0x0 DUP3 PUSH3 0x261 JUMP JUMPDEST PUSH1 0x1 DUP2 ADD SWAP1 POP PUSH3 0x27E JUMP JUMPDEST POP POP JUMP JUMPDEST PUSH1 0x1F DUP3 GT ISZERO PUSH3 0x2EF JUMPI PUSH3 0x2B9 DUP2 PUSH3 0x163 JUMP JUMPDEST PUSH3 0x2C4 DUP5 PUSH3 0x178 JUMP JUMPDEST DUP2 ADD PUSH1 0x20 DUP6 LT ISZERO PUSH3 0x2D4 JUMPI DUP2 SWAP1 POP JUMPDEST PUSH3 0x2EC PUSH3 0x2E3 DUP6 PUSH3 0x178 JUMP JUMPDEST DUP4 ADD DUP3 PUSH3 0x27D JUMP JUMPDEST POP POP JUMPDEST POP POP POP JUMP JUMPDEST PUSH1 0x0 DUP3 DUP3 SHR SWAP1 POP SWAP3 SWAP2 POP POP JUMP JUMPDEST PUSH1 0x0 PUSH3 0x314 PUSH1 0x0 NOT DUP5 PUSH1 0x8 MUL PUSH3 0x2F4 JUMP JUMPDEST NOT DUP1 DUP4 AND SWAP2 POP POP SWAP3 SWAP2 POP POP JUMP JUMPDEST PUSH1 0x0 PUSH3 0x32F DUP4 DUP4 PUSH3 0x301 JUMP JUMPDEST SWAP2 POP DUP3 PUSH1 0x2 MUL DUP3 OR SWAP1 POP SWAP3 SWAP2 POP POP JUMP JUMPDEST PUSH3 0x34A DUP3 PUSH3 0xC5 JUMP JUMPDEST PUSH8 0xFFFFFFFFFFFFFFFF DUP2 GT ISZERO PUSH3 0x366 JUMPI PUSH3 0x365 PUSH3 0xD0 JUMP JUMPDEST JUMPDEST PUSH3 0x372 DUP3 SLOAD PUSH3 0x12E JUMP JUMPDEST PUSH3 0x37F DUP3 DUP3 DUP6 PUSH3 0x2A4 JUMP JUMPDEST PUSH1 0x0 PUSH1 0x20 SWAP1 POP PUSH1 0x1F DUP4 GT PUSH1 0x1 DUP2 EQ PUSH3 0x3B7 JUMPI PUSH1 0x0 DUP5 ISZERO PUSH3 0x3A2 JUMPI DUP3 DUP8 ADD MLOAD SWAP1 POP JUMPDEST PUSH3 0x3AE DUP6 DUP3 PUSH3 0x321 JUMP JUMPDEST DUP7 SSTORE POP PUSH3 0x41E JUMP JUMPDEST PUSH1 0x1F NOT DUP5 AND PUSH3 0x3C7 DUP7 PUSH3 0x163 JUMP JUMPDEST PUSH1 0x0 JUMPDEST DUP3 DUP2 LT ISZERO PUSH3 0x3F1 JUMPI DUP5 DUP10 ADD MLOAD DUP3 SSTORE PUSH1 0x1 DUP3 ADD SWAP2 POP PUSH1 0x20 DUP6 ADD SWAP5 POP PUSH1 0x20 DUP2 ADD SWAP1 POP PUSH3 0x3CA JUMP JUMPDEST DUP7 DUP4 LT ISZERO PUSH3 0x411 JUMPI DUP5 DUP10 ADD MLOAD PUSH3 0x40D PUSH1 0x1F DUP10 AND DUP3 PUSH3 0x301 JUMP JUMPDEST DUP4 SSTORE POP JUMPDEST PUSH1 0x1 PUSH1 0x2 DUP9 MUL ADD DUP9 SSTORE POP POP POP JUMPDEST POP POP POP POP POP POP JUMP JUMPDEST PUSH2 0x56BC DUP1 PUSH3 0x436 PUSH1 0x0 CODECOPY PUSH1 0x0 RETURN INVALID PUSH1 0x80 PUSH1 0x40 MSTORE CALLVALUE DUP1 ISZERO PUSH2 0x10 JUMPI PUSH1 0x0 DUP1 REVERT JUMPDEST POP PUSH1 0x4 CALLDATASIZE LT PUSH2 0x1DA JUMPI PUSH1 0x0 CALLDATALOAD PUSH1 0xE0 SHR DUP1 PUSH4 0x797642DB GT PUSH2 0x104 JUMPI DUP1 PUSH4 0xB88D4FDE GT PUSH2 0xA2 JUMPI DUP1 PUSH4 0xDB1329D5 GT PUSH2 0x71 JUMPI DUP1 PUSH4 0xDB1329D5 EQ PUSH2 0x523 JUMPI DUP1 PUSH4 0xE985E9C5 EQ PUSH2 0x542 JUMPI DUP1 PUSH4 0xF020044F EQ PUSH2 0x572 JUMPI DUP1 PUSH4 0xF0D4E2DB EQ PUSH2 0x590 JUMPI PUSH2 0x1DA JUMP JUMPDEST DUP1 PUSH4 0xB88D4FDE EQ PUSH2 0x49B JUMPI DUP1 PUSH4 0xC0E361D2 EQ PUSH2 0x4B7 JUMPI DUP1 PUSH4 0xC68A9FE4 EQ PUSH2 0x4D5 JUMPI DUP1 PUSH4 0xC87B56DD EQ PUSH2 0x4F3 JUMPI PUSH2 0x1DA JUMP JUMPDEST DUP1 PUSH4 0x8E5CD8E9 GT PUSH2 0xDE JUMPI DUP1 PUSH4 0x8E5CD8E9 EQ PUSH2 0x43B JUMPI DUP1 PUSH4 0x95D89B41 EQ PUSH2 0x445 JUMPI DUP1 PUSH4 0xA22CB465 EQ PUSH2 0x463 JUMPI DUP1 PUSH4 0xA42DC7B7 EQ PUSH2 0x47F JUMPI PUSH2 0x1DA JUMP JUMPDEST DUP1 PUSH4 0x797642DB EQ PUSH2 0x3F5 JUMPI DUP1 PUSH4 0x801DB33D EQ PUSH2 0x413 JUMPI DUP1 PUSH4 0x84894606 EQ PUSH2 0x431 JUMPI PUSH2 0x1DA JUMP JUMPDEST DUP1 PUSH4 0x23B872DD GT PUSH2 0x17C JUMPI DUP1 PUSH4 0x50633FA7 GT PUSH2 0x14B JUMPI DUP1 PUSH4 0x50633FA7 EQ PUSH2 0x359 JUMPI DUP1 PUSH4 0x6352211E EQ PUSH2 0x377 JUMPI DUP1 PUSH4 0x70A08231 EQ PUSH2 0x3A7 JUMPI DUP1 PUSH4 0x722FED7E EQ PUSH2 0x3D7 JUMPI PUSH2 0x1DA JUMP JUMPDEST DUP1 PUSH4 0x23B872DD EQ PUSH2 0x2E7 JUMPI DUP1 PUSH4 0x276D2121 EQ PUSH2 0x303 JUMPI DUP1 PUSH4 0x29B817C8 EQ PUSH2 0x31F JUMPI DUP1 PUSH4 0x42842E0E EQ PUSH2 0x33D JUMPI PUSH2 0x1DA JUMP JUMPDEST DUP1 PUSH4 0x81812FC GT PUSH2 0x1B8 JUMPI DUP1 PUSH4 0x81812FC EQ PUSH2 0x24B JUMPI DUP1 PUSH4 0x95EA7B3 EQ PUSH2 0x27B JUMPI DUP1 PUSH4 0xE5C05F1 EQ PUSH2 0x297 JUMPI DUP1 PUSH4 0x1F491389 EQ PUSH2 0x2B5 JUMPI PUSH2 0x1DA JUMP JUMPDEST DUP1 PUSH4 0x11D7AB2 EQ PUSH2 0x1DF JUMPI DUP1 PUSH4 0x1FFC9A7 EQ PUSH2 0x1FD JUMPI DUP1 PUSH4 0x6FDDE03 EQ PUSH2 0x22D JUMPI JUMPDEST PUSH1 0x0 DUP1 REVERT JUMPDEST PUSH2 0x1E7 PUSH2 0x5AE JUMP JUMPDEST PUSH1 0x40 MLOAD PUSH2 0x1F4 SWAP2 SWAP1 PUSH2 0x3223 JUMP JUMPDEST PUSH1 0x40 MLOAD DUP1 SWAP2 SUB SWAP1 RETURN JUMPDEST PUSH2 0x217 PUSH1 0x4 DUP1 CALLDATASIZE SUB DUP2 ADD SWAP1 PUSH2 0x212 SWAP2 SWAP1 PUSH2 0x32AA JUMP JUMPDEST PUSH2 0x5B4 JUMP JUMPDEST PUSH1 0x40 MLOAD PUSH2 0x224 SWAP2 SWAP1 PUSH2 0x32F2 JUMP JUMPDEST PUSH1 0x40 MLOAD DUP1 SWAP2 SUB SWAP1 RETURN JUMPDEST PUSH2 0x235 PUSH2 0x696 JUMP JUMPDEST PUSH1 0x40 MLOAD PUSH2 0x242 SWAP2 SWAP1 PUSH2 0x339D JUMP JUMPDEST PUSH1 0x40 MLOAD DUP1 SWAP2 SUB SWAP1 RETURN JUMPDEST PUSH2 0x265 PUSH1 0x4 DUP1 CALLDATASIZE SUB DUP2 ADD SWAP1 PUSH2 0x260 SWAP2 SWAP1 PUSH2 0x33EB JUMP JUMPDEST PUSH2 0x728 JUMP JUMPDEST PUSH1 0x40 MLOAD PUSH2 0x272 SWAP2 SWAP1 PUSH2 0x3459 JUMP JUMPDEST PUSH1 0x40 MLOAD DUP1 SWAP2 SUB SWAP1 RETURN JUMPDEST PUSH2 0x295 PUSH1 0x4 DUP1 CALLDATASIZE SUB DUP2 ADD SWAP1 PUSH2 0x290 SWAP2 SWAP1 PUSH2 0x34A0 JUMP JUMPDEST PUSH2 0x744 JUMP JUMPDEST STOP JUMPDEST PUSH2 0x29F PUSH2 0x75A JUMP JUMPDEST PUSH1 0x40 MLOAD PUSH2 0x2AC SWAP2 SWAP1 PUSH2 0x3459 JUMP JUMPDEST PUSH1 0x40 MLOAD DUP1 SWAP2 SUB SWAP1 RETURN JUMPDEST PUSH2 0x2CF PUSH1 0x4 DUP1 CALLDATASIZE SUB DUP2 ADD SWAP1 PUSH2 0x2CA SWAP2 SWAP1 PUSH2 0x33EB JUMP JUMPDEST PUSH2 0x780 JUMP JUMPDEST PUSH1 0x40 MLOAD PUSH2 0x2DE SWAP4 SWAP3 SWAP2 SWAP1 PUSH2 0x34FC JUMP JUMPDEST PUSH1 0x40 MLOAD DUP1 SWAP2 SUB SWAP1 RETURN JUMPDEST PUSH2 0x301 PUSH1 0x4 DUP1 CALLDATASIZE SUB DUP2 ADD SWAP1 PUSH2 0x2FC SWAP2 SWAP1 PUSH2 0x3533 JUMP JUMPDEST PUSH2 0x7E1 JUMP JUMPDEST STOP JUMPDEST PUSH2 0x31D PUSH1 0x4 DUP1 CALLDATASIZE SUB DUP2 ADD SWAP1 PUSH2 0x318 SWAP2 SWAP1 PUSH2 0x36FA JUMP JUMPDEST PUSH2 0x8E3 JUMP JUMPDEST STOP JUMPDEST PUSH2 0x327 PUSH2 0xCD3 JUMP JUMPDEST PUSH1 0x40 MLOAD PUSH2 0x334 SWAP2 SWAP1 PUSH2 0x3223 JUMP JUMPDEST PUSH1 0x40 MLOAD DUP1 SWAP2 SUB SWAP1 RETURN JUMPDEST PUSH2 0x357 PUSH1 0x4 DUP1 CALLDATASIZE SUB DUP2 ADD SWAP1 PUSH2 0x352 SWAP2 SWAP1 PUSH2 0x3533 JUMP JUMPDEST PUSH2 0xCDD JUMP JUMPDEST STOP JUMPDEST PUSH2 0x361 PUSH2 0xCFD JUMP JUMPDEST PUSH1 0x40 MLOAD PUSH2 0x36E SWAP2 SWAP1 PUSH2 0x3459 JUMP JUMPDEST PUSH1 0x40 MLOAD DUP1 SWAP2 SUB SWAP1 RETURN JUMPDEST PUSH2 0x391 PUSH1 0x4 DUP1 CALLDATASIZE SUB DUP2 ADD SWAP1 PUSH2 0x38C SWAP2 SWAP1 PUSH2 0x33EB JUMP JUMPDEST PUSH2 0xD23 JUMP JUMPDEST PUSH1 0x40 MLOAD PUSH2 0x39E SWAP2 SWAP1 PUSH2 0x3459 JUMP JUMPDEST PUSH1 0x40 MLOAD DUP1 SWAP2 SUB SWAP1 RETURN JUMPDEST PUSH2 0x3C1 PUSH1 0x4 DUP1 CALLDATASIZE SUB DUP2 ADD SWAP1 PUSH2 0x3BC SWAP2 SWAP1 PUSH2 0x3743 JUMP JUMPDEST PUSH2 0xD35 JUMP JUMPDEST PUSH1 0x40 MLOAD PUSH2 0x3CE SWAP2 SWAP1 PUSH2 0x3223 JUMP JUMPDEST PUSH1 0x40 MLOAD DUP1 SWAP2 SUB SWAP1 RETURN JUMPDEST PUSH2 0x3DF PUSH2 0xDEF JUMP JUMPDEST PUSH1 0x40 MLOAD PUSH2 0x3EC SWAP2 SWAP1 PUSH2 0x37E7 JUMP JUMPDEST PUSH1 0x40 MLOAD DUP1 SWAP2 SUB SWAP1 RETURN JUMPDEST PUSH2 0x3FD PUSH2 0xE02 JUMP JUMPDEST PUSH1 0x40 MLOAD PUSH2 0x40A SWAP2 SWAP1 PUSH2 0x39F4 JUMP JUMPDEST PUSH1 0x40 MLOAD DUP1 SWAP2 SUB SWAP1 RETURN JUMPDEST PUSH2 0x41B PUSH2 0xF34 JUMP JUMPDEST PUSH1 0x40 MLOAD PUSH2 0x428 SWAP2 SWAP1 PUSH2 0x3223 JUMP JUMPDEST PUSH1 0x40 MLOAD DUP1 SWAP2 SUB SWAP1 RETURN JUMPDEST PUSH2 0x439 PUSH2 0xF3E JUMP JUMPDEST STOP JUMPDEST PUSH2 0x443 PUSH2 0x1041 JUMP JUMPDEST STOP JUMPDEST PUSH2 0x44D PUSH2 0x1144 JUMP JUMPDEST PUSH1 0x40 MLOAD PUSH2 0x45A SWAP2 SWAP1 PUSH2 0x339D JUMP JUMPDEST PUSH1 0x40 MLOAD DUP1 SWAP2 SUB SWAP1 RETURN JUMPDEST PUSH2 0x47D PUSH1 0x4 DUP1 CALLDATASIZE SUB DUP2 ADD SWAP1 PUSH2 0x478 SWAP2 SWAP1 PUSH2 0x3A42 JUMP JUMPDEST PUSH2 0x11D6 JUMP JUMPDEST STOP JUMPDEST PUSH2 0x499 PUSH1 0x4 DUP1 CALLDATASIZE SUB DUP2 ADD SWAP1 PUSH2 0x494 SWAP2 SWAP1 PUSH2 0x36FA JUMP JUMPDEST PUSH2 0x11EC JUMP JUMPDEST STOP JUMPDEST PUSH2 0x4B5 PUSH1 0x4 DUP1 CALLDATASIZE SUB DUP2 ADD SWAP1 PUSH2 0x4B0 SWAP2 SWAP1 PUSH2 0x3B37 JUMP JUMPDEST PUSH2 0x1836 JUMP JUMPDEST STOP JUMPDEST PUSH2 0x4BF PUSH2 0x1853 JUMP JUMPDEST PUSH1 0x40 MLOAD PUSH2 0x4CC SWAP2 SWAP1 PUSH2 0x3223 JUMP JUMPDEST PUSH1 0x40 MLOAD DUP1 SWAP2 SUB SWAP1 RETURN JUMPDEST PUSH2 0x4DD PUSH2 0x1859 JUMP JUMPDEST PUSH1 0x40 MLOAD PUSH2 0x4EA SWAP2 SWAP1 PUSH2 0x3223 JUMP JUMPDEST PUSH1 0x40 MLOAD DUP1 SWAP2 SUB SWAP1 RETURN JUMPDEST PUSH2 0x50D PUSH1 0x4 DUP1 CALLDATASIZE SUB DUP2 ADD SWAP1 PUSH2 0x508 SWAP2 SWAP1 PUSH2 0x33EB JUMP JUMPDEST PUSH2 0x185F JUMP JUMPDEST PUSH1 0x40 MLOAD PUSH2 0x51A SWAP2 SWAP1 PUSH2 0x339D JUMP JUMPDEST PUSH1 0x40 MLOAD DUP1 SWAP2 SUB SWAP1 RETURN JUMPDEST PUSH2 0x52B PUSH2 0x19A3 JUMP JUMPDEST PUSH1 0x40 MLOAD PUSH2 0x539 SWAP3 SWAP2 SWAP1 PUSH2 0x3BBA JUMP JUMPDEST PUSH1 0x40 MLOAD DUP1 SWAP2 SUB SWAP1 RETURN JUMPDEST PUSH2 0x55C PUSH1 0x4 DUP1 CALLDATASIZE SUB DUP2 ADD SWAP1 PUSH2 0x557 SWAP2 SWAP1 PUSH2 0x3BE3 JUMP JUMPDEST PUSH2 0x1B16 JUMP JUMPDEST PUSH1 0x40 MLOAD PUSH2 0x569 SWAP2 SWAP1 PUSH2 0x32F2 JUMP JUMPDEST PUSH1 0x40 MLOAD DUP1 SWAP2 SUB SWAP1 RETURN JUMPDEST PUSH2 0x57A PUSH2 0x1BAA JUMP JUMPDEST PUSH1 0x40 MLOAD PUSH2 0x587 SWAP2 SWAP1 PUSH2 0x32F2 JUMP JUMPDEST PUSH1 0x40 MLOAD DUP1 SWAP2 SUB SWAP1 RETURN JUMPDEST PUSH2 0x598 PUSH2 0x1BBD JUMP JUMPDEST PUSH1 0x40 MLOAD PUSH2 0x5A5 SWAP2 SWAP1 PUSH2 0x3CE5 JUMP JUMPDEST PUSH1 0x40 MLOAD DUP1 SWAP2 SUB SWAP1 RETURN JUMPDEST PUSH1 0xF SLOAD DUP2 JUMP JUMPDEST PUSH1 0x0 PUSH32 0x80AC58CD00000000000000000000000000000000000000000000000000000000 PUSH28 0xFFFFFFFFFFFFFFFFFFFFFFFFFFFFFFFFFFFFFFFFFFFFFFFFFFFFFFFF NOT AND DUP3 PUSH28 0xFFFFFFFFFFFFFFFFFFFFFFFFFFFFFFFFFFFFFFFFFFFFFFFFFFFFFFFF NOT AND EQ DUP1 PUSH2 0x67F JUMPI POP PUSH32 0x5B5E139F00000000000000000000000000000000000000000000000000000000 PUSH28 0xFFFFFFFFFFFFFFFFFFFFFFFFFFFFFFFFFFFFFFFFFFFFFFFFFFFFFFFF NOT AND DUP3 PUSH28 0xFFFFFFFFFFFFFFFFFFFFFFFFFFFFFFFFFFFFFFFFFFFFFFFFFFFFFFFF NOT AND EQ JUMPDEST DUP1 PUSH2 0x68F JUMPI POP PUSH2 0x68E DUP3 PUSH2 0x1CF3 JUMP JUMPDEST JUMPDEST SWAP1 POP SWAP2 SWAP1 POP JUMP JUMPDEST PUSH1 0x60 PUSH1 0x0 DUP1 SLOAD PUSH2 0x6A5 SWAP1 PUSH2 0x3D36 JUMP JUMPDEST DUP1 PUSH1 0x1F ADD PUSH1 0x20 DUP1 SWAP2 DIV MUL PUSH1 0x20 ADD PUSH1 0x40 MLOAD SWAP1 DUP2 ADD PUSH1 0x40 MSTORE DUP1 SWAP3 SWAP2 SWAP1 DUP2 DUP2 MSTORE PUSH1 0x20 ADD DUP3 DUP1 SLOAD PUSH2 0x6D1 SWAP1 PUSH2 0x3D36 JUMP JUMPDEST DUP1 ISZERO PUSH2 0x71E JUMPI DUP1 PUSH1 0x1F LT PUSH2 0x6F3 JUMPI PUSH2 0x100 DUP1 DUP4 SLOAD DIV MUL DUP4 MSTORE SWAP2 PUSH1 0x20 ADD SWAP2 PUSH2 0x71E JUMP JUMPDEST DUP3 ADD SWAP2 SWAP1 PUSH1 0x0 MSTORE PUSH1 0x20 PUSH1 0x0 KECCAK256 SWAP1 JUMPDEST DUP2 SLOAD DUP2 MSTORE SWAP1 PUSH1 0x1 ADD SWAP1 PUSH1 0x20 ADD DUP1 DUP4 GT PUSH2 0x701 JUMPI DUP3 SWAP1 SUB PUSH1 0x1F AND DUP3 ADD SWAP2 JUMPDEST POP POP POP POP POP SWAP1 POP SWAP1 JUMP JUMPDEST PUSH1 0x0 PUSH2 0x733 DUP3 PUSH2 0x1D5D JUMP JUMPDEST POP PUSH2 0x73D DUP3 PUSH2 0x1DE5 JUMP JUMPDEST SWAP1 POP SWAP2 SWAP1 POP JUMP JUMPDEST PUSH2 0x756 DUP3 DUP3 PUSH2 0x751 PUSH2 0x1E22 JUMP JUMPDEST PUSH2 0x1E2A JUMP JUMPDEST POP POP JUMP JUMPDEST PUSH1 0x8 PUSH1 0x0 SWAP1 SLOAD SWAP1 PUSH2 0x100 EXP SWAP1 DIV PUSH20 0xFFFFFFFFFFFFFFFFFFFFFFFFFFFFFFFFFFFFFFFF AND DUP2 JUMP JUMPDEST PUSH1 0xD DUP2 DUP2 SLOAD DUP2 LT PUSH2 0x790 JUMPI PUSH1 0x0 DUP1 REVERT JUMPDEST SWAP1 PUSH1 0x0 MSTORE PUSH1 0x20 PUSH1 0x0 KECCAK256 SWAP1 PUSH1 0x2 MUL ADD PUSH1 0x0 SWAP2 POP SWAP1 POP DUP1 PUSH1 0x1 ADD PUSH1 0x0 SWAP1 SLOAD SWAP1 PUSH2 0x100 EXP SWAP1 DIV PUSH1 0xFF AND SWAP1 DUP1 PUSH1 0x1 ADD PUSH1 0x1 SWAP1 SLOAD SWAP1 PUSH2 0x100 EXP SWAP1 DIV PUSH1 0xFF AND SWAP1 DUP1 PUSH1 0x1 ADD PUSH1 0x2 SWAP1 SLOAD SWAP1 PUSH2 0x100 EXP SWAP1 DIV PUSH1 0xFF AND SWAP1 POP DUP4 JUMP JUMPDEST PUSH1 0x0 PUSH20 0xFFFFFFFFFFFFFFFFFFFFFFFFFFFFFFFFFFFFFFFF AND DUP3 PUSH20 0xFFFFFFFFFFFFFFFFFFFFFFFFFFFFFFFFFFFFFFFF AND SUB PUSH2 0x853 JUMPI PUSH1 0x0 PUSH1 0x40 MLOAD PUSH32 0x64A0AE9200000000000000000000000000000000000000000000000000000000 DUP2 MSTORE PUSH1 0x4 ADD PUSH2 0x84A SWAP2 SWAP1 PUSH2 0x3459 JUMP JUMPDEST PUSH1 0x40 MLOAD DUP1 SWAP2 SUB SWAP1 REVERT JUMPDEST PUSH1 0x0 PUSH2 0x867 DUP4 DUP4 PUSH2 0x862 PUSH2 0x1E22 JUMP JUMPDEST PUSH2 0x1E3C JUMP JUMPDEST SWAP1 POP DUP4 PUSH20 0xFFFFFFFFFFFFFFFFFFFFFFFFFFFFFFFFFFFFFFFF AND DUP2 PUSH20 0xFFFFFFFFFFFFFFFFFFFFFFFFFFFFFFFFFFFFFFFF AND EQ PUSH2 0x8DD JUMPI DUP4 DUP3 DUP3 PUSH1 0x40 MLOAD PUSH32 0x64283D7B00000000000000000000000000000000000000000000000000000000 DUP2 MSTORE PUSH1 0x4 ADD PUSH2 0x8D4 SWAP4 SWAP3 SWAP2 SWAP1 PUSH2 0x3D67 JUMP JUMPDEST PUSH1 0x40 MLOAD DUP1 SWAP2 SUB SWAP1 REVERT JUMPDEST POP POP POP POP JUMP JUMPDEST PUSH1 0x7 PUSH1 0x0 SWAP1 SLOAD SWAP1 PUSH2 0x100 EXP SWAP1 DIV PUSH20 0xFFFFFFFFFFFFFFFFFFFFFFFFFFFFFFFFFFFFFFFF AND PUSH20 0xFFFFFFFFFFFFFFFFFFFFFFFFFFFFFFFFFFFFFFFF AND CALLER PUSH20 0xFFFFFFFFFFFFFFFFFFFFFFFFFFFFFFFFFFFFFFFF AND EQ PUSH2 0x973 JUMPI PUSH1 0x40 MLOAD PUSH32 0x8C379A000000000000000000000000000000000000000000000000000000000 DUP2 MSTORE PUSH1 0x4 ADD PUSH2 0x96A SWAP1 PUSH2 0x3E10 JUMP JUMPDEST PUSH1 0x40 MLOAD DUP1 SWAP2 SUB SWAP1 REVERT JUMPDEST PUSH1 0x0 PUSH20 0xFFFFFFFFFFFFFFFFFFFFFFFFFFFFFFFFFFFFFFFF AND PUSH1 0x7 PUSH1 0x0 SWAP1 SLOAD SWAP1 PUSH2 0x100 EXP SWAP1 DIV PUSH20 0xFFFFFFFFFFFFFFFFFFFFFFFFFFFFFFFFFFFFFFFF AND PUSH20 0xFFFFFFFFFFFFFFFFFFFFFFFFFFFFFFFFFFFFFFFF AND SUB PUSH2 0xA04 JUMPI PUSH1 0x40 MLOAD PUSH32 0x8C379A000000000000000000000000000000000000000000000000000000000 DUP2 MSTORE PUSH1 0x4 ADD PUSH2 0x9FB SWAP1 PUSH2 0x3E7C JUMP JUMPDEST PUSH1 0x40 MLOAD DUP1 SWAP2 SUB SWAP1 REVERT JUMPDEST PUSH1 0x0 PUSH20 0xFFFFFFFFFFFFFFFFFFFFFFFFFFFFFFFFFFFFFFFF AND PUSH1 0x8 PUSH1 0x0 SWAP1 SLOAD SWAP1 PUSH2 0x100 EXP SWAP1 DIV PUSH20 0xFFFFFFFFFFFFFFFFFFFFFFFFFFFFFFFFFFFFFFFF AND PUSH20 0xFFFFFFFFFFFFFFFFFFFFFFFFFFFFFFFFFFFFFFFF AND SUB PUSH2 0xA95 JUMPI PUSH1 0x40 MLOAD PUSH32 0x8C379A000000000000000000000000000000000000000000000000000000000 DUP2 MSTORE PUSH1 0x4 ADD PUSH2 0xA8C SWAP1 PUSH2 0x3EE8 JUMP JUMPDEST PUSH1 0x40 MLOAD DUP1 SWAP2 SUB SWAP1 REVERT JUMPDEST PUSH1 0x4 PUSH1 0xFF AND DUP2 MLOAD EQ PUSH2 0xADC JUMPI PUSH1 0x40 MLOAD PUSH32 0x8C379A000000000000000000000000000000000000000000000000000000000 DUP2 MSTORE PUSH1 0x4 ADD PUSH2 0xAD3 SWAP1 PUSH2 0x3F7A JUMP JUMPDEST PUSH1 0x40 MLOAD DUP1 SWAP2 SUB SWAP1 REVERT JUMPDEST PUSH1 0x1 ISZERO ISZERO PUSH1 0xC PUSH1 0x0 SWAP1 SLOAD SWAP1 PUSH2 0x100 EXP SWAP1 DIV PUSH1 0xFF AND ISZERO ISZERO SUB PUSH2 0xB29 JUMPI PUSH1 0x40 MLOAD PUSH32 0xBCEFC32900000000000000000000000000000000000000000000000000000000 DUP2 MSTORE PUSH1 0x4 ADD PUSH1 0x40 MLOAD DUP1 SWAP2 SUB SWAP1 REVERT JUMPDEST DUP1 PUSH1 0xA SWAP1 DUP1 MLOAD SWAP1 PUSH1 0x20 ADD SWAP1 PUSH2 0xB3F SWAP3 SWAP2 SWAP1 PUSH2 0x3075 JUMP JUMPDEST POP DUP1 PUSH1 0x40 MLOAD PUSH1 0x20 ADD PUSH2 0xB51 SWAP2 SWAP1 PUSH2 0x402A JUMP JUMPDEST PUSH1 0x40 MLOAD PUSH1 0x20 DUP2 DUP4 SUB SUB DUP2 MSTORE SWAP1 PUSH1 0x40 MSTORE DUP1 MLOAD SWAP1 PUSH1 0x20 ADD KECCAK256 PUSH1 0x9 DUP2 SWAP1 SSTORE POP PUSH1 0x0 PUSH1 0xB DUP2 SWAP1 SSTORE POP PUSH1 0xD PUSH1 0x0 PUSH2 0xB83 SWAP2 SWAP1 PUSH2 0x311C JUMP JUMPDEST PUSH1 0x1 PUSH1 0xC PUSH1 0x0 PUSH2 0x100 EXP DUP2 SLOAD DUP2 PUSH1 0xFF MUL NOT AND SWAP1 DUP4 ISZERO ISZERO MUL OR SWAP1 SSTORE POP PUSH1 0x0 PUSH1 0xC PUSH1 0x1 PUSH2 0x100 EXP DUP2 SLOAD DUP2 PUSH1 0xFF MUL NOT AND SWAP1 DUP4 PUSH1 0x2 DUP2 GT ISZERO PUSH2 0xBC4 JUMPI PUSH2 0xBC3 PUSH2 0x3770 JUMP JUMPDEST JUMPDEST MUL OR SWAP1 SSTORE POP PUSH1 0x0 PUSH1 0xE DUP2 SWAP1 SSTORE POP PUSH1 0x0 PUSH1 0xF DUP2 SWAP1 SSTORE POP PUSH1 0x7 PUSH1 0x0 SWAP1 SLOAD SWAP1 PUSH2 0x100 EXP SWAP1 DIV PUSH20 0xFFFFFFFFFFFFFFFFFFFFFFFFFFFFFFFFFFFFFFFF AND PUSH20 0xFFFFFFFFFFFFFFFFFFFFFFFFFFFFFFFFFFFFFFFF AND PUSH32 0xEA32A03505FD9F04D664676D72295A86C5FB0465E69654751907CA305BC1D1C7 TIMESTAMP PUSH1 0x40 MLOAD PUSH2 0xC41 SWAP2 SWAP1 PUSH2 0x3223 JUMP JUMPDEST PUSH1 0x40 MLOAD DUP1 SWAP2 SUB SWAP1 LOG2 PUSH32 0xAFCF3201AA5A8B6350CD7E42802F62089C82CF3E88F4EF6D7A1CABD94763D8D9 PUSH1 0xC PUSH1 0x1 SWAP1 SLOAD SWAP1 PUSH2 0x100 EXP SWAP1 DIV PUSH1 0xFF AND TIMESTAMP PUSH1 0x40 MLOAD PUSH2 0xC89 SWAP3 SWAP2 SWAP1 PUSH2 0x4041 JUMP JUMPDEST PUSH1 0x40 MLOAD DUP1 SWAP2 SUB SWAP1 LOG1 PUSH32 0xB2383E82269E758B9EC0FC961AC69CECC166570A12068C11B3F9CF29C8DE9E88 PUSH1 0xE SLOAD PUSH1 0xF SLOAD TIMESTAMP PUSH1 0x40 MLOAD PUSH2 0xCC8 SWAP4 SWAP3 SWAP2 SWAP1 PUSH2 0x406A JUMP JUMPDEST PUSH1 0x40 MLOAD DUP1 SWAP2 SUB SWAP1 LOG1 POP JUMP JUMPDEST PUSH1 0x0 PUSH1 0xF SLOAD SWAP1 POP SWAP1 JUMP JUMPDEST PUSH2 0xCF8 DUP4 DUP4 DUP4 PUSH1 0x40 MLOAD DUP1 PUSH1 0x20 ADD PUSH1 0x40 MSTORE DUP1 PUSH1 0x0 DUP2 MSTORE POP PUSH2 0x1836 JUMP JUMPDEST POP POP POP JUMP JUMPDEST PUSH1 0x7 PUSH1 0x0 SWAP1 SLOAD SWAP1 PUSH2 0x100 EXP SWAP1 DIV PUSH20 0xFFFFFFFFFFFFFFFFFFFFFFFFFFFFFFFFFFFFFFFF AND DUP2 JUMP JUMPDEST PUSH1 0x0 PUSH2 0xD2E DUP3 PUSH2 0x1D5D JUMP JUMPDEST SWAP1 POP SWAP2 SWAP1 POP JUMP JUMPDEST PUSH1 0x0 DUP1 PUSH20 0xFFFFFFFFFFFFFFFFFFFFFFFFFFFFFFFFFFFFFFFF AND DUP3 PUSH20 0xFFFFFFFFFFFFFFFFFFFFFFFFFFFFFFFFFFFFFFFF AND SUB PUSH2 0xDA8 JUMPI PUSH1 0x0 PUSH1 0x40 MLOAD PUSH32 0x89C62B6400000000000000000000000000000000000000000000000000000000 DUP2 MSTORE PUSH1 0x4 ADD PUSH2 0xD9F SWAP2 SWAP1 PUSH2 0x3459 JUMP JUMPDEST PUSH1 0x40 MLOAD DUP1 SWAP2 SUB SWAP1 REVERT JUMPDEST PUSH1 0x3 PUSH1 0x0 DUP4 PUSH20 0xFFFFFFFFFFFFFFFFFFFFFFFFFFFFFFFFFFFFFFFF AND PUSH20 0xFFFFFFFFFFFFFFFFFFFFFFFFFFFFFFFFFFFFFFFF AND DUP2 MSTORE PUSH1 0x20 ADD SWAP1 DUP2 MSTORE PUSH1 0x20 ADD PUSH1 0x0 KECCAK256 SLOAD SWAP1 POP SWAP2 SWAP1 POP JUMP JUMPDEST PUSH1 0xC PUSH1 0x1 SWAP1 SLOAD SWAP1 PUSH2 0x100 EXP SWAP1 DIV PUSH1 0xFF AND DUP2 JUMP JUMPDEST PUSH1 0x60 PUSH1 0xD DUP1 SLOAD DUP1 PUSH1 0x20 MUL PUSH1 0x20 ADD PUSH1 0x40 MLOAD SWAP1 DUP2 ADD PUSH1 0x40 MSTORE DUP1 SWAP3 SWAP2 SWAP1 DUP2 DUP2 MSTORE PUSH1 0x20 ADD PUSH1 0x0 SWAP1 JUMPDEST DUP3 DUP3 LT ISZERO PUSH2 0xF2B JUMPI DUP4 DUP3 SWAP1 PUSH1 0x0 MSTORE PUSH1 0x20 PUSH1 0x0 KECCAK256 SWAP1 PUSH1 0x2 MUL ADD PUSH1 0x40 MLOAD DUP1 PUSH1 0x80 ADD PUSH1 0x40 MSTORE SWAP1 DUP2 PUSH1 0x0 DUP3 ADD DUP1 SLOAD DUP1 PUSH1 0x20 MUL PUSH1 0x20 ADD PUSH1 0x40 MLOAD SWAP1 DUP2 ADD PUSH1 0x40 MSTORE DUP1 SWAP3 SWAP2 SWAP1 DUP2 DUP2 MSTORE PUSH1 0x20 ADD DUP3 DUP1 SLOAD DUP1 ISZERO PUSH2 0xEBE JUMPI PUSH1 0x20 MUL DUP3 ADD SWAP2 SWAP1 PUSH1 0x0 MSTORE PUSH1 0x20 PUSH1 0x0 KECCAK256 SWAP1 PUSH1 0x0 SWAP1 JUMPDEST DUP3 DUP3 SWAP1 SLOAD SWAP1 PUSH2 0x100 EXP SWAP1 DIV PUSH1 0xFF AND PUSH1 0xFF AND DUP2 MSTORE PUSH1 0x20 ADD SWAP1 PUSH1 0x1 ADD SWAP1 PUSH1 0x20 DUP3 PUSH1 0x0 ADD DIV SWAP3 DUP4 ADD SWAP3 PUSH1 0x1 SUB DUP3 MUL SWAP2 POP DUP1 DUP5 GT PUSH2 0xE87 JUMPI SWAP1 POP JUMPDEST POP POP POP POP POP DUP2 MSTORE PUSH1 0x20 ADD PUSH1 0x1 DUP3 ADD PUSH1 0x0 SWAP1 SLOAD SWAP1 PUSH2 0x100 EXP SWAP1 DIV PUSH1 0xFF AND PUSH1 0xFF AND PUSH1 0xFF AND DUP2 MSTORE PUSH1 0x20 ADD PUSH1 0x1 DUP3 ADD PUSH1 0x1 SWAP1 SLOAD SWAP1 PUSH2 0x100 EXP SWAP1 DIV PUSH1 0xFF AND PUSH1 0xFF AND PUSH1 0xFF AND DUP2 MSTORE PUSH1 0x20 ADD PUSH1 0x1 DUP3 ADD PUSH1 0x2 SWAP1 SLOAD SWAP1 PUSH2 0x100 EXP SWAP1 DIV PUSH1 0xFF AND ISZERO ISZERO ISZERO ISZERO DUP2 MSTORE POP POP DUP2 MSTORE PUSH1 0x20 ADD SWAP1 PUSH1 0x1 ADD SWAP1 PUSH2 0xE26 JUMP JUMPDEST POP POP POP POP SWAP1 POP SWAP1 JUMP JUMPDEST PUSH1 0x0 PUSH1 0xE SLOAD SWAP1 POP SWAP1 JUMP JUMPDEST PUSH1 0xC PUSH1 0x0 SWAP1 SLOAD SWAP1 PUSH2 0x100 EXP SWAP1 DIV PUSH1 0xFF AND ISZERO PUSH2 0xF8E JUMPI PUSH1 0x40 MLOAD PUSH32 0x8C379A000000000000000000000000000000000000000000000000000000000 DUP2 MSTORE PUSH1 0x4 ADD PUSH2 0xF85 SWAP1 PUSH2 0x40ED JUMP JUMPDEST PUSH1 0x40 MLOAD DUP1 SWAP2 SUB SWAP1 REVERT JUMPDEST CALLER PUSH1 0x8 PUSH1 0x0 PUSH2 0x100 EXP DUP2 SLOAD DUP2 PUSH20 0xFFFFFFFFFFFFFFFFFFFFFFFFFFFFFFFFFFFFFFFF MUL NOT AND SWAP1 DUP4 PUSH20 0xFFFFFFFFFFFFFFFFFFFFFFFFFFFFFFFFFFFFFFFF AND MUL OR SWAP1 SSTORE POP PUSH1 0x8 PUSH1 0x0 SWAP1 SLOAD SWAP1 PUSH2 0x100 EXP SWAP1 DIV PUSH20 0xFFFFFFFFFFFFFFFFFFFFFFFFFFFFFFFFFFFFFFFF AND PUSH20 0xFFFFFFFFFFFFFFFFFFFFFFFFFFFFFFFFFFFFFFFF AND PUSH32 0xE030CCA42591FDC0FE1E7A7CC3892F5F6D13AAA3AEBCAFA2563C78DF1B9DE251 TIMESTAMP PUSH1 0x40 MLOAD PUSH2 0x1037 SWAP2 SWAP1 PUSH2 0x3223 JUMP JUMPDEST PUSH1 0x40 MLOAD DUP1 SWAP2 SUB SWAP1 LOG2 JUMP JUMPDEST PUSH1 0xC PUSH1 0x0 SWAP1 SLOAD SWAP1 PUSH2 0x100 EXP SWAP1 DIV PUSH1 0xFF AND ISZERO PUSH2 0x1091 JUMPI PUSH1 0x40 MLOAD PUSH32 0x8C379A000000000000000000000000000000000000000000000000000000000 DUP2 MSTORE PUSH1 0x4 ADD PUSH2 0x1088 SWAP1 PUSH2 0x40ED JUMP JUMPDEST PUSH1 0x40 MLOAD DUP1 SWAP2 SUB SWAP1 REVERT JUMPDEST CALLER PUSH1 0x7 PUSH1 0x0 PUSH2 0x100 EXP DUP2 SLOAD DUP2 PUSH20 0xFFFFFFFFFFFFFFFFFFFFFFFFFFFFFFFFFFFFFFFF MUL NOT AND SWAP1 DUP4 PUSH20 0xFFFFFFFFFFFFFFFFFFFFFFFFFFFFFFFFFFFFFFFF AND MUL OR SWAP1 SSTORE POP PUSH1 0x7 PUSH1 0x0 SWAP1 SLOAD SWAP1 PUSH2 0x100 EXP SWAP1 DIV PUSH20 0xFFFFFFFFFFFFFFFFFFFFFFFFFFFFFFFFFFFFFFFF AND PUSH20 0xFFFFFFFFFFFFFFFFFFFFFFFFFFFFFFFFFFFFFFFF AND PUSH32 0x65BD3084C68C3B9E4A26F0857A1C9A69285E55DED79629480351F98856F096A2 TIMESTAMP PUSH1 0x40 MLOAD PUSH2 0x113A SWAP2 SWAP1 PUSH2 0x3223 JUMP JUMPDEST PUSH1 0x40 MLOAD DUP1 SWAP2 SUB SWAP1 LOG2 JUMP JUMPDEST PUSH1 0x60 PUSH1 0x1 DUP1 SLOAD PUSH2 0x1153 SWAP1 PUSH2 0x3D36 JUMP JUMPDEST DUP1 PUSH1 0x1F ADD PUSH1 0x20 DUP1 SWAP2 DIV MUL PUSH1 0x20 ADD PUSH1 0x40 MLOAD SWAP1 DUP2 ADD PUSH1 0x40 MSTORE DUP1 SWAP3 SWAP2 SWAP1 DUP2 DUP2 MSTORE PUSH1 0x20 ADD DUP3 DUP1 SLOAD PUSH2 0x117F SWAP1 PUSH2 0x3D36 JUMP JUMPDEST DUP1 ISZERO PUSH2 0x11CC JUMPI DUP1 PUSH1 0x1F LT PUSH2 0x11A1 JUMPI PUSH2 0x100 DUP1 DUP4 SLOAD DIV MUL DUP4 MSTORE SWAP2 PUSH1 0x20 ADD SWAP2 PUSH2 0x11CC JUMP JUMPDEST DUP3 ADD SWAP2 SWAP1 PUSH1 0x0 MSTORE PUSH1 0x20 PUSH1 0x0 KECCAK256 SWAP1 JUMPDEST DUP2 SLOAD DUP2 MSTORE SWAP1 PUSH1 0x1 ADD SWAP1 PUSH1 0x20 ADD DUP1 DUP4 GT PUSH2 0x11AF JUMPI DUP3 SWAP1 SUB PUSH1 0x1F AND DUP3 ADD SWAP2 JUMPDEST POP POP POP POP POP SWAP1 POP SWAP1 JUMP JUMPDEST PUSH2 0x11E8 PUSH2 0x11E1 PUSH2 0x1E22 JUMP JUMPDEST DUP4 DUP4 PUSH2 0x2056 JUMP JUMPDEST POP POP JUMP JUMPDEST PUSH1 0x8 PUSH1 0x0 SWAP1 SLOAD SWAP1 PUSH2 0x100 EXP SWAP1 DIV PUSH20 0xFFFFFFFFFFFFFFFFFFFFFFFFFFFFFFFFFFFFFFFF AND PUSH20 0xFFFFFFFFFFFFFFFFFFFFFFFFFFFFFFFFFFFFFFFF AND CALLER PUSH20 0xFFFFFFFFFFFFFFFFFFFFFFFFFFFFFFFFFFFFFFFF AND EQ PUSH2 0x127C JUMPI PUSH1 0x40 MLOAD PUSH32 0x8C379A000000000000000000000000000000000000000000000000000000000 DUP2 MSTORE PUSH1 0x4 ADD PUSH2 0x1273 SWAP1 PUSH2 0x417F JUMP JUMPDEST PUSH1 0x40 MLOAD DUP1 SWAP2 SUB SWAP1 REVERT JUMPDEST PUSH1 0xC PUSH1 0x0 SWAP1 SLOAD SWAP1 PUSH2 0x100 EXP SWAP1 DIV PUSH1 0xFF AND PUSH2 0x12CB JUMPI PUSH1 0x40 MLOAD PUSH32 0x8C379A000000000000000000000000000000000000000000000000000000000 DUP2 MSTORE PUSH1 0x4 ADD PUSH2 0x12C2 SWAP1 PUSH2 0x41EB JUMP JUMPDEST PUSH1 0x40 MLOAD DUP1 SWAP2 SUB SWAP1 REVERT JUMPDEST PUSH1 0x4 PUSH1 0xFF AND DUP2 MLOAD EQ PUSH2 0x1312 JUMPI PUSH1 0x40 MLOAD PUSH32 0x8C379A000000000000000000000000000000000000000000000000000000000 DUP2 MSTORE PUSH1 0x4 ADD PUSH2 0x1309 SWAP1 PUSH2 0x4257 JUMP JUMPDEST PUSH1 0x40 MLOAD DUP1 SWAP2 SUB SWAP1 REVERT JUMPDEST PUSH1 0xA PUSH1 0xFF AND PUSH1 0xB SLOAD LT PUSH2 0x135A JUMPI PUSH1 0x40 MLOAD PUSH32 0x8C379A000000000000000000000000000000000000000000000000000000000 DUP2 MSTORE PUSH1 0x4 ADD PUSH2 0x1351 SWAP1 PUSH2 0x42E9 JUMP JUMPDEST PUSH1 0x40 MLOAD DUP1 SWAP2 SUB SWAP1 REVERT JUMPDEST PUSH1 0x0 DUP1 PUSH2 0x1366 DUP4 PUSH2 0x21C5 JUMP JUMPDEST SWAP2 POP SWAP2 POP PUSH1 0x0 PUSH1 0x4 PUSH1 0xFF AND DUP4 PUSH1 0xFF AND EQ SWAP1 POP PUSH1 0xD PUSH1 0x40 MLOAD DUP1 PUSH1 0x80 ADD PUSH1 0x40 MSTORE DUP1 DUP7 DUP2 MSTORE PUSH1 0x20 ADD DUP6 PUSH1 0xFF AND DUP2 MSTORE PUSH1 0x20 ADD DUP5 PUSH1 0xFF AND DUP2 MSTORE PUSH1 0x20 ADD DUP4 ISZERO ISZERO DUP2 MSTORE POP SWAP1 DUP1 PUSH1 0x1 DUP2 SLOAD ADD DUP1 DUP3 SSTORE DUP1 SWAP2 POP POP PUSH1 0x1 SWAP1 SUB SWAP1 PUSH1 0x0 MSTORE PUSH1 0x20 PUSH1 0x0 KECCAK256 SWAP1 PUSH1 0x2 MUL ADD PUSH1 0x0 SWAP1 SWAP2 SWAP1 SWAP2 SWAP1 SWAP2 POP PUSH1 0x0 DUP3 ADD MLOAD DUP2 PUSH1 0x0 ADD SWAP1 DUP1 MLOAD SWAP1 PUSH1 0x20 ADD SWAP1 PUSH2 0x13E8 SWAP3 SWAP2 SWAP1 PUSH2 0x3075 JUMP JUMPDEST POP PUSH1 0x20 DUP3 ADD MLOAD DUP2 PUSH1 0x1 ADD PUSH1 0x0 PUSH2 0x100 EXP DUP2 SLOAD DUP2 PUSH1 0xFF MUL NOT AND SWAP1 DUP4 PUSH1 0xFF AND MUL OR SWAP1 SSTORE POP PUSH1 0x40 DUP3 ADD MLOAD DUP2 PUSH1 0x1 ADD PUSH1 0x1 PUSH2 0x100 EXP DUP2 SLOAD DUP2 PUSH1 0xFF MUL NOT AND SWAP1 DUP4 PUSH1 0xFF AND MUL OR SWAP1 SSTORE POP PUSH1 0x60 DUP3 ADD MLOAD DUP2 PUSH1 0x1 ADD PUSH1 0x2 PUSH2 0x100 EXP DUP2 SLOAD DUP2 PUSH1 0xFF MUL NOT AND SWAP1 DUP4 ISZERO ISZERO MUL OR SWAP1 SSTORE POP POP POP PUSH1 0x8 PUSH1 0x0 SWAP1 SLOAD SWAP1 PUSH2 0x100 EXP SWAP1 DIV PUSH20 0xFFFFFFFFFFFFFFFFFFFFFFFFFFFFFFFFFFFFFFFF AND PUSH20 0xFFFFFFFFFFFFFFFFFFFFFFFFFFFFFFFFFFFFFFFF AND PUSH32 0xB733E8664B442058353DB00385A5C6640F039B74589925D748092F1D1B6BAAD DUP6 DUP6 DUP6 DUP6 TIMESTAMP PUSH1 0x40 MLOAD PUSH2 0x14BD SWAP6 SWAP5 SWAP4 SWAP3 SWAP2 SWAP1 PUSH2 0x4378 JUMP JUMPDEST PUSH1 0x40 MLOAD DUP1 SWAP2 SUB SWAP1 LOG2 DUP1 ISZERO PUSH2 0x166D JUMPI PUSH1 0x0 PUSH1 0xC PUSH1 0x0 PUSH2 0x100 EXP DUP2 SLOAD DUP2 PUSH1 0xFF MUL NOT AND SWAP1 DUP4 ISZERO ISZERO MUL OR SWAP1 SSTORE POP PUSH1 0x1 PUSH1 0xC PUSH1 0x1 PUSH2 0x100 EXP DUP2 SLOAD DUP2 PUSH1 0xFF MUL NOT AND SWAP1 DUP4 PUSH1 0x2 DUP2 GT ISZERO PUSH2 0x150C JUMPI PUSH2 0x150B PUSH2 0x3770 JUMP JUMPDEST JUMPDEST MUL OR SWAP1 SSTORE POP PUSH2 0x2710 PUSH1 0xE PUSH1 0x0 DUP3 DUP3 SLOAD PUSH2 0x1525 SWAP2 SWAP1 PUSH2 0x4401 JUMP JUMPDEST SWAP3 POP POP DUP2 SWAP1 SSTORE POP PUSH2 0x1536 PUSH1 0x6 PUSH2 0x23EC JUMP JUMPDEST PUSH1 0x0 PUSH2 0x1542 PUSH1 0x6 PUSH2 0x2402 JUMP JUMPDEST SWAP1 POP PUSH2 0x1570 PUSH1 0x8 PUSH1 0x0 SWAP1 SLOAD SWAP1 PUSH2 0x100 EXP SWAP1 DIV PUSH20 0xFFFFFFFFFFFFFFFFFFFFFFFFFFFFFFFFFFFFFFFF AND DUP3 PUSH2 0x2410 JUMP JUMPDEST PUSH32 0xAFCF3201AA5A8B6350CD7E42802F62089C82CF3E88F4EF6D7A1CABD94763D8D9 PUSH1 0xC PUSH1 0x1 SWAP1 SLOAD SWAP1 PUSH2 0x100 EXP SWAP1 DIV PUSH1 0xFF AND TIMESTAMP PUSH1 0x40 MLOAD PUSH2 0x15B0 SWAP3 SWAP2 SWAP1 PUSH2 0x4041 JUMP JUMPDEST PUSH1 0x40 MLOAD DUP1 SWAP2 SUB SWAP1 LOG1 PUSH1 0x8 PUSH1 0x0 SWAP1 SLOAD SWAP1 PUSH2 0x100 EXP SWAP1 DIV PUSH20 0xFFFFFFFFFFFFFFFFFFFFFFFFFFFFFFFFFFFFFFFF AND PUSH20 0xFFFFFFFFFFFFFFFFFFFFFFFFFFFFFFFFFFFFFFFF AND PUSH32 0xD4BA6FEC82D9B0E8FFE50B9FED9E4BE3B25C984CE1E0E016405A5528726E8A2C TIMESTAMP PUSH1 0x40 MLOAD PUSH2 0x1620 SWAP2 SWAP1 PUSH2 0x3223 JUMP JUMPDEST PUSH1 0x40 MLOAD DUP1 SWAP2 SUB SWAP1 LOG2 PUSH32 0xB2383E82269E758B9EC0FC961AC69CECC166570A12068C11B3F9CF29C8DE9E88 PUSH1 0xE SLOAD PUSH1 0xF SLOAD TIMESTAMP PUSH1 0x40 MLOAD PUSH2 0x165F SWAP4 SWAP3 SWAP2 SWAP1 PUSH2 0x406A JUMP JUMPDEST PUSH1 0x40 MLOAD DUP1 SWAP2 SUB SWAP1 LOG1 POP PUSH2 0x1830 JUMP JUMPDEST PUSH1 0x64 PUSH1 0xF PUSH1 0x0 DUP3 DUP3 SLOAD PUSH2 0x1680 SWAP2 SWAP1 PUSH2 0x4401 JUMP JUMPDEST SWAP3 POP POP DUP2 SWAP1 SSTORE POP PUSH1 0xB PUSH1 0x0 DUP2 SLOAD DUP1 SWAP3 SWAP2 SWAP1 PUSH2 0x169A SWAP1 PUSH2 0x4435 JUMP JUMPDEST SWAP2 SWAP1 POP SSTORE POP PUSH1 0xA PUSH1 0xFF AND PUSH1 0xB SLOAD LT PUSH2 0x182F JUMPI PUSH1 0x0 PUSH1 0xC PUSH1 0x0 PUSH2 0x100 EXP DUP2 SLOAD DUP2 PUSH1 0xFF MUL NOT AND SWAP1 DUP4 ISZERO ISZERO MUL OR SWAP1 SSTORE POP PUSH1 0x2 PUSH1 0xC PUSH1 0x1 PUSH2 0x100 EXP DUP2 SLOAD DUP2 PUSH1 0xFF MUL NOT AND SWAP1 DUP4 PUSH1 0x2 DUP2 GT ISZERO PUSH2 0x16ED JUMPI PUSH2 0x16EC PUSH2 0x3770 JUMP JUMPDEST JUMPDEST MUL OR SWAP1 SSTORE POP PUSH2 0x16FC PUSH1 0x6 PUSH2 0x23EC JUMP JUMPDEST PUSH1 0x0 PUSH2 0x1708 PUSH1 0x6 PUSH2 0x2402 JUMP JUMPDEST SWAP1 POP PUSH2 0x1736 PUSH1 0x7 PUSH1 0x0 SWAP1 SLOAD SWAP1 PUSH2 0x100 EXP SWAP1 DIV PUSH20 0xFFFFFFFFFFFFFFFFFFFFFFFFFFFFFFFFFFFFFFFF AND DUP3 PUSH2 0x2410 JUMP JUMPDEST PUSH32 0xAFCF3201AA5A8B6350CD7E42802F62089C82CF3E88F4EF6D7A1CABD94763D8D9 PUSH1 0xC PUSH1 0x1 SWAP1 SLOAD SWAP1 PUSH2 0x100 EXP SWAP1 DIV PUSH1 0xFF AND TIMESTAMP PUSH1 0x40 MLOAD PUSH2 0x1776 SWAP3 SWAP2 SWAP1 PUSH2 0x4041 JUMP JUMPDEST PUSH1 0x40 MLOAD DUP1 SWAP2 SUB SWAP1 LOG1 PUSH1 0x7 PUSH1 0x0 SWAP1 SLOAD SWAP1 PUSH2 0x100 EXP SWAP1 DIV PUSH20 0xFFFFFFFFFFFFFFFFFFFFFFFFFFFFFFFFFFFFFFFF AND PUSH20 0xFFFFFFFFFFFFFFFFFFFFFFFFFFFFFFFFFFFFFFFF AND PUSH32 0xD4BA6FEC82D9B0E8FFE50B9FED9E4BE3B25C984CE1E0E016405A5528726E8A2C TIMESTAMP PUSH1 0x40 MLOAD PUSH2 0x17E6 SWAP2 SWAP1 PUSH2 0x3223 JUMP JUMPDEST PUSH1 0x40 MLOAD DUP1 SWAP2 SUB SWAP1 LOG2 PUSH32 0xB2383E82269E758B9EC0FC961AC69CECC166570A12068C11B3F9CF29C8DE9E88 PUSH1 0xE SLOAD PUSH1 0xF SLOAD TIMESTAMP PUSH1 0x40 MLOAD PUSH2 0x1825 SWAP4 SWAP3 SWAP2 SWAP1 PUSH2 0x406A JUMP JUMPDEST PUSH1 0x40 MLOAD DUP1 SWAP2 SUB SWAP1 LOG1 POP JUMPDEST JUMPDEST POP POP POP POP JUMP JUMPDEST PUSH2 0x1841 DUP5 DUP5 DUP5 PUSH2 0x7E1 JUMP JUMPDEST PUSH2 0x184D DUP5 DUP5 DUP5 DUP5 PUSH2 0x242E JUMP JUMPDEST POP POP POP POP JUMP JUMPDEST PUSH1 0xE SLOAD DUP2 JUMP JUMPDEST PUSH1 0xB SLOAD DUP2 JUMP JUMPDEST PUSH1 0x60 PUSH1 0x0 PUSH1 0x1 PUSH1 0x2 DUP2 GT ISZERO PUSH2 0x1877 JUMPI PUSH2 0x1876 PUSH2 0x3770 JUMP JUMPDEST JUMPDEST PUSH1 0xC PUSH1 0x1 SWAP1 SLOAD SWAP1 PUSH2 0x100 EXP SWAP1 DIV PUSH1 0xFF AND PUSH1 0x2 DUP2 GT ISZERO PUSH2 0x1899 JUMPI PUSH2 0x1898 PUSH2 0x3770 JUMP JUMPDEST JUMPDEST EQ PUSH2 0x18D9 JUMPI PUSH1 0x40 MLOAD DUP1 PUSH1 0x40 ADD PUSH1 0x40 MSTORE DUP1 PUSH1 0x4 DUP2 MSTORE PUSH1 0x20 ADD PUSH32 0x4C6F737400000000000000000000000000000000000000000000000000000000 DUP2 MSTORE POP PUSH2 0x1910 JUMP JUMPDEST PUSH1 0x40 MLOAD DUP1 PUSH1 0x40 ADD PUSH1 0x40 MSTORE DUP1 PUSH1 0x3 DUP2 MSTORE PUSH1 0x20 ADD PUSH32 0x576F6E0000000000000000000000000000000000000000000000000000000000 DUP2 MSTORE POP JUMPDEST SWAP1 POP PUSH1 0x0 PUSH2 0x191E DUP3 DUP6 PUSH2 0x25E5 JUMP JUMPDEST SWAP1 POP PUSH1 0x0 PUSH2 0x192B DUP6 PUSH2 0xD23 JUMP JUMPDEST SWAP1 POP PUSH1 0x0 PUSH2 0x196D PUSH2 0x193B DUP8 PUSH2 0x264C JUMP JUMPDEST DUP6 PUSH2 0x1945 DUP6 PUSH2 0x2827 JUMP JUMPDEST DUP7 PUSH1 0x40 MLOAD PUSH1 0x20 ADD PUSH2 0x1959 SWAP5 SWAP4 SWAP3 SWAP2 SWAP1 PUSH2 0x4719 JUMP JUMPDEST PUSH1 0x40 MLOAD PUSH1 0x20 DUP2 DUP4 SUB SUB DUP2 MSTORE SWAP1 PUSH1 0x40 MSTORE PUSH2 0x29E4 JUMP JUMPDEST SWAP1 POP PUSH2 0x1977 PUSH2 0x2B56 JUMP JUMPDEST DUP2 PUSH1 0x40 MLOAD PUSH1 0x20 ADD PUSH2 0x1989 SWAP3 SWAP2 SWAP1 PUSH2 0x4799 JUMP JUMPDEST PUSH1 0x40 MLOAD PUSH1 0x20 DUP2 DUP4 SUB SUB DUP2 MSTORE SWAP1 PUSH1 0x40 MSTORE SWAP5 POP POP POP POP POP SWAP2 SWAP1 POP JUMP JUMPDEST PUSH1 0x0 DUP1 PUSH1 0x0 PUSH1 0xD DUP1 SLOAD SWAP1 POP GT PUSH2 0x19EE JUMPI PUSH1 0x40 MLOAD PUSH32 0x8C379A000000000000000000000000000000000000000000000000000000000 DUP2 MSTORE PUSH1 0x4 ADD PUSH2 0x19E5 SWAP1 PUSH2 0x4809 JUMP JUMPDEST PUSH1 0x40 MLOAD DUP1 SWAP2 SUB SWAP1 REVERT JUMPDEST PUSH1 0x0 PUSH1 0xD PUSH1 0x1 PUSH1 0xD DUP1 SLOAD SWAP1 POP PUSH2 0x1A04 SWAP2 SWAP1 PUSH2 0x4829 JUMP JUMPDEST DUP2 SLOAD DUP2 LT PUSH2 0x1A15 JUMPI PUSH2 0x1A14 PUSH2 0x485D JUMP JUMPDEST JUMPDEST SWAP1 PUSH1 0x0 MSTORE PUSH1 0x20 PUSH1 0x0 KECCAK256 SWAP1 PUSH1 0x2 MUL ADD PUSH1 0x40 MLOAD DUP1 PUSH1 0x80 ADD PUSH1 0x40 MSTORE SWAP1 DUP2 PUSH1 0x0 DUP3 ADD DUP1 SLOAD DUP1 PUSH1 0x20 MUL PUSH1 0x20 ADD PUSH1 0x40 MLOAD SWAP1 DUP2 ADD PUSH1 0x40 MSTORE DUP1 SWAP3 SWAP2 SWAP1 DUP2 DUP2 MSTORE PUSH1 0x20 ADD DUP3 DUP1 SLOAD DUP1 ISZERO PUSH2 0x1AA3 JUMPI PUSH1 0x20 MUL DUP3 ADD SWAP2 SWAP1 PUSH1 0x0 MSTORE PUSH1 0x20 PUSH1 0x0 KECCAK256 SWAP1 PUSH1 0x0 SWAP1 JUMPDEST DUP3 DUP3 SWAP1 SLOAD SWAP1 PUSH2 0x100 EXP SWAP1 DIV PUSH1 0xFF AND PUSH1 0xFF AND DUP2 MSTORE PUSH1 0x20 ADD SWAP1 PUSH1 0x1 ADD SWAP1 PUSH1 0x20 DUP3 PUSH1 0x0 ADD DIV SWAP3 DUP4 ADD SWAP3 PUSH1 0x1 SUB DUP3 MUL SWAP2 POP DUP1 DUP5 GT PUSH2 0x1A6C JUMPI SWAP1 POP JUMPDEST POP POP POP POP POP DUP2 MSTORE PUSH1 0x20 ADD PUSH1 0x1 DUP3 ADD PUSH1 0x0 SWAP1 SLOAD SWAP1 PUSH2 0x100 EXP SWAP1 DIV PUSH1 0xFF AND PUSH1 0xFF AND PUSH1 0xFF AND DUP2 MSTORE PUSH1 0x20 ADD PUSH1 0x1 DUP3 ADD PUSH1 0x1 SWAP1 SLOAD SWAP1 PUSH2 0x100 EXP SWAP1 DIV PUSH1 0xFF AND PUSH1 0xFF AND PUSH1 0xFF AND DUP2 MSTORE PUSH1 0x20 ADD PUSH1 0x1 DUP3 ADD PUSH1 0x2 SWAP1 SLOAD SWAP1 PUSH2 0x100 EXP SWAP1 DIV PUSH1 0xFF AND ISZERO ISZERO ISZERO ISZERO DUP2 MSTORE POP POP SWAP1 POP DUP1 PUSH1 0x20 ADD MLOAD DUP2 PUSH1 0x40 ADD MLOAD SWAP3 POP SWAP3 POP POP SWAP1 SWAP2 JUMP JUMPDEST PUSH1 0x0 PUSH1 0x5 PUSH1 0x0 DUP5 PUSH20 0xFFFFFFFFFFFFFFFFFFFFFFFFFFFFFFFFFFFFFFFF AND PUSH20 0xFFFFFFFFFFFFFFFFFFFFFFFFFFFFFFFFFFFFFFFF AND DUP2 MSTORE PUSH1 0x20 ADD SWAP1 DUP2 MSTORE PUSH1 0x20 ADD PUSH1 0x0 KECCAK256 PUSH1 0x0 DUP4 PUSH20 0xFFFFFFFFFFFFFFFFFFFFFFFFFFFFFFFFFFFFFFFF AND PUSH20 0xFFFFFFFFFFFFFFFFFFFFFFFFFFFFFFFFFFFFFFFF AND DUP2 MSTORE PUSH1 0x20 ADD SWAP1 DUP2 MSTORE PUSH1 0x20 ADD PUSH1 0x0 KECCAK256 PUSH1 0x0 SWAP1 SLOAD SWAP1 PUSH2 0x100 EXP SWAP1 DIV PUSH1 0xFF AND SWAP1 POP SWAP3 SWAP2 POP POP JUMP JUMPDEST PUSH1 0xC PUSH1 0x0 SWAP1 SLOAD SWAP1 PUSH2 0x100 EXP SWAP1 DIV PUSH1 0xFF AND DUP2 JUMP JUMPDEST PUSH1 0x60 PUSH1 0x0 PUSH1 0xD DUP1 SLOAD SWAP1 POP PUSH8 0xFFFFFFFFFFFFFFFF DUP2 GT ISZERO PUSH2 0x1BE0 JUMPI PUSH2 0x1BDF PUSH2 0x358B JUMP JUMPDEST JUMPDEST PUSH1 0x40 MLOAD SWAP1 DUP1 DUP3 MSTORE DUP1 PUSH1 0x20 MUL PUSH1 0x20 ADD DUP3 ADD PUSH1 0x40 MSTORE DUP1 ISZERO PUSH2 0x1C13 JUMPI DUP2 PUSH1 0x20 ADD JUMPDEST PUSH1 0x60 DUP2 MSTORE PUSH1 0x20 ADD SWAP1 PUSH1 0x1 SWAP1 SUB SWAP1 DUP2 PUSH2 0x1BFE JUMPI SWAP1 POP JUMPDEST POP SWAP1 POP PUSH1 0x0 JUMPDEST PUSH1 0xD DUP1 SLOAD SWAP1 POP DUP2 LT ISZERO PUSH2 0x1CEB JUMPI PUSH1 0xD DUP2 DUP2 SLOAD DUP2 LT PUSH2 0x1C3A JUMPI PUSH2 0x1C39 PUSH2 0x485D JUMP JUMPDEST JUMPDEST SWAP1 PUSH1 0x0 MSTORE PUSH1 0x20 PUSH1 0x0 KECCAK256 SWAP1 PUSH1 0x2 MUL ADD PUSH1 0x0 ADD DUP1 SLOAD DUP1 PUSH1 0x20 MUL PUSH1 0x20 ADD PUSH1 0x40 MLOAD SWAP1 DUP2 ADD PUSH1 0x40 MSTORE DUP1 SWAP3 SWAP2 SWAP1 DUP2 DUP2 MSTORE PUSH1 0x20 ADD DUP3 DUP1 SLOAD DUP1 ISZERO PUSH2 0x1CBB JUMPI PUSH1 0x20 MUL DUP3 ADD SWAP2 SWAP1 PUSH1 0x0 MSTORE PUSH1 0x20 PUSH1 0x0 KECCAK256 SWAP1 PUSH1 0x0 SWAP1 JUMPDEST DUP3 DUP3 SWAP1 SLOAD SWAP1 PUSH2 0x100 EXP SWAP1 DIV PUSH1 0xFF AND PUSH1 0xFF AND DUP2 MSTORE PUSH1 0x20 ADD SWAP1 PUSH1 0x1 ADD SWAP1 PUSH1 0x20 DUP3 PUSH1 0x0 ADD DIV SWAP3 DUP4 ADD SWAP3 PUSH1 0x1 SUB DUP3 MUL SWAP2 POP DUP1 DUP5 GT PUSH2 0x1C84 JUMPI SWAP1 POP JUMPDEST POP POP POP POP POP DUP3 DUP3 DUP2 MLOAD DUP2 LT PUSH2 0x1CD3 JUMPI PUSH2 0x1CD2 PUSH2 0x485D JUMP JUMPDEST JUMPDEST PUSH1 0x20 MUL PUSH1 0x20 ADD ADD DUP2 SWAP1 MSTORE POP DUP1 DUP1 PUSH1 0x1 ADD SWAP2 POP POP PUSH2 0x1C19 JUMP JUMPDEST POP DUP1 SWAP2 POP POP SWAP1 JUMP JUMPDEST PUSH1 0x0 PUSH32 0x1FFC9A700000000000000000000000000000000000000000000000000000000 PUSH28 0xFFFFFFFFFFFFFFFFFFFFFFFFFFFFFFFFFFFFFFFFFFFFFFFFFFFFFFFF NOT AND DUP3 PUSH28 0xFFFFFFFFFFFFFFFFFFFFFFFFFFFFFFFFFFFFFFFFFFFFFFFFFFFFFFFF NOT AND EQ SWAP1 POP SWAP2 SWAP1 POP JUMP JUMPDEST PUSH1 0x0 DUP1 PUSH2 0x1D69 DUP4 PUSH2 0x2B93 JUMP JUMPDEST SWAP1 POP PUSH1 0x0 PUSH20 0xFFFFFFFFFFFFFFFFFFFFFFFFFFFFFFFFFFFFFFFF AND DUP2 PUSH20 0xFFFFFFFFFFFFFFFFFFFFFFFFFFFFFFFFFFFFFFFF AND SUB PUSH2 0x1DDC JUMPI DUP3 PUSH1 0x40 MLOAD PUSH32 0x7E27328900000000000000000000000000000000000000000000000000000000 DUP2 MSTORE PUSH1 0x4 ADD PUSH2 0x1DD3 SWAP2 SWAP1 PUSH2 0x3223 JUMP JUMPDEST PUSH1 0x40 MLOAD DUP1 SWAP2 SUB SWAP1 REVERT JUMPDEST DUP1 SWAP2 POP POP SWAP2 SWAP1 POP JUMP JUMPDEST PUSH1 0x0 PUSH1 0x4 PUSH1 0x0 DUP4 DUP2 MSTORE PUSH1 0x20 ADD SWAP1 DUP2 MSTORE PUSH1 0x20 ADD PUSH1 0x0 KECCAK256 PUSH1 0x0 SWAP1 SLOAD SWAP1 PUSH2 0x100 EXP SWAP1 DIV PUSH20 0xFFFFFFFFFFFFFFFFFFFFFFFFFFFFFFFFFFFFFFFF AND SWAP1 POP SWAP2 SWAP1 POP JUMP JUMPDEST PUSH1 0x0 CALLER SWAP1 POP SWAP1 JUMP JUMPDEST PUSH2 0x1E37 DUP4 DUP4 DUP4 PUSH1 0x1 PUSH2 0x2BD0 JUMP JUMPDEST POP POP POP JUMP JUMPDEST PUSH1 0x0 DUP1 PUSH2 0x1E48 DUP5 PUSH2 0x2B93 JUMP JUMPDEST SWAP1 POP PUSH1 0x0 PUSH20 0xFFFFFFFFFFFFFFFFFFFFFFFFFFFFFFFFFFFFFFFF AND DUP4 PUSH20 0xFFFFFFFFFFFFFFFFFFFFFFFFFFFFFFFFFFFFFFFF AND EQ PUSH2 0x1E8A JUMPI PUSH2 0x1E89 DUP2 DUP5 DUP7 PUSH2 0x2D95 JUMP JUMPDEST JUMPDEST PUSH1 0x0 PUSH20 0xFFFFFFFFFFFFFFFFFFFFFFFFFFFFFFFFFFFFFFFF AND DUP2 PUSH20 0xFFFFFFFFFFFFFFFFFFFFFFFFFFFFFFFFFFFFFFFF AND EQ PUSH2 0x1F1B JUMPI PUSH2 0x1ECC PUSH1 0x0 DUP6 PUSH1 0x0 DUP1 PUSH2 0x2BD0 JUMP JUMPDEST PUSH1 0x1 PUSH1 0x3 PUSH1 0x0 DUP4 PUSH20 0xFFFFFFFFFFFFFFFFFFFFFFFFFFFFFFFFFFFFFFFF AND PUSH20 0xFFFFFFFFFFFFFFFFFFFFFFFFFFFFFFFFFFFFFFFF AND DUP2 MSTORE PUSH1 0x20 ADD SWAP1 DUP2 MSTORE PUSH1 0x20 ADD PUSH1 0x0 KECCAK256 PUSH1 0x0 DUP3 DUP3 SLOAD SUB SWAP3 POP POP DUP2 SWAP1 SSTORE POP JUMPDEST PUSH1 0x0 PUSH20 0xFFFFFFFFFFFFFFFFFFFFFFFFFFFFFFFFFFFFFFFF AND DUP6 PUSH20 0xFFFFFFFFFFFFFFFFFFFFFFFFFFFFFFFFFFFFFFFF AND EQ PUSH2 0x1F9E JUMPI PUSH1 0x1 PUSH1 0x3 PUSH1 0x0 DUP8 PUSH20 0xFFFFFFFFFFFFFFFFFFFFFFFFFFFFFFFFFFFFFFFF AND PUSH20 0xFFFFFFFFFFFFFFFFFFFFFFFFFFFFFFFFFFFFFFFF AND DUP2 MSTORE PUSH1 0x20 ADD SWAP1 DUP2 MSTORE PUSH1 0x20 ADD PUSH1 0x0 KECCAK256 PUSH1 0x0 DUP3 DUP3 SLOAD ADD SWAP3 POP POP DUP2 SWAP1 SSTORE POP JUMPDEST DUP5 PUSH1 0x2 PUSH1 0x0 DUP7 DUP2 MSTORE PUSH1 0x20 ADD SWAP1 DUP2 MSTORE PUSH1 0x20 ADD PUSH1 0x0 KECCAK256 PUSH1 0x0 PUSH2 0x100 EXP DUP2 SLOAD DUP2 PUSH20 0xFFFFFFFFFFFFFFFFFFFFFFFFFFFFFFFFFFFFFFFF MUL NOT AND SWAP1 DUP4 PUSH20 0xFFFFFFFFFFFFFFFFFFFFFFFFFFFFFFFFFFFFFFFF AND MUL OR SWAP1 SSTORE POP DUP4 DUP6 PUSH20 0xFFFFFFFFFFFFFFFFFFFFFFFFFFFFFFFFFFFFFFFF AND DUP3 PUSH20 0xFFFFFFFFFFFFFFFFFFFFFFFFFFFFFFFFFFFFFFFF AND PUSH32 0xDDF252AD1BE2C89B69C2B068FC378DAA952BA7F163C4A11628F55A4DF523B3EF PUSH1 0x40 MLOAD PUSH1 0x40 MLOAD DUP1 SWAP2 SUB SWAP1 LOG4 DUP1 SWAP2 POP POP SWAP4 SWAP3 POP POP POP JUMP JUMPDEST PUSH1 0x0 PUSH20 0xFFFFFFFFFFFFFFFFFFFFFFFFFFFFFFFFFFFFFFFF AND DUP3 PUSH20 0xFFFFFFFFFFFFFFFFFFFFFFFFFFFFFFFFFFFFFFFF AND SUB PUSH2 0x20C7 JUMPI DUP2 PUSH1 0x40 MLOAD PUSH32 0x5B08BA1800000000000000000000000000000000000000000000000000000000 DUP2 MSTORE PUSH1 0x4 ADD PUSH2 0x20BE SWAP2 SWAP1 PUSH2 0x3459 JUMP JUMPDEST PUSH1 0x40 MLOAD DUP1 SWAP2 SUB SWAP1 REVERT JUMPDEST DUP1 PUSH1 0x5 PUSH1 0x0 DUP6 PUSH20 0xFFFFFFFFFFFFFFFFFFFFFFFFFFFFFFFFFFFFFFFF AND PUSH20 0xFFFFFFFFFFFFFFFFFFFFFFFFFFFFFFFFFFFFFFFF AND DUP2 MSTORE PUSH1 0x20 ADD SWAP1 DUP2 MSTORE PUSH1 0x20 ADD PUSH1 0x0 KECCAK256 PUSH1 0x0 DUP5 PUSH20 0xFFFFFFFFFFFFFFFFFFFFFFFFFFFFFFFFFFFFFFFF AND PUSH20 0xFFFFFFFFFFFFFFFFFFFFFFFFFFFFFFFFFFFFFFFF AND DUP2 MSTORE PUSH1 0x20 ADD SWAP1 DUP2 MSTORE PUSH1 0x20 ADD PUSH1 0x0 KECCAK256 PUSH1 0x0 PUSH2 0x100 EXP DUP2 SLOAD DUP2 PUSH1 0xFF MUL NOT AND SWAP1 DUP4 ISZERO ISZERO MUL OR SWAP1 SSTORE POP DUP2 PUSH20 0xFFFFFFFFFFFFFFFFFFFFFFFFFFFFFFFFFFFFFFFF AND DUP4 PUSH20 0xFFFFFFFFFFFFFFFFFFFFFFFFFFFFFFFFFFFFFFFF AND PUSH32 0x17307EAB39AB6107E8899845AD3D59BD9653F200F220920489CA2B5937696C31 DUP4 PUSH1 0x40 MLOAD PUSH2 0x21B8 SWAP2 SWAP1 PUSH2 0x32F2 JUMP JUMPDEST PUSH1 0x40 MLOAD DUP1 SWAP2 SUB SWAP1 LOG3 POP POP POP JUMP JUMPDEST PUSH1 0x0 DUP1 PUSH2 0x21D0 PUSH2 0x3140 JUMP JUMPDEST PUSH2 0x21D8 PUSH2 0x3140 JUMP JUMPDEST PUSH1 0x0 JUMPDEST PUSH1 0x4 PUSH1 0xFF AND DUP2 PUSH1 0xFF AND LT ISZERO PUSH2 0x22B8 JUMPI PUSH1 0xA DUP2 PUSH1 0xFF AND DUP2 SLOAD DUP2 LT PUSH2 0x2201 JUMPI PUSH2 0x2200 PUSH2 0x485D JUMP JUMPDEST JUMPDEST SWAP1 PUSH1 0x0 MSTORE PUSH1 0x20 PUSH1 0x0 KECCAK256 SWAP1 PUSH1 0x20 SWAP2 DUP3 DUP3 DIV ADD SWAP2 SWAP1 MOD SWAP1 SLOAD SWAP1 PUSH2 0x100 EXP SWAP1 DIV PUSH1 0xFF AND PUSH1 0xFF AND DUP7 DUP3 PUSH1 0xFF AND DUP2 MLOAD DUP2 LT PUSH2 0x223A JUMPI PUSH2 0x2239 PUSH2 0x485D JUMP JUMPDEST JUMPDEST PUSH1 0x20 MUL PUSH1 0x20 ADD ADD MLOAD PUSH1 0xFF AND SUB PUSH2 0x22AB JUMPI DUP5 DUP1 PUSH2 0x2255 SWAP1 PUSH2 0x488C JUMP JUMPDEST SWAP6 POP POP PUSH1 0x1 DUP4 DUP3 PUSH1 0xFF AND PUSH1 0x4 DUP2 LT PUSH2 0x2270 JUMPI PUSH2 0x226F PUSH2 0x485D JUMP JUMPDEST JUMPDEST PUSH1 0x20 MUL ADD SWAP1 PUSH1 0xFF AND SWAP1 DUP2 PUSH1 0xFF AND DUP2 MSTORE POP POP PUSH1 0x1 DUP3 DUP3 PUSH1 0xFF AND PUSH1 0x4 DUP2 LT PUSH2 0x2299 JUMPI PUSH2 0x2298 PUSH2 0x485D JUMP JUMPDEST JUMPDEST PUSH1 0x20 MUL ADD SWAP1 PUSH1 0xFF AND SWAP1 DUP2 PUSH1 0xFF AND DUP2 MSTORE POP POP JUMPDEST DUP1 DUP1 PUSH1 0x1 ADD SWAP2 POP POP PUSH2 0x21DB JUMP JUMPDEST POP PUSH1 0x0 JUMPDEST PUSH1 0x4 PUSH1 0xFF AND DUP2 PUSH1 0xFF AND LT ISZERO PUSH2 0x23E4 JUMPI PUSH1 0x0 DUP3 DUP3 PUSH1 0xFF AND PUSH1 0x4 DUP2 LT PUSH2 0x22E3 JUMPI PUSH2 0x22E2 PUSH2 0x485D JUMP JUMPDEST JUMPDEST PUSH1 0x20 MUL ADD MLOAD PUSH1 0xFF AND SUB PUSH2 0x23D7 JUMPI PUSH1 0x0 JUMPDEST PUSH1 0x4 PUSH1 0xFF AND DUP2 PUSH1 0xFF AND LT ISZERO PUSH2 0x23D5 JUMPI PUSH1 0x0 DUP5 DUP3 PUSH1 0xFF AND PUSH1 0x4 DUP2 LT PUSH2 0x231A JUMPI PUSH2 0x2319 PUSH2 0x485D JUMP JUMPDEST JUMPDEST PUSH1 0x20 MUL ADD MLOAD PUSH1 0xFF AND EQ DUP1 ISZERO PUSH2 0x2387 JUMPI POP PUSH1 0xA DUP2 PUSH1 0xFF AND DUP2 SLOAD DUP2 LT PUSH2 0x2341 JUMPI PUSH2 0x2340 PUSH2 0x485D JUMP JUMPDEST JUMPDEST SWAP1 PUSH1 0x0 MSTORE PUSH1 0x20 PUSH1 0x0 KECCAK256 SWAP1 PUSH1 0x20 SWAP2 DUP3 DUP3 DIV ADD SWAP2 SWAP1 MOD SWAP1 SLOAD SWAP1 PUSH2 0x100 EXP SWAP1 DIV PUSH1 0xFF AND PUSH1 0xFF AND DUP8 DUP4 PUSH1 0xFF AND DUP2 MLOAD DUP2 LT PUSH2 0x237A JUMPI PUSH2 0x2379 PUSH2 0x485D JUMP JUMPDEST JUMPDEST PUSH1 0x20 MUL PUSH1 0x20 ADD ADD MLOAD PUSH1 0xFF AND EQ JUMPDEST ISZERO PUSH2 0x23C8 JUMPI DUP5 DUP1 PUSH2 0x2397 SWAP1 PUSH2 0x488C JUMP JUMPDEST SWAP6 POP POP PUSH1 0x1 DUP5 DUP3 PUSH1 0xFF AND PUSH1 0x4 DUP2 LT PUSH2 0x23B2 JUMPI PUSH2 0x23B1 PUSH2 0x485D JUMP JUMPDEST JUMPDEST PUSH1 0x20 MUL ADD SWAP1 PUSH1 0xFF AND SWAP1 DUP2 PUSH1 0xFF AND DUP2 MSTORE POP POP PUSH2 0x23D5 JUMP JUMPDEST DUP1 DUP1 PUSH1 0x1 ADD SWAP2 POP POP PUSH2 0x22F3 JUMP JUMPDEST POP JUMPDEST DUP1 DUP1 PUSH1 0x1 ADD SWAP2 POP POP PUSH2 0x22BC JUMP JUMPDEST POP POP POP SWAP2 POP SWAP2 JUMP JUMPDEST PUSH1 0x1 DUP2 PUSH1 0x0 ADD PUSH1 0x0 DUP3 DUP3 SLOAD ADD SWAP3 POP POP DUP2 SWAP1 SSTORE POP POP JUMP JUMPDEST PUSH1 0x0 DUP2 PUSH1 0x0 ADD SLOAD SWAP1 POP SWAP2 SWAP1 POP JUMP JUMPDEST PUSH2 0x242A DUP3 DUP3 PUSH1 0x40 MLOAD DUP1 PUSH1 0x20 ADD PUSH1 0x40 MSTORE DUP1 PUSH1 0x0 DUP2 MSTORE POP PUSH2 0x2E59 JUMP JUMPDEST POP POP JUMP JUMPDEST PUSH1 0x0 DUP4 PUSH20 0xFFFFFFFFFFFFFFFFFFFFFFFFFFFFFFFFFFFFFFFF AND EXTCODESIZE GT ISZERO PUSH2 0x25DF JUMPI DUP3 PUSH20 0xFFFFFFFFFFFFFFFFFFFFFFFFFFFFFFFFFFFFFFFF AND PUSH4 0x150B7A02 PUSH2 0x2472 PUSH2 0x1E22 JUMP JUMPDEST DUP7 DUP6 DUP6 PUSH1 0x40 MLOAD DUP6 PUSH4 0xFFFFFFFF AND PUSH1 0xE0 SHL DUP2 MSTORE PUSH1 0x4 ADD PUSH2 0x2494 SWAP5 SWAP4 SWAP3 SWAP2 SWAP1 PUSH2 0x490A JUMP JUMPDEST PUSH1 0x20 PUSH1 0x40 MLOAD DUP1 DUP4 SUB DUP2 PUSH1 0x0 DUP8 GAS CALL SWAP3 POP POP POP DUP1 ISZERO PUSH2 0x24D0 JUMPI POP PUSH1 0x40 MLOAD RETURNDATASIZE PUSH1 0x1F NOT PUSH1 0x1F DUP3 ADD AND DUP3 ADD DUP1 PUSH1 0x40 MSTORE POP DUP2 ADD SWAP1 PUSH2 0x24CD SWAP2 SWAP1 PUSH2 0x496B JUMP JUMPDEST PUSH1 0x1 JUMPDEST PUSH2 0x2554 JUMPI RETURNDATASIZE DUP1 PUSH1 0x0 DUP2 EQ PUSH2 0x2500 JUMPI PUSH1 0x40 MLOAD SWAP2 POP PUSH1 0x1F NOT PUSH1 0x3F RETURNDATASIZE ADD AND DUP3 ADD PUSH1 0x40 MSTORE RETURNDATASIZE DUP3 MSTORE RETURNDATASIZE PUSH1 0x0 PUSH1 0x20 DUP5 ADD RETURNDATACOPY PUSH2 0x2505 JUMP JUMPDEST PUSH1 0x60 SWAP2 POP JUMPDEST POP PUSH1 0x0 DUP2 MLOAD SUB PUSH2 0x254C JUMPI DUP4 PUSH1 0x40 MLOAD PUSH32 0x64A0AE9200000000000000000000000000000000000000000000000000000000 DUP2 MSTORE PUSH1 0x4 ADD PUSH2 0x2543 SWAP2 SWAP1 PUSH2 0x3459 JUMP JUMPDEST PUSH1 0x40 MLOAD DUP1 SWAP2 SUB SWAP1 REVERT JUMPDEST DUP1 MLOAD DUP2 PUSH1 0x20 ADD REVERT JUMPDEST PUSH4 0x150B7A02 PUSH1 0xE0 SHL PUSH28 0xFFFFFFFFFFFFFFFFFFFFFFFFFFFFFFFFFFFFFFFFFFFFFFFFFFFFFFFF NOT AND DUP2 PUSH28 0xFFFFFFFFFFFFFFFFFFFFFFFFFFFFFFFFFFFFFFFFFFFFFFFFFFFFFFFF NOT AND EQ PUSH2 0x25DD JUMPI DUP4 PUSH1 0x40 MLOAD PUSH32 0x64A0AE9200000000000000000000000000000000000000000000000000000000 DUP2 MSTORE PUSH1 0x4 ADD PUSH2 0x25D4 SWAP2 SWAP1 PUSH2 0x3459 JUMP JUMPDEST PUSH1 0x40 MLOAD DUP1 SWAP2 SUB SWAP1 REVERT JUMPDEST POP JUMPDEST POP POP POP POP JUMP JUMPDEST PUSH1 0x60 PUSH1 0x0 DUP4 PUSH2 0x25F3 DUP5 PUSH2 0x264C JUMP JUMPDEST PUSH1 0x40 MLOAD PUSH1 0x20 ADD PUSH2 0x2604 SWAP3 SWAP2 SWAP1 PUSH2 0x519C JUMP JUMPDEST PUSH1 0x40 MLOAD PUSH1 0x20 DUP2 DUP4 SUB SUB DUP2 MSTORE SWAP1 PUSH1 0x40 MSTORE SWAP1 POP PUSH1 0x0 PUSH2 0x2620 DUP3 PUSH2 0x29E4 JUMP JUMPDEST PUSH1 0x40 MLOAD PUSH1 0x20 ADD PUSH2 0x2630 SWAP2 SWAP1 PUSH2 0x52D2 JUMP JUMPDEST PUSH1 0x40 MLOAD PUSH1 0x20 DUP2 DUP4 SUB SUB DUP2 MSTORE SWAP1 PUSH1 0x40 MSTORE SWAP1 POP DUP1 SWAP3 POP POP POP SWAP3 SWAP2 POP POP JUMP JUMPDEST PUSH1 0x60 PUSH1 0x0 PUSH1 0x4E SWAP1 POP PUSH1 0x0 DUP2 PUSH8 0xFFFFFFFFFFFFFFFF DUP2 GT ISZERO PUSH2 0x2670 JUMPI PUSH2 0x266F PUSH2 0x358B JUMP JUMPDEST JUMPDEST PUSH1 0x40 MLOAD SWAP1 DUP1 DUP3 MSTORE DUP1 PUSH1 0x1F ADD PUSH1 0x1F NOT AND PUSH1 0x20 ADD DUP3 ADD PUSH1 0x40 MSTORE DUP1 ISZERO PUSH2 0x26A2 JUMPI DUP2 PUSH1 0x20 ADD PUSH1 0x1 DUP3 MUL DUP1 CALLDATASIZE DUP4 CALLDATACOPY DUP1 DUP3 ADD SWAP2 POP POP SWAP1 POP JUMPDEST POP SWAP1 POP PUSH1 0x0 JUMPDEST PUSH1 0x0 DUP6 EQ PUSH2 0x2734 JUMPI PUSH1 0x0 PUSH1 0xA DUP7 PUSH2 0x26BF SWAP2 SWAP1 PUSH2 0x5323 JUMP JUMPDEST SWAP1 POP PUSH1 0xA DUP7 PUSH2 0x26CE SWAP2 SWAP1 PUSH2 0x5354 JUMP JUMPDEST SWAP6 POP DUP1 PUSH1 0x30 PUSH2 0x26DD SWAP2 SWAP1 PUSH2 0x4401 JUMP JUMPDEST PUSH1 0xF8 SHL DUP4 DUP4 DUP1 PUSH2 0x26EC SWAP1 PUSH2 0x4435 JUMP JUMPDEST SWAP5 POP DUP2 MLOAD DUP2 LT PUSH2 0x26FF JUMPI PUSH2 0x26FE PUSH2 0x485D JUMP JUMPDEST JUMPDEST PUSH1 0x20 ADD ADD SWAP1 PUSH31 0xFFFFFFFFFFFFFFFFFFFFFFFFFFFFFFFFFFFFFFFFFFFFFFFFFFFFFFFFFFFFFF NOT AND SWAP1 DUP2 PUSH1 0x0 BYTE SWAP1 MSTORE8 POP POP PUSH2 0x26A8 JUMP JUMPDEST PUSH1 0x0 DUP2 PUSH8 0xFFFFFFFFFFFFFFFF DUP2 GT ISZERO PUSH2 0x2750 JUMPI PUSH2 0x274F PUSH2 0x358B JUMP JUMPDEST JUMPDEST PUSH1 0x40 MLOAD SWAP1 DUP1 DUP3 MSTORE DUP1 PUSH1 0x1F ADD PUSH1 0x1F NOT AND PUSH1 0x20 ADD DUP3 ADD PUSH1 0x40 MSTORE DUP1 ISZERO PUSH2 0x2782 JUMPI DUP2 PUSH1 0x20 ADD PUSH1 0x1 DUP3 MUL DUP1 CALLDATASIZE DUP4 CALLDATACOPY DUP1 DUP3 ADD SWAP2 POP POP SWAP1 POP JUMPDEST POP SWAP1 POP PUSH1 0x0 JUMPDEST DUP3 DUP2 LT ISZERO PUSH2 0x2814 JUMPI DUP4 PUSH1 0x1 DUP3 DUP6 PUSH2 0x279F SWAP2 SWAP1 PUSH2 0x4829 JUMP JUMPDEST PUSH2 0x27A9 SWAP2 SWAP1 PUSH2 0x4829 JUMP JUMPDEST DUP2 MLOAD DUP2 LT PUSH2 0x27BA JUMPI PUSH2 0x27B9 PUSH2 0x485D JUMP JUMPDEST JUMPDEST PUSH1 0x20 ADD ADD MLOAD PUSH1 0xF8 SHR PUSH1 0xF8 SHL DUP3 DUP3 DUP2 MLOAD DUP2 LT PUSH2 0x27D8 JUMPI PUSH2 0x27D7 PUSH2 0x485D JUMP JUMPDEST JUMPDEST PUSH1 0x20 ADD ADD SWAP1 PUSH31 0xFFFFFFFFFFFFFFFFFFFFFFFFFFFFFFFFFFFFFFFFFFFFFFFFFFFFFFFFFFFFFF NOT AND SWAP1 DUP2 PUSH1 0x0 BYTE SWAP1 MSTORE8 POP DUP1 DUP1 PUSH1 0x1 ADD SWAP2 POP POP PUSH2 0x2788 JUMP JUMPDEST POP PUSH1 0x0 DUP2 SWAP1 POP DUP1 SWAP6 POP POP POP POP POP POP SWAP2 SWAP1 POP JUMP JUMPDEST PUSH1 0x60 PUSH1 0x0 PUSH1 0x28 PUSH8 0xFFFFFFFFFFFFFFFF DUP2 GT ISZERO PUSH2 0x2846 JUMPI PUSH2 0x2845 PUSH2 0x358B JUMP JUMPDEST JUMPDEST PUSH1 0x40 MLOAD SWAP1 DUP1 DUP3 MSTORE DUP1 PUSH1 0x1F ADD PUSH1 0x1F NOT AND PUSH1 0x20 ADD DUP3 ADD PUSH1 0x40 MSTORE DUP1 ISZERO PUSH2 0x2878 JUMPI DUP2 PUSH1 0x20 ADD PUSH1 0x1 DUP3 MUL DUP1 CALLDATASIZE DUP4 CALLDATACOPY DUP1 DUP3 ADD SWAP2 POP POP SWAP1 POP JUMPDEST POP SWAP1 POP PUSH1 0x0 JUMPDEST PUSH1 0x14 DUP2 LT ISZERO PUSH2 0x29DA JUMPI PUSH1 0x0 DUP2 PUSH1 0x13 PUSH2 0x2896 SWAP2 SWAP1 PUSH2 0x4829 JUMP JUMPDEST PUSH1 0x8 PUSH2 0x28A2 SWAP2 SWAP1 PUSH2 0x5385 JUMP JUMPDEST PUSH1 0x2 PUSH2 0x28AE SWAP2 SWAP1 PUSH2 0x54FA JUMP JUMPDEST DUP6 PUSH20 0xFFFFFFFFFFFFFFFFFFFFFFFFFFFFFFFFFFFFFFFF AND PUSH2 0x28CF SWAP2 SWAP1 PUSH2 0x5354 JUMP JUMPDEST PUSH1 0xF8 SHL SWAP1 POP PUSH1 0x0 PUSH1 0x10 DUP3 PUSH1 0xF8 SHR PUSH2 0x28E6 SWAP2 SWAP1 PUSH2 0x5545 JUMP JUMPDEST PUSH1 0xF8 SHL SWAP1 POP PUSH1 0x0 DUP2 PUSH1 0xF8 SHR PUSH1 0x10 PUSH2 0x28FD SWAP2 SWAP1 PUSH2 0x5576 JUMP JUMPDEST DUP4 PUSH1 0xF8 SHR PUSH2 0x290B SWAP2 SWAP1 PUSH2 0x55B3 JUMP JUMPDEST PUSH1 0xF8 SHL SWAP1 POP PUSH2 0x2919 DUP3 PUSH2 0x2E75 JUMP JUMPDEST DUP6 DUP6 PUSH1 0x2 PUSH2 0x2927 SWAP2 SWAP1 PUSH2 0x5385 JUMP JUMPDEST DUP2 MLOAD DUP2 LT PUSH2 0x2938 JUMPI PUSH2 0x2937 PUSH2 0x485D JUMP JUMPDEST JUMPDEST PUSH1 0x20 ADD ADD SWAP1 PUSH31 0xFFFFFFFFFFFFFFFFFFFFFFFFFFFFFFFFFFFFFFFFFFFFFFFFFFFFFFFFFFFFFF NOT AND SWAP1 DUP2 PUSH1 0x0 BYTE SWAP1 MSTORE8 POP PUSH2 0x2970 DUP2 PUSH2 0x2E75 JUMP JUMPDEST DUP6 PUSH1 0x1 DUP7 PUSH1 0x2 PUSH2 0x2980 SWAP2 SWAP1 PUSH2 0x5385 JUMP JUMPDEST PUSH2 0x298A SWAP2 SWAP1 PUSH2 0x4401 JUMP JUMPDEST DUP2 MLOAD DUP2 LT PUSH2 0x299B JUMPI PUSH2 0x299A PUSH2 0x485D JUMP JUMPDEST JUMPDEST PUSH1 0x20 ADD ADD SWAP1 PUSH31 0xFFFFFFFFFFFFFFFFFFFFFFFFFFFFFFFFFFFFFFFFFFFFFFFFFFFFFFFFFFFFFF NOT AND SWAP1 DUP2 PUSH1 0x0 BYTE SWAP1 MSTORE8 POP POP POP POP DUP1 DUP1 PUSH1 0x1 ADD SWAP2 POP POP PUSH2 0x287E JUMP JUMPDEST POP DUP1 SWAP2 POP POP SWAP2 SWAP1 POP JUMP JUMPDEST PUSH1 0x60 PUSH1 0x0 DUP3 MLOAD SUB PUSH2 0x2A06 JUMPI PUSH1 0x40 MLOAD DUP1 PUSH1 0x20 ADD PUSH1 0x40 MSTORE DUP1 PUSH1 0x0 DUP2 MSTORE POP SWAP1 POP PUSH2 0x2B51 JUMP JUMPDEST PUSH1 0x0 PUSH1 0x40 MLOAD DUP1 PUSH1 0x60 ADD PUSH1 0x40 MSTORE DUP1 PUSH1 0x40 DUP2 MSTORE PUSH1 0x20 ADD PUSH2 0x5647 PUSH1 0x40 SWAP2 CODECOPY SWAP1 POP PUSH1 0x0 PUSH1 0x3 PUSH1 0x2 DUP6 MLOAD PUSH2 0x2A35 SWAP2 SWAP1 PUSH2 0x4401 JUMP JUMPDEST PUSH2 0x2A3F SWAP2 SWAP1 PUSH2 0x5354 JUMP JUMPDEST PUSH1 0x4 PUSH2 0x2A4B SWAP2 SWAP1 PUSH2 0x5385 JUMP JUMPDEST PUSH8 0xFFFFFFFFFFFFFFFF DUP2 GT ISZERO PUSH2 0x2A64 JUMPI PUSH2 0x2A63 PUSH2 0x358B JUMP JUMPDEST JUMPDEST PUSH1 0x40 MLOAD SWAP1 DUP1 DUP3 MSTORE DUP1 PUSH1 0x1F ADD PUSH1 0x1F NOT AND PUSH1 0x20 ADD DUP3 ADD PUSH1 0x40 MSTORE DUP1 ISZERO PUSH2 0x2A96 JUMPI DUP2 PUSH1 0x20 ADD PUSH1 0x1 DUP3 MUL DUP1 CALLDATASIZE DUP4 CALLDATACOPY DUP1 DUP3 ADD SWAP2 POP POP SWAP1 POP JUMPDEST POP SWAP1 POP PUSH1 0x1 DUP3 ADD PUSH1 0x20 DUP3 ADD DUP6 DUP7 MLOAD DUP8 ADD PUSH1 0x20 DUP2 ADD DUP1 MLOAD PUSH1 0x0 DUP3 MSTORE JUMPDEST DUP3 DUP5 LT ISZERO PUSH2 0x2B0C JUMPI PUSH1 0x3 DUP5 ADD SWAP4 POP DUP4 MLOAD PUSH1 0x3F DUP2 PUSH1 0x12 SHR AND DUP8 ADD MLOAD DUP7 MSTORE8 PUSH1 0x1 DUP7 ADD SWAP6 POP PUSH1 0x3F DUP2 PUSH1 0xC SHR AND DUP8 ADD MLOAD DUP7 MSTORE8 PUSH1 0x1 DUP7 ADD SWAP6 POP PUSH1 0x3F DUP2 PUSH1 0x6 SHR AND DUP8 ADD MLOAD DUP7 MSTORE8 PUSH1 0x1 DUP7 ADD SWAP6 POP PUSH1 0x3F DUP2 AND DUP8 ADD MLOAD DUP7 MSTORE8 PUSH1 0x1 DUP7 ADD SWAP6 POP POP PUSH2 0x2AB1 JUMP JUMPDEST DUP1 DUP3 MSTORE PUSH1 0x3 DUP11 MLOAD MOD PUSH1 0x1 DUP2 EQ PUSH2 0x2B29 JUMPI PUSH1 0x2 DUP2 EQ PUSH2 0x2B3C JUMPI PUSH2 0x2B44 JUMP JUMPDEST PUSH1 0x3D PUSH1 0x1 DUP8 SUB MSTORE8 PUSH1 0x3D PUSH1 0x2 DUP8 SUB MSTORE8 PUSH2 0x2B44 JUMP JUMPDEST PUSH1 0x3D PUSH1 0x1 DUP8 SUB MSTORE8 JUMPDEST POP POP POP POP POP POP POP DUP1 SWAP3 POP POP POP JUMPDEST SWAP2 SWAP1 POP JUMP JUMPDEST PUSH1 0x60 PUSH1 0x40 MLOAD DUP1 PUSH1 0x40 ADD PUSH1 0x40 MSTORE DUP1 PUSH1 0x1D DUP2 MSTORE PUSH1 0x20 ADD PUSH32 0x646174613A6170706C69636174696F6E2F6A736F6E3B6261736536342C000000 DUP2 MSTORE POP SWAP1 POP SWAP1 JUMP JUMPDEST PUSH1 0x0 PUSH1 0x2 PUSH1 0x0 DUP4 DUP2 MSTORE PUSH1 0x20 ADD SWAP1 DUP2 MSTORE PUSH1 0x20 ADD PUSH1 0x0 KECCAK256 PUSH1 0x0 SWAP1 SLOAD SWAP1 PUSH2 0x100 EXP SWAP1 DIV PUSH20 0xFFFFFFFFFFFFFFFFFFFFFFFFFFFFFFFFFFFFFFFF AND SWAP1 POP SWAP2 SWAP1 POP JUMP JUMPDEST DUP1 DUP1 PUSH2 0x2C09 JUMPI POP PUSH1 0x0 PUSH20 0xFFFFFFFFFFFFFFFFFFFFFFFFFFFFFFFFFFFFFFFF AND DUP3 PUSH20 0xFFFFFFFFFFFFFFFFFFFFFFFFFFFFFFFFFFFFFFFF AND EQ ISZERO JUMPDEST ISZERO PUSH2 0x2D3D JUMPI PUSH1 0x0 PUSH2 0x2C19 DUP5 PUSH2 0x1D5D JUMP JUMPDEST SWAP1 POP PUSH1 0x0 PUSH20 0xFFFFFFFFFFFFFFFFFFFFFFFFFFFFFFFFFFFFFFFF AND DUP4 PUSH20 0xFFFFFFFFFFFFFFFFFFFFFFFFFFFFFFFFFFFFFFFF AND EQ ISZERO DUP1 ISZERO PUSH2 0x2C84 JUMPI POP DUP3 PUSH20 0xFFFFFFFFFFFFFFFFFFFFFFFFFFFFFFFFFFFFFFFF AND DUP2 PUSH20 0xFFFFFFFFFFFFFFFFFFFFFFFFFFFFFFFFFFFFFFFF AND EQ ISZERO JUMPDEST DUP1 ISZERO PUSH2 0x2C97 JUMPI POP PUSH2 0x2C95 DUP2 DUP5 PUSH2 0x1B16 JUMP JUMPDEST ISZERO JUMPDEST ISZERO PUSH2 0x2CD9 JUMPI DUP3 PUSH1 0x40 MLOAD PUSH32 0xA9FBF51F00000000000000000000000000000000000000000000000000000000 DUP2 MSTORE PUSH1 0x4 ADD PUSH2 0x2CD0 SWAP2 SWAP1 PUSH2 0x3459 JUMP JUMPDEST PUSH1 0x40 MLOAD DUP1 SWAP2 SUB SWAP1 REVERT JUMPDEST DUP2 ISZERO PUSH2 0x2D3B JUMPI DUP4 DUP6 PUSH20 0xFFFFFFFFFFFFFFFFFFFFFFFFFFFFFFFFFFFFFFFF AND DUP3 PUSH20 0xFFFFFFFFFFFFFFFFFFFFFFFFFFFFFFFFFFFFFFFF AND PUSH32 0x8C5BE1E5EBEC7D5BD14F71427D1E84F3DD0314C0F7B2291E5B200AC8C7C3B925 PUSH1 0x40 MLOAD PUSH1 0x40 MLOAD DUP1 SWAP2 SUB SWAP1 LOG4 JUMPDEST POP JUMPDEST DUP4 PUSH1 0x4 PUSH1 0x0 DUP6 DUP2 MSTORE PUSH1 0x20 ADD SWAP1 DUP2 MSTORE PUSH1 0x20 ADD PUSH1 0x0 KECCAK256 PUSH1 0x0 PUSH2 0x100 EXP DUP2 SLOAD DUP2 PUSH20 0xFFFFFFFFFFFFFFFFFFFFFFFFFFFFFFFFFFFFFFFF MUL NOT AND SWAP1 DUP4 PUSH20 0xFFFFFFFFFFFFFFFFFFFFFFFFFFFFFFFFFFFFFFFF AND MUL OR SWAP1 SSTORE POP POP POP POP POP JUMP JUMPDEST PUSH2 0x2DA0 DUP4 DUP4 DUP4 PUSH2 0x2EBB JUMP JUMPDEST PUSH2 0x2E54 JUMPI PUSH1 0x0 PUSH20 0xFFFFFFFFFFFFFFFFFFFFFFFFFFFFFFFFFFFFFFFF AND DUP4 PUSH20 0xFFFFFFFFFFFFFFFFFFFFFFFFFFFFFFFFFFFFFFFF AND SUB PUSH2 0x2E15 JUMPI DUP1 PUSH1 0x40 MLOAD PUSH32 0x7E27328900000000000000000000000000000000000000000000000000000000 DUP2 MSTORE PUSH1 0x4 ADD PUSH2 0x2E0C SWAP2 SWAP1 PUSH2 0x3223 JUMP JUMPDEST PUSH1 0x40 MLOAD DUP1 SWAP2 SUB SWAP1 REVERT JUMPDEST DUP2 DUP2 PUSH1 0x40 MLOAD PUSH32 0x177E802F00000000000000000000000000000000000000000000000000000000 DUP2 MSTORE PUSH1 0x4 ADD PUSH2 0x2E4B SWAP3 SWAP2 SWAP1 PUSH2 0x55E8 JUMP JUMPDEST PUSH1 0x40 MLOAD DUP1 SWAP2 SUB SWAP1 REVERT JUMPDEST POP POP POP JUMP JUMPDEST PUSH2 0x2E63 DUP4 DUP4 PUSH2 0x2F7C JUMP JUMPDEST PUSH2 0x2E70 PUSH1 0x0 DUP5 DUP5 DUP5 PUSH2 0x242E JUMP JUMPDEST POP POP POP JUMP JUMPDEST PUSH1 0x0 PUSH1 0xA DUP3 PUSH1 0xF8 SHR PUSH1 0xFF AND LT ISZERO PUSH2 0x2EA0 JUMPI PUSH1 0x30 DUP3 PUSH1 0xF8 SHR PUSH2 0x2E96 SWAP2 SWAP1 PUSH2 0x5611 JUMP JUMPDEST PUSH1 0xF8 SHL SWAP1 POP PUSH2 0x2EB6 JUMP JUMPDEST PUSH1 0x57 DUP3 PUSH1 0xF8 SHR PUSH2 0x2EB0 SWAP2 SWAP1 PUSH2 0x5611 JUMP JUMPDEST PUSH1 0xF8 SHL SWAP1 POP JUMPDEST SWAP2 SWAP1 POP JUMP JUMPDEST PUSH1 0x0 DUP1 PUSH20 0xFFFFFFFFFFFFFFFFFFFFFFFFFFFFFFFFFFFFFFFF AND DUP4 PUSH20 0xFFFFFFFFFFFFFFFFFFFFFFFFFFFFFFFFFFFFFFFF AND EQ ISZERO DUP1 ISZERO PUSH2 0x2F73 JUMPI POP DUP3 PUSH20 0xFFFFFFFFFFFFFFFFFFFFFFFFFFFFFFFFFFFFFFFF AND DUP5 PUSH20 0xFFFFFFFFFFFFFFFFFFFFFFFFFFFFFFFFFFFFFFFF AND EQ DUP1 PUSH2 0x2F34 JUMPI POP PUSH2 0x2F33 DUP5 DUP5 PUSH2 0x1B16 JUMP JUMPDEST JUMPDEST DUP1 PUSH2 0x2F72 JUMPI POP DUP3 PUSH20 0xFFFFFFFFFFFFFFFFFFFFFFFFFFFFFFFFFFFFFFFF AND PUSH2 0x2F5A DUP4 PUSH2 0x1DE5 JUMP JUMPDEST PUSH20 0xFFFFFFFFFFFFFFFFFFFFFFFFFFFFFFFFFFFFFFFF AND EQ JUMPDEST JUMPDEST SWAP1 POP SWAP4 SWAP3 POP POP POP JUMP JUMPDEST PUSH1 0x0 PUSH20 0xFFFFFFFFFFFFFFFFFFFFFFFFFFFFFFFFFFFFFFFF AND DUP3 PUSH20 0xFFFFFFFFFFFFFFFFFFFFFFFFFFFFFFFFFFFFFFFF AND SUB PUSH2 0x2FEE JUMPI PUSH1 0x0 PUSH1 0x40 MLOAD PUSH32 0x64A0AE9200000000000000000000000000000000000000000000000000000000 DUP2 MSTORE PUSH1 0x4 ADD PUSH2 0x2FE5 SWAP2 SWAP1 PUSH2 0x3459 JUMP JUMPDEST PUSH1 0x40 MLOAD DUP1 SWAP2 SUB SWAP1 REVERT JUMPDEST PUSH1 0x0 PUSH2 0x2FFC DUP4 DUP4 PUSH1 0x0 PUSH2 0x1E3C JUMP JUMPDEST SWAP1 POP PUSH1 0x0 PUSH20 0xFFFFFFFFFFFFFFFFFFFFFFFFFFFFFFFFFFFFFFFF AND DUP2 PUSH20 0xFFFFFFFFFFFFFFFFFFFFFFFFFFFFFFFFFFFFFFFF AND EQ PUSH2 0x3070 JUMPI PUSH1 0x0 PUSH1 0x40 MLOAD PUSH32 0x73C6AC6E00000000000000000000000000000000000000000000000000000000 DUP2 MSTORE PUSH1 0x4 ADD PUSH2 0x3067 SWAP2 SWAP1 PUSH2 0x3459 JUMP JUMPDEST PUSH1 0x40 MLOAD DUP1 SWAP2 SUB SWAP1 REVERT JUMPDEST POP POP POP JUMP JUMPDEST DUP3 DUP1 SLOAD DUP3 DUP3 SSTORE SWAP1 PUSH1 0x0 MSTORE PUSH1 0x20 PUSH1 0x0 KECCAK256 SWAP1 PUSH1 0x1F ADD PUSH1 0x20 SWAP1 DIV DUP2 ADD SWAP3 DUP3 ISZERO PUSH2 0x310B JUMPI SWAP2 PUSH1 0x20 MUL DUP3 ADD PUSH1 0x0 JUMPDEST DUP4 DUP3 GT ISZERO PUSH2 0x30DC JUMPI DUP4 MLOAD DUP4 DUP3 PUSH2 0x100 EXP DUP2 SLOAD DUP2 PUSH1 0xFF MUL NOT AND SWAP1 DUP4 PUSH1 0xFF AND MUL OR SWAP1 SSTORE POP SWAP3 PUSH1 0x20 ADD SWAP3 PUSH1 0x1 ADD PUSH1 0x20 DUP2 PUSH1 0x0 ADD DIV SWAP3 DUP4 ADD SWAP3 PUSH1 0x1 SUB MUL PUSH2 0x309E JUMP JUMPDEST DUP1 ISZERO PUSH2 0x3109 JUMPI DUP3 DUP2 PUSH2 0x100 EXP DUP2 SLOAD SWAP1 PUSH1 0xFF MUL NOT AND SWAP1 SSTORE PUSH1 0x1 ADD PUSH1 0x20 DUP2 PUSH1 0x0 ADD DIV SWAP3 DUP4 ADD SWAP3 PUSH1 0x1 SUB MUL PUSH2 0x30DC JUMP JUMPDEST POP JUMPDEST POP SWAP1 POP PUSH2 0x3118 SWAP2 SWAP1 PUSH2 0x3162 JUMP JUMPDEST POP SWAP1 JUMP JUMPDEST POP DUP1 SLOAD PUSH1 0x0 DUP3 SSTORE PUSH1 0x2 MUL SWAP1 PUSH1 0x0 MSTORE PUSH1 0x20 PUSH1 0x0 KECCAK256 SWAP1 DUP2 ADD SWAP1 PUSH2 0x313D SWAP2 SWAP1 PUSH2 0x317F JUMP JUMPDEST POP JUMP JUMPDEST PUSH1 0x40 MLOAD DUP1 PUSH1 0x80 ADD PUSH1 0x40 MSTORE DUP1 PUSH1 0x4 SWAP1 PUSH1 0x20 DUP3 MUL DUP1 CALLDATASIZE DUP4 CALLDATACOPY DUP1 DUP3 ADD SWAP2 POP POP SWAP1 POP POP SWAP1 JUMP JUMPDEST JUMPDEST DUP1 DUP3 GT ISZERO PUSH2 0x317B JUMPI PUSH1 0x0 DUP2 PUSH1 0x0 SWAP1 SSTORE POP PUSH1 0x1 ADD PUSH2 0x3163 JUMP JUMPDEST POP SWAP1 JUMP JUMPDEST JUMPDEST DUP1 DUP3 GT ISZERO PUSH2 0x31DE JUMPI PUSH1 0x0 DUP1 DUP3 ADD PUSH1 0x0 PUSH2 0x3199 SWAP2 SWAP1 PUSH2 0x31E2 JUMP JUMPDEST PUSH1 0x1 DUP3 ADD PUSH1 0x0 PUSH2 0x100 EXP DUP2 SLOAD SWAP1 PUSH1 0xFF MUL NOT AND SWAP1 SSTORE PUSH1 0x1 DUP3 ADD PUSH1 0x1 PUSH2 0x100 EXP DUP2 SLOAD SWAP1 PUSH1 0xFF MUL NOT AND SWAP1 SSTORE PUSH1 0x1 DUP3 ADD PUSH1 0x2 PUSH2 0x100 EXP DUP2 SLOAD SWAP1 PUSH1 0xFF MUL NOT AND SWAP1 SSTORE POP PUSH1 0x2 ADD PUSH2 0x3180 JUMP JUMPDEST POP SWAP1 JUMP JUMPDEST POP DUP1 SLOAD PUSH1 0x0 DUP3 SSTORE PUSH1 0x1F ADD PUSH1 0x20 SWAP1 DIV SWAP1 PUSH1 0x0 MSTORE PUSH1 0x20 PUSH1 0x0 KECCAK256 SWAP1 DUP2 ADD SWAP1 PUSH2 0x3207 SWAP2 SWAP1 PUSH2 0x3162 JUMP JUMPDEST POP JUMP JUMPDEST PUSH1 0x0 DUP2 SWAP1 POP SWAP2 SWAP1 POP JUMP JUMPDEST PUSH2 0x321D DUP2 PUSH2 0x320A JUMP JUMPDEST DUP3 MSTORE POP POP JUMP JUMPDEST PUSH1 0x0 PUSH1 0x20 DUP3 ADD SWAP1 POP PUSH2 0x3238 PUSH1 0x0 DUP4 ADD DUP5 PUSH2 0x3214 JUMP JUMPDEST SWAP3 SWAP2 POP POP JUMP JUMPDEST PUSH1 0x0 PUSH1 0x40 MLOAD SWAP1 POP SWAP1 JUMP JUMPDEST PUSH1 0x0 DUP1 REVERT JUMPDEST PUSH1 0x0 DUP1 REVERT JUMPDEST PUSH1 0x0 PUSH32 0xFFFFFFFF00000000000000000000000000000000000000000000000000000000 DUP3 AND SWAP1 POP SWAP2 SWAP1 POP JUMP JUMPDEST PUSH2 0x3287 DUP2 PUSH2 0x3252 JUMP JUMPDEST DUP2 EQ PUSH2 0x3292 JUMPI PUSH1 0x0 DUP1 REVERT JUMPDEST POP JUMP JUMPDEST PUSH1 0x0 DUP2 CALLDATALOAD SWAP1 POP PUSH2 0x32A4 DUP2 PUSH2 0x327E JUMP JUMPDEST SWAP3 SWAP2 POP POP JUMP JUMPDEST PUSH1 0x0 PUSH1 0x20 DUP3 DUP5 SUB SLT ISZERO PUSH2 0x32C0 JUMPI PUSH2 0x32BF PUSH2 0x3248 JUMP JUMPDEST JUMPDEST PUSH1 0x0 PUSH2 0x32CE DUP5 DUP3 DUP6 ADD PUSH2 0x3295 JUMP JUMPDEST SWAP2 POP POP SWAP3 SWAP2 POP POP JUMP JUMPDEST PUSH1 0x0 DUP2 ISZERO ISZERO SWAP1 POP SWAP2 SWAP1 POP JUMP JUMPDEST PUSH2 0x32EC DUP2 PUSH2 0x32D7 JUMP JUMPDEST DUP3 MSTORE POP POP JUMP JUMPDEST PUSH1 0x0 PUSH1 0x20 DUP3 ADD SWAP1 POP PUSH2 0x3307 PUSH1 0x0 DUP4 ADD DUP5 PUSH2 0x32E3 JUMP JUMPDEST SWAP3 SWAP2 POP POP JUMP JUMPDEST PUSH1 0x0 DUP2 MLOAD SWAP1 POP SWAP2 SWAP1 POP JUMP JUMPDEST PUSH1 0x0 DUP3 DUP3 MSTORE PUSH1 0x20 DUP3 ADD SWAP1 POP SWAP3 SWAP2 POP POP JUMP JUMPDEST PUSH1 0x0 JUMPDEST DUP4 DUP2 LT ISZERO PUSH2 0x3347 JUMPI DUP1 DUP3 ADD MLOAD DUP2 DUP5 ADD MSTORE PUSH1 0x20 DUP2 ADD SWAP1 POP PUSH2 0x332C JUMP JUMPDEST PUSH1 0x0 DUP5 DUP5 ADD MSTORE POP POP POP POP JUMP JUMPDEST PUSH1 0x0 PUSH1 0x1F NOT PUSH1 0x1F DUP4 ADD AND SWAP1 POP SWAP2 SWAP1 POP JUMP JUMPDEST PUSH1 0x0 PUSH2 0x336F DUP3 PUSH2 0x330D JUMP JUMPDEST PUSH2 0x3379 DUP2 DUP6 PUSH2 0x3318 JUMP JUMPDEST SWAP4 POP PUSH2 0x3389 DUP2 DUP6 PUSH1 0x20 DUP7 ADD PUSH2 0x3329 JUMP JUMPDEST PUSH2 0x3392 DUP2 PUSH2 0x3353 JUMP JUMPDEST DUP5 ADD SWAP2 POP POP SWAP3 SWAP2 POP POP JUMP JUMPDEST PUSH1 0x0 PUSH1 0x20 DUP3 ADD SWAP1 POP DUP2 DUP2 SUB PUSH1 0x0 DUP4 ADD MSTORE PUSH2 0x33B7 DUP2 DUP5 PUSH2 0x3364 JUMP JUMPDEST SWAP1 POP SWAP3 SWAP2 POP POP JUMP JUMPDEST PUSH2 0x33C8 DUP2 PUSH2 0x320A JUMP JUMPDEST DUP2 EQ PUSH2 0x33D3 JUMPI PUSH1 0x0 DUP1 REVERT JUMPDEST POP JUMP JUMPDEST PUSH1 0x0 DUP2 CALLDATALOAD SWAP1 POP PUSH2 0x33E5 DUP2 PUSH2 0x33BF JUMP JUMPDEST SWAP3 SWAP2 POP POP JUMP JUMPDEST PUSH1 0x0 PUSH1 0x20 DUP3 DUP5 SUB SLT ISZERO PUSH2 0x3401 JUMPI PUSH2 0x3400 PUSH2 0x3248 JUMP JUMPDEST JUMPDEST PUSH1 0x0 PUSH2 0x340F DUP5 DUP3 DUP6 ADD PUSH2 0x33D6 JUMP JUMPDEST SWAP2 POP POP SWAP3 SWAP2 POP POP JUMP JUMPDEST PUSH1 0x0 PUSH20 0xFFFFFFFFFFFFFFFFFFFFFFFFFFFFFFFFFFFFFFFF DUP3 AND SWAP1 POP SWAP2 SWAP1 POP JUMP JUMPDEST PUSH1 0x0 PUSH2 0x3443 DUP3 PUSH2 0x3418 JUMP JUMPDEST SWAP1 POP SWAP2 SWAP1 POP JUMP JUMPDEST PUSH2 0x3453 DUP2 PUSH2 0x3438 JUMP JUMPDEST DUP3 MSTORE POP POP JUMP JUMPDEST PUSH1 0x0 PUSH1 0x20 DUP3 ADD SWAP1 POP PUSH2 0x346E PUSH1 0x0 DUP4 ADD DUP5 PUSH2 0x344A JUMP JUMPDEST SWAP3 SWAP2 POP POP JUMP JUMPDEST PUSH2 0x347D DUP2 PUSH2 0x3438 JUMP JUMPDEST DUP2 EQ PUSH2 0x3488 JUMPI PUSH1 0x0 DUP1 REVERT JUMPDEST POP JUMP JUMPDEST PUSH1 0x0 DUP2 CALLDATALOAD SWAP1 POP PUSH2 0x349A DUP2 PUSH2 0x3474 JUMP JUMPDEST SWAP3 SWAP2 POP POP JUMP JUMPDEST PUSH1 0x0 DUP1 PUSH1 0x40 DUP4 DUP6 SUB SLT ISZERO PUSH2 0x34B7 JUMPI PUSH2 0x34B6 PUSH2 0x3248 JUMP JUMPDEST JUMPDEST PUSH1 0x0 PUSH2 0x34C5 DUP6 DUP3 DUP7 ADD PUSH2 0x348B JUMP JUMPDEST SWAP3 POP POP PUSH1 0x20 PUSH2 0x34D6 DUP6 DUP3 DUP7 ADD PUSH2 0x33D6 JUMP JUMPDEST SWAP2 POP POP SWAP3 POP SWAP3 SWAP1 POP JUMP JUMPDEST PUSH1 0x0 PUSH1 0xFF DUP3 AND SWAP1 POP SWAP2 SWAP1 POP JUMP JUMPDEST PUSH2 0x34F6 DUP2 PUSH2 0x34E0 JUMP JUMPDEST DUP3 MSTORE POP POP JUMP JUMPDEST PUSH1 0x0 PUSH1 0x60 DUP3 ADD SWAP1 POP PUSH2 0x3511 PUSH1 0x0 DUP4 ADD DUP7 PUSH2 0x34ED JUMP JUMPDEST PUSH2 0x351E PUSH1 0x20 DUP4 ADD DUP6 PUSH2 0x34ED JUMP JUMPDEST PUSH2 0x352B PUSH1 0x40 DUP4 ADD DUP5 PUSH2 0x32E3 JUMP JUMPDEST SWAP5 SWAP4 POP POP POP POP JUMP JUMPDEST PUSH1 0x0 DUP1 PUSH1 0x0 PUSH1 0x60 DUP5 DUP7 SUB SLT ISZERO PUSH2 0x354C JUMPI PUSH2 0x354B PUSH2 0x3248 JUMP JUMPDEST JUMPDEST PUSH1 0x0 PUSH2 0x355A DUP7 DUP3 DUP8 ADD PUSH2 0x348B JUMP JUMPDEST SWAP4 POP POP PUSH1 0x20 PUSH2 0x356B DUP7 DUP3 DUP8 ADD PUSH2 0x348B JUMP JUMPDEST SWAP3 POP POP PUSH1 0x40 PUSH2 0x357C DUP7 DUP3 DUP8 ADD PUSH2 0x33D6 JUMP JUMPDEST SWAP2 POP POP SWAP3 POP SWAP3 POP SWAP3 JUMP JUMPDEST PUSH1 0x0 DUP1 REVERT JUMPDEST PUSH32 0x4E487B7100000000000000000000000000000000000000000000000000000000 PUSH1 0x0 MSTORE PUSH1 0x41 PUSH1 0x4 MSTORE PUSH1 0x24 PUSH1 0x0 REVERT JUMPDEST PUSH2 0x35C3 DUP3 PUSH2 0x3353 JUMP JUMPDEST DUP2 ADD DUP2 DUP2 LT PUSH8 0xFFFFFFFFFFFFFFFF DUP3 GT OR ISZERO PUSH2 0x35E2 JUMPI PUSH2 0x35E1 PUSH2 0x358B JUMP JUMPDEST JUMPDEST DUP1 PUSH1 0x40 MSTORE POP POP POP JUMP JUMPDEST PUSH1 0x0 PUSH2 0x35F5 PUSH2 0x323E JUMP JUMPDEST SWAP1 POP PUSH2 0x3601 DUP3 DUP3 PUSH2 0x35BA JUMP JUMPDEST SWAP2 SWAP1 POP JUMP JUMPDEST PUSH1 0x0 PUSH8 0xFFFFFFFFFFFFFFFF DUP3 GT ISZERO PUSH2 0x3621 JUMPI PUSH2 0x3620 PUSH2 0x358B JUMP JUMPDEST JUMPDEST PUSH1 0x20 DUP3 MUL SWAP1 POP PUSH1 0x20 DUP2 ADD SWAP1 POP SWAP2 SWAP1 POP JUMP JUMPDEST PUSH1 0x0 DUP1 REVERT JUMPDEST PUSH2 0x3640 DUP2 PUSH2 0x34E0 JUMP JUMPDEST DUP2 EQ PUSH2 0x364B JUMPI PUSH1 0x0 DUP1 REVERT JUMPDEST POP JUMP JUMPDEST PUSH1 0x0 DUP2 CALLDATALOAD SWAP1 POP PUSH2 0x365D DUP2 PUSH2 0x3637 JUMP JUMPDEST SWAP3 SWAP2 POP POP JUMP JUMPDEST PUSH1 0x0 PUSH2 0x3676 PUSH2 0x3671 DUP5 PUSH2 0x3606 JUMP JUMPDEST PUSH2 0x35EB JUMP JUMPDEST SWAP1 POP DUP1 DUP4 DUP3 MSTORE PUSH1 0x20 DUP3 ADD SWAP1 POP PUSH1 0x20 DUP5 MUL DUP4 ADD DUP6 DUP2 GT ISZERO PUSH2 0x3699 JUMPI PUSH2 0x3698 PUSH2 0x3632 JUMP JUMPDEST JUMPDEST DUP4 JUMPDEST DUP2 DUP2 LT ISZERO PUSH2 0x36C2 JUMPI DUP1 PUSH2 0x36AE DUP9 DUP3 PUSH2 0x364E JUMP JUMPDEST DUP5 MSTORE PUSH1 0x20 DUP5 ADD SWAP4 POP POP PUSH1 0x20 DUP2 ADD SWAP1 POP PUSH2 0x369B JUMP JUMPDEST POP POP POP SWAP4 SWAP3 POP POP POP JUMP JUMPDEST PUSH1 0x0 DUP3 PUSH1 0x1F DUP4 ADD SLT PUSH2 0x36E1 JUMPI PUSH2 0x36E0 PUSH2 0x3586 JUMP JUMPDEST JUMPDEST DUP2 CALLDATALOAD PUSH2 0x36F1 DUP5 DUP3 PUSH1 0x20 DUP7 ADD PUSH2 0x3663 JUMP JUMPDEST SWAP2 POP POP SWAP3 SWAP2 POP POP JUMP JUMPDEST PUSH1 0x0 PUSH1 0x20 DUP3 DUP5 SUB SLT ISZERO PUSH2 0x3710 JUMPI PUSH2 0x370F PUSH2 0x3248 JUMP JUMPDEST JUMPDEST PUSH1 0x0 DUP3 ADD CALLDATALOAD PUSH8 0xFFFFFFFFFFFFFFFF DUP2 GT ISZERO PUSH2 0x372E JUMPI PUSH2 0x372D PUSH2 0x324D JUMP JUMPDEST JUMPDEST PUSH2 0x373A DUP5 DUP3 DUP6 ADD PUSH2 0x36CC JUMP JUMPDEST SWAP2 POP POP SWAP3 SWAP2 POP POP JUMP JUMPDEST PUSH1 0x0 PUSH1 0x20 DUP3 DUP5 SUB SLT ISZERO PUSH2 0x3759 JUMPI PUSH2 0x3758 PUSH2 0x3248 JUMP JUMPDEST JUMPDEST PUSH1 0x0 PUSH2 0x3767 DUP5 DUP3 DUP6 ADD PUSH2 0x348B JUMP JUMPDEST SWAP2 POP POP SWAP3 SWAP2 POP POP JUMP JUMPDEST PUSH32 0x4E487B7100000000000000000000000000000000000000000000000000000000 PUSH1 0x0 MSTORE PUSH1 0x21 PUSH1 0x4 MSTORE PUSH1 0x24 PUSH1 0x0 REVERT JUMPDEST PUSH1 0x3 DUP2 LT PUSH2 0x37B0 JUMPI PUSH2 0x37AF PUSH2 0x3770 JUMP JUMPDEST JUMPDEST POP JUMP JUMPDEST PUSH1 0x0 DUP2 SWAP1 POP PUSH2 0x37C1 DUP3 PUSH2 0x379F JUMP JUMPDEST SWAP2 SWAP1 POP JUMP JUMPDEST PUSH1 0x0 PUSH2 0x37D1 DUP3 PUSH2 0x37B3 JUMP JUMPDEST SWAP1 POP SWAP2 SWAP1 POP JUMP JUMPDEST PUSH2 0x37E1 DUP2 PUSH2 0x37C6 JUMP JUMPDEST DUP3 MSTORE POP POP JUMP JUMPDEST PUSH1 0x0 PUSH1 0x20 DUP3 ADD SWAP1 POP PUSH2 0x37FC PUSH1 0x0 DUP4 ADD DUP5 PUSH2 0x37D8 JUMP JUMPDEST SWAP3 SWAP2 POP POP JUMP JUMPDEST PUSH1 0x0 DUP2 MLOAD SWAP1 POP SWAP2 SWAP1 POP JUMP JUMPDEST PUSH1 0x0 DUP3 DUP3 MSTORE PUSH1 0x20 DUP3 ADD SWAP1 POP SWAP3 SWAP2 POP POP JUMP JUMPDEST PUSH1 0x0 DUP2 SWAP1 POP PUSH1 0x20 DUP3 ADD SWAP1 POP SWAP2 SWAP1 POP JUMP JUMPDEST PUSH1 0x0 DUP2 MLOAD SWAP1 POP SWAP2 SWAP1 POP JUMP JUMPDEST PUSH1 0x0 DUP3 DUP3 MSTORE PUSH1 0x20 DUP3 ADD SWAP1 POP SWAP3 SWAP2 POP POP JUMP JUMPDEST PUSH1 0x0 DUP2 SWAP1 POP PUSH1 0x20 DUP3 ADD SWAP1 POP SWAP2 SWAP1 POP JUMP JUMPDEST PUSH2 0x3863 DUP2 PUSH2 0x34E0 JUMP JUMPDEST DUP3 MSTORE POP POP JUMP JUMPDEST PUSH1 0x0 PUSH2 0x3875 DUP4 DUP4 PUSH2 0x385A JUMP JUMPDEST PUSH1 0x20 DUP4 ADD SWAP1 POP SWAP3 SWAP2 POP POP JUMP JUMPDEST PUSH1 0x0 PUSH1 0x20 DUP3 ADD SWAP1 POP SWAP2 SWAP1 POP JUMP JUMPDEST PUSH1 0x0 PUSH2 0x3899 DUP3 PUSH2 0x382E JUMP JUMPDEST PUSH2 0x38A3 DUP2 DUP6 PUSH2 0x3839 JUMP JUMPDEST SWAP4 POP PUSH2 0x38AE DUP4 PUSH2 0x384A JUMP JUMPDEST DUP1 PUSH1 0x0 JUMPDEST DUP4 DUP2 LT ISZERO PUSH2 0x38DF JUMPI DUP2 MLOAD PUSH2 0x38C6 DUP9 DUP3 PUSH2 0x3869 JUMP JUMPDEST SWAP8 POP PUSH2 0x38D1 DUP4 PUSH2 0x3881 JUMP JUMPDEST SWAP3 POP POP PUSH1 0x1 DUP2 ADD SWAP1 POP PUSH2 0x38B2 JUMP JUMPDEST POP DUP6 SWAP4 POP POP POP POP SWAP3 SWAP2 POP POP JUMP JUMPDEST PUSH2 0x38F5 DUP2 PUSH2 0x32D7 JUMP JUMPDEST DUP3 MSTORE POP POP JUMP JUMPDEST PUSH1 0x0 PUSH1 0x80 DUP4 ADD PUSH1 0x0 DUP4 ADD MLOAD DUP5 DUP3 SUB PUSH1 0x0 DUP7 ADD MSTORE PUSH2 0x3918 DUP3 DUP3 PUSH2 0x388E JUMP JUMPDEST SWAP2 POP POP PUSH1 0x20 DUP4 ADD MLOAD PUSH2 0x392D PUSH1 0x20 DUP7 ADD DUP3 PUSH2 0x385A JUMP JUMPDEST POP PUSH1 0x40 DUP4 ADD MLOAD PUSH2 0x3940 PUSH1 0x40 DUP7 ADD DUP3 PUSH2 0x385A JUMP JUMPDEST POP PUSH1 0x60 DUP4 ADD MLOAD PUSH2 0x3953 PUSH1 0x60 DUP7 ADD DUP3 PUSH2 0x38EC JUMP JUMPDEST POP DUP1 SWAP2 POP POP SWAP3 SWAP2 POP POP JUMP JUMPDEST PUSH1 0x0 PUSH2 0x396A DUP4 DUP4 PUSH2 0x38FB JUMP JUMPDEST SWAP1 POP SWAP3 SWAP2 POP POP JUMP JUMPDEST PUSH1 0x0 PUSH1 0x20 DUP3 ADD SWAP1 POP SWAP2 SWAP1 POP JUMP JUMPDEST PUSH1 0x0 PUSH2 0x398A DUP3 PUSH2 0x3802 JUMP JUMPDEST PUSH2 0x3994 DUP2 DUP6 PUSH2 0x380D JUMP JUMPDEST SWAP4 POP DUP4 PUSH1 0x20 DUP3 MUL DUP6 ADD PUSH2 0x39A6 DUP6 PUSH2 0x381E JUMP JUMPDEST DUP1 PUSH1 0x0 JUMPDEST DUP6 DUP2 LT ISZERO PUSH2 0x39E2 JUMPI DUP5 DUP5 SUB DUP10 MSTORE DUP2 MLOAD PUSH2 0x39C3 DUP6 DUP3 PUSH2 0x395E JUMP JUMPDEST SWAP5 POP PUSH2 0x39CE DUP4 PUSH2 0x3972 JUMP JUMPDEST SWAP3 POP PUSH1 0x20 DUP11 ADD SWAP10 POP POP PUSH1 0x1 DUP2 ADD SWAP1 POP PUSH2 0x39AA JUMP JUMPDEST POP DUP3 SWAP8 POP DUP8 SWAP6 POP POP POP POP POP POP SWAP3 SWAP2 POP POP JUMP JUMPDEST PUSH1 0x0 PUSH1 0x20 DUP3 ADD SWAP1 POP DUP2 DUP2 SUB PUSH1 0x0 DUP4 ADD MSTORE PUSH2 0x3A0E DUP2 DUP5 PUSH2 0x397F JUMP JUMPDEST SWAP1 POP SWAP3 SWAP2 POP POP JUMP JUMPDEST PUSH2 0x3A1F DUP2 PUSH2 0x32D7 JUMP JUMPDEST DUP2 EQ PUSH2 0x3A2A JUMPI PUSH1 0x0 DUP1 REVERT JUMPDEST POP JUMP JUMPDEST PUSH1 0x0 DUP2 CALLDATALOAD SWAP1 POP PUSH2 0x3A3C DUP2 PUSH2 0x3A16 JUMP JUMPDEST SWAP3 SWAP2 POP POP JUMP JUMPDEST PUSH1 0x0 DUP1 PUSH1 0x40 DUP4 DUP6 SUB SLT ISZERO PUSH2 0x3A59 JUMPI PUSH2 0x3A58 PUSH2 0x3248 JUMP JUMPDEST JUMPDEST PUSH1 0x0 PUSH2 0x3A67 DUP6 DUP3 DUP7 ADD PUSH2 0x348B JUMP JUMPDEST SWAP3 POP POP PUSH1 0x20 PUSH2 0x3A78 DUP6 DUP3 DUP7 ADD PUSH2 0x3A2D JUMP JUMPDEST SWAP2 POP POP SWAP3 POP SWAP3 SWAP1 POP JUMP JUMPDEST PUSH1 0x0 DUP1 REVERT JUMPDEST PUSH1 0x0 PUSH8 0xFFFFFFFFFFFFFFFF DUP3 GT ISZERO PUSH2 0x3AA2 JUMPI PUSH2 0x3AA1 PUSH2 0x358B JUMP JUMPDEST JUMPDEST PUSH2 0x3AAB DUP3 PUSH2 0x3353 JUMP JUMPDEST SWAP1 POP PUSH1 0x20 DUP2 ADD SWAP1 POP SWAP2 SWAP1 POP JUMP JUMPDEST DUP3 DUP2 DUP4 CALLDATACOPY PUSH1 0x0 DUP4 DUP4 ADD MSTORE POP POP POP JUMP JUMPDEST PUSH1 0x0 PUSH2 0x3ADA PUSH2 0x3AD5 DUP5 PUSH2 0x3A87 JUMP JUMPDEST PUSH2 0x35EB JUMP JUMPDEST SWAP1 POP DUP3 DUP2 MSTORE PUSH1 0x20 DUP2 ADD DUP5 DUP5 DUP5 ADD GT ISZERO PUSH2 0x3AF6 JUMPI PUSH2 0x3AF5 PUSH2 0x3A82 JUMP JUMPDEST JUMPDEST PUSH2 0x3B01 DUP5 DUP3 DUP6 PUSH2 0x3AB8 JUMP JUMPDEST POP SWAP4 SWAP3 POP POP POP JUMP JUMPDEST PUSH1 0x0 DUP3 PUSH1 0x1F DUP4 ADD SLT PUSH2 0x3B1E JUMPI PUSH2 0x3B1D PUSH2 0x3586 JUMP JUMPDEST JUMPDEST DUP2 CALLDATALOAD PUSH2 0x3B2E DUP5 DUP3 PUSH1 0x20 DUP7 ADD PUSH2 0x3AC7 JUMP JUMPDEST SWAP2 POP POP SWAP3 SWAP2 POP POP JUMP JUMPDEST PUSH1 0x0 DUP1 PUSH1 0x0 DUP1 PUSH1 0x80 DUP6 DUP8 SUB SLT ISZERO PUSH2 0x3B51 JUMPI PUSH2 0x3B50 PUSH2 0x3248 JUMP JUMPDEST JUMPDEST PUSH1 0x0 PUSH2 0x3B5F DUP8 DUP3 DUP9 ADD PUSH2 0x348B JUMP JUMPDEST SWAP5 POP POP PUSH1 0x20 PUSH2 0x3B70 DUP8 DUP3 DUP9 ADD PUSH2 0x348B JUMP JUMPDEST SWAP4 POP POP PUSH1 0x40 PUSH2 0x3B81 DUP8 DUP3 DUP9 ADD PUSH2 0x33D6 JUMP JUMPDEST SWAP3 POP POP PUSH1 0x60 DUP6 ADD CALLDATALOAD PUSH8 0xFFFFFFFFFFFFFFFF DUP2 GT ISZERO PUSH2 0x3BA2 JUMPI PUSH2 0x3BA1 PUSH2 0x324D JUMP JUMPDEST JUMPDEST PUSH2 0x3BAE DUP8 DUP3 DUP9 ADD PUSH2 0x3B09 JUMP JUMPDEST SWAP2 POP POP SWAP3 SWAP6 SWAP2 SWAP5 POP SWAP3 POP JUMP JUMPDEST PUSH1 0x0 PUSH1 0x40 DUP3 ADD SWAP1 POP PUSH2 0x3BCF PUSH1 0x0 DUP4 ADD DUP6 PUSH2 0x34ED JUMP JUMPDEST PUSH2 0x3BDC PUSH1 0x20 DUP4 ADD DUP5 PUSH2 0x34ED JUMP JUMPDEST SWAP4 SWAP3 POP POP POP JUMP JUMPDEST PUSH1 0x0 DUP1 PUSH1 0x40 DUP4 DUP6 SUB SLT ISZERO PUSH2 0x3BFA JUMPI PUSH2 0x3BF9 PUSH2 0x3248 JUMP JUMPDEST JUMPDEST PUSH1 0x0 PUSH2 0x3C08 DUP6 DUP3 DUP7 ADD PUSH2 0x348B JUMP JUMPDEST SWAP3 POP POP PUSH1 0x20 PUSH2 0x3C19 DUP6 DUP3 DUP7 ADD PUSH2 0x348B JUMP JUMPDEST SWAP2 POP POP SWAP3 POP SWAP3 SWAP1 POP JUMP JUMPDEST PUSH1 0x0 DUP2 MLOAD SWAP1 POP SWAP2 SWAP1 POP JUMP JUMPDEST PUSH1 0x0 DUP3 DUP3 MSTORE PUSH1 0x20 DUP3 ADD SWAP1 POP SWAP3 SWAP2 POP POP JUMP JUMPDEST PUSH1 0x0 DUP2 SWAP1 POP PUSH1 0x20 DUP3 ADD SWAP1 POP SWAP2 SWAP1 POP JUMP JUMPDEST PUSH1 0x0 PUSH2 0x3C5B DUP4 DUP4 PUSH2 0x388E JUMP JUMPDEST SWAP1 POP SWAP3 SWAP2 POP POP JUMP JUMPDEST PUSH1 0x0 PUSH1 0x20 DUP3 ADD SWAP1 POP SWAP2 SWAP1 POP JUMP JUMPDEST PUSH1 0x0 PUSH2 0x3C7B DUP3 PUSH2 0x3C23 JUMP JUMPDEST PUSH2 0x3C85 DUP2 DUP6 PUSH2 0x3C2E JUMP JUMPDEST SWAP4 POP DUP4 PUSH1 0x20 DUP3 MUL DUP6 ADD PUSH2 0x3C97 DUP6 PUSH2 0x3C3F JUMP JUMPDEST DUP1 PUSH1 0x0 JUMPDEST DUP6 DUP2 LT ISZERO PUSH2 0x3CD3 JUMPI DUP5 DUP5 SUB DUP10 MSTORE DUP2 MLOAD PUSH2 0x3CB4 DUP6 DUP3 PUSH2 0x3C4F JUMP JUMPDEST SWAP5 POP PUSH2 0x3CBF DUP4 PUSH2 0x3C63 JUMP JUMPDEST SWAP3 POP PUSH1 0x20 DUP11 ADD SWAP10 POP POP PUSH1 0x1 DUP2 ADD SWAP1 POP PUSH2 0x3C9B JUMP JUMPDEST POP DUP3 SWAP8 POP DUP8 SWAP6 POP POP POP POP POP POP SWAP3 SWAP2 POP POP JUMP JUMPDEST PUSH1 0x0 PUSH1 0x20 DUP3 ADD SWAP1 POP DUP2 DUP2 SUB PUSH1 0x0 DUP4 ADD MSTORE PUSH2 0x3CFF DUP2 DUP5 PUSH2 0x3C70 JUMP JUMPDEST SWAP1 POP SWAP3 SWAP2 POP POP JUMP JUMPDEST PUSH32 0x4E487B7100000000000000000000000000000000000000000000000000000000 PUSH1 0x0 MSTORE PUSH1 0x22 PUSH1 0x4 MSTORE PUSH1 0x24 PUSH1 0x0 REVERT JUMPDEST PUSH1 0x0 PUSH1 0x2 DUP3 DIV SWAP1 POP PUSH1 0x1 DUP3 AND DUP1 PUSH2 0x3D4E JUMPI PUSH1 0x7F DUP3 AND SWAP2 POP JUMPDEST PUSH1 0x20 DUP3 LT DUP2 SUB PUSH2 0x3D61 JUMPI PUSH2 0x3D60 PUSH2 0x3D07 JUMP JUMPDEST JUMPDEST POP SWAP2 SWAP1 POP JUMP JUMPDEST PUSH1 0x0 PUSH1 0x60 DUP3 ADD SWAP1 POP PUSH2 0x3D7C PUSH1 0x0 DUP4 ADD DUP7 PUSH2 0x344A JUMP JUMPDEST PUSH2 0x3D89 PUSH1 0x20 DUP4 ADD DUP6 PUSH2 0x3214 JUMP JUMPDEST PUSH2 0x3D96 PUSH1 0x40 DUP4 ADD DUP5 PUSH2 0x344A JUMP JUMPDEST SWAP5 SWAP4 POP POP POP POP JUMP JUMPDEST PUSH32 0x4F6E6C792074686520636F64656D616B65722063616E2063616C6C2074686973 PUSH1 0x0 DUP3 ADD MSTORE PUSH32 0x2066756E6374696F6E0000000000000000000000000000000000000000000000 PUSH1 0x20 DUP3 ADD MSTORE POP JUMP JUMPDEST PUSH1 0x0 PUSH2 0x3DFA PUSH1 0x29 DUP4 PUSH2 0x3318 JUMP JUMPDEST SWAP2 POP PUSH2 0x3E05 DUP3 PUSH2 0x3D9E JUMP JUMPDEST PUSH1 0x40 DUP3 ADD SWAP1 POP SWAP2 SWAP1 POP JUMP JUMPDEST PUSH1 0x0 PUSH1 0x20 DUP3 ADD SWAP1 POP DUP2 DUP2 SUB PUSH1 0x0 DUP4 ADD MSTORE PUSH2 0x3E29 DUP2 PUSH2 0x3DED JUMP JUMPDEST SWAP1 POP SWAP2 SWAP1 POP JUMP JUMPDEST PUSH32 0x636F64656D616B65722061646472657373206D75737420626520736574000000 PUSH1 0x0 DUP3 ADD MSTORE POP JUMP JUMPDEST PUSH1 0x0 PUSH2 0x3E66 PUSH1 0x1D DUP4 PUSH2 0x3318 JUMP JUMPDEST SWAP2 POP PUSH2 0x3E71 DUP3 PUSH2 0x3E30 JUMP JUMPDEST PUSH1 0x20 DUP3 ADD SWAP1 POP SWAP2 SWAP1 POP JUMP JUMPDEST PUSH1 0x0 PUSH1 0x20 DUP3 ADD SWAP1 POP DUP2 DUP2 SUB PUSH1 0x0 DUP4 ADD MSTORE PUSH2 0x3E95 DUP2 PUSH2 0x3E59 JUMP JUMPDEST SWAP1 POP SWAP2 SWAP1 POP JUMP JUMPDEST PUSH32 0x436F6465627265616B65722061646472657373206D7573742062652073657400 PUSH1 0x0 DUP3 ADD MSTORE POP JUMP JUMPDEST PUSH1 0x0 PUSH2 0x3ED2 PUSH1 0x1F DUP4 PUSH2 0x3318 JUMP JUMPDEST SWAP2 POP PUSH2 0x3EDD DUP3 PUSH2 0x3E9C JUMP JUMPDEST PUSH1 0x20 DUP3 ADD SWAP1 POP SWAP2 SWAP1 POP JUMP JUMPDEST PUSH1 0x0 PUSH1 0x20 DUP3 ADD SWAP1 POP DUP2 DUP2 SUB PUSH1 0x0 DUP4 ADD MSTORE PUSH2 0x3F01 DUP2 PUSH2 0x3EC5 JUMP JUMPDEST SWAP1 POP SWAP2 SWAP1 POP JUMP JUMPDEST PUSH32 0x53656372657420636F6465206D757374206265203420646967697473206C6F6E PUSH1 0x0 DUP3 ADD MSTORE PUSH32 0x6700000000000000000000000000000000000000000000000000000000000000 PUSH1 0x20 DUP3 ADD MSTORE POP JUMP JUMPDEST PUSH1 0x0 PUSH2 0x3F64 PUSH1 0x21 DUP4 PUSH2 0x3318 JUMP JUMPDEST SWAP2 POP PUSH2 0x3F6F DUP3 PUSH2 0x3F08 JUMP JUMPDEST PUSH1 0x40 DUP3 ADD SWAP1 POP SWAP2 SWAP1 POP JUMP JUMPDEST PUSH1 0x0 PUSH1 0x20 DUP3 ADD SWAP1 POP DUP2 DUP2 SUB PUSH1 0x0 DUP4 ADD MSTORE PUSH2 0x3F93 DUP2 PUSH2 0x3F57 JUMP JUMPDEST SWAP1 POP SWAP2 SWAP1 POP JUMP JUMPDEST PUSH1 0x0 DUP2 SWAP1 POP SWAP3 SWAP2 POP POP JUMP JUMPDEST PUSH2 0x3FAE DUP2 PUSH2 0x34E0 JUMP JUMPDEST DUP3 MSTORE POP POP JUMP JUMPDEST PUSH1 0x0 PUSH2 0x3FC0 DUP4 DUP4 PUSH2 0x3FA5 JUMP JUMPDEST PUSH1 0x20 DUP4 ADD SWAP1 POP SWAP3 SWAP2 POP POP JUMP JUMPDEST PUSH1 0x0 PUSH2 0x3FD7 DUP3 PUSH2 0x382E JUMP JUMPDEST PUSH2 0x3FE1 DUP2 DUP6 PUSH2 0x3F9A JUMP JUMPDEST SWAP4 POP PUSH2 0x3FEC DUP4 PUSH2 0x384A JUMP JUMPDEST DUP1 PUSH1 0x0 JUMPDEST DUP4 DUP2 LT ISZERO PUSH2 0x401D JUMPI DUP2 MLOAD PUSH2 0x4004 DUP9 DUP3 PUSH2 0x3FB4 JUMP JUMPDEST SWAP8 POP PUSH2 0x400F DUP4 PUSH2 0x3881 JUMP JUMPDEST SWAP3 POP POP PUSH1 0x1 DUP2 ADD SWAP1 POP PUSH2 0x3FF0 JUMP JUMPDEST POP DUP6 SWAP4 POP POP POP POP SWAP3 SWAP2 POP POP JUMP JUMPDEST PUSH1 0x0 PUSH2 0x4036 DUP3 DUP5 PUSH2 0x3FCC JUMP JUMPDEST SWAP2 POP DUP2 SWAP1 POP SWAP3 SWAP2 POP POP JUMP JUMPDEST PUSH1 0x0 PUSH1 0x40 DUP3 ADD SWAP1 POP PUSH2 0x4056 PUSH1 0x0 DUP4 ADD DUP6 PUSH2 0x37D8 JUMP JUMPDEST PUSH2 0x4063 PUSH1 0x20 DUP4 ADD DUP5 PUSH2 0x3214 JUMP JUMPDEST SWAP4 SWAP3 POP POP POP JUMP JUMPDEST PUSH1 0x0 PUSH1 0x60 DUP3 ADD SWAP1 POP PUSH2 0x407F PUSH1 0x0 DUP4 ADD DUP7 PUSH2 0x3214 JUMP JUMPDEST PUSH2 0x408C PUSH1 0x20 DUP4 ADD DUP6 PUSH2 0x3214 JUMP JUMPDEST PUSH2 0x4099 PUSH1 0x40 DUP4 ADD DUP5 PUSH2 0x3214 JUMP JUMPDEST SWAP5 SWAP4 POP POP POP POP JUMP JUMPDEST PUSH32 0x47616D6520696E2073657373696F6E0000000000000000000000000000000000 PUSH1 0x0 DUP3 ADD MSTORE POP JUMP JUMPDEST PUSH1 0x0 PUSH2 0x40D7 PUSH1 0xF DUP4 PUSH2 0x3318 JUMP JUMPDEST SWAP2 POP PUSH2 0x40E2 DUP3 PUSH2 0x40A1 JUMP JUMPDEST PUSH1 0x20 DUP3 ADD SWAP1 POP SWAP2 SWAP1 POP JUMP JUMPDEST PUSH1 0x0 PUSH1 0x20 DUP3 ADD SWAP1 POP DUP2 DUP2 SUB PUSH1 0x0 DUP4 ADD MSTORE PUSH2 0x4106 DUP2 PUSH2 0x40CA JUMP JUMPDEST SWAP1 POP SWAP2 SWAP1 POP JUMP JUMPDEST PUSH32 0x4F6E6C792074686520636F6465627265616B65722063616E2063616C6C207468 PUSH1 0x0 DUP3 ADD MSTORE PUSH32 0x69732066756E6374696F6E000000000000000000000000000000000000000000 PUSH1 0x20 DUP3 ADD MSTORE POP JUMP JUMPDEST PUSH1 0x0 PUSH2 0x4169 PUSH1 0x2B DUP4 PUSH2 0x3318 JUMP JUMPDEST SWAP2 POP PUSH2 0x4174 DUP3 PUSH2 0x410D JUMP JUMPDEST PUSH1 0x40 DUP3 ADD SWAP1 POP SWAP2 SWAP1 POP JUMP JUMPDEST PUSH1 0x0 PUSH1 0x20 DUP3 ADD SWAP1 POP DUP2 DUP2 SUB PUSH1 0x0 DUP4 ADD MSTORE PUSH2 0x4198 DUP2 PUSH2 0x415C JUMP JUMPDEST SWAP1 POP SWAP2 SWAP1 POP JUMP JUMPDEST PUSH32 0x47616D65206973206E6F74206163746976650000000000000000000000000000 PUSH1 0x0 DUP3 ADD MSTORE POP JUMP JUMPDEST PUSH1 0x0 PUSH2 0x41D5 PUSH1 0x12 DUP4 PUSH2 0x3318 JUMP JUMPDEST SWAP2 POP PUSH2 0x41E0 DUP3 PUSH2 0x419F JUMP JUMPDEST PUSH1 0x20 DUP3 ADD SWAP1 POP SWAP2 SWAP1 POP JUMP JUMPDEST PUSH1 0x0 PUSH1 0x20 DUP3 ADD SWAP1 POP DUP2 DUP2 SUB PUSH1 0x0 DUP4 ADD MSTORE PUSH2 0x4204 DUP2 PUSH2 0x41C8 JUMP JUMPDEST SWAP1 POP SWAP2 SWAP1 POP JUMP JUMPDEST PUSH32 0x4775657373206D757374206265203420646967697473206C6F6E670000000000 PUSH1 0x0 DUP3 ADD MSTORE POP JUMP JUMPDEST PUSH1 0x0 PUSH2 0x4241 PUSH1 0x1B DUP4 PUSH2 0x3318 JUMP JUMPDEST SWAP2 POP PUSH2 0x424C DUP3 PUSH2 0x420B JUMP JUMPDEST PUSH1 0x20 DUP3 ADD SWAP1 POP SWAP2 SWAP1 POP JUMP JUMPDEST PUSH1 0x0 PUSH1 0x20 DUP3 ADD SWAP1 POP DUP2 DUP2 SUB PUSH1 0x0 DUP4 ADD MSTORE PUSH2 0x4270 DUP2 PUSH2 0x4234 JUMP JUMPDEST SWAP1 POP SWAP2 SWAP1 POP JUMP JUMPDEST PUSH32 0x4D6178696D756D206E756D626572206F66206775657373657320726561636865 PUSH1 0x0 DUP3 ADD MSTORE PUSH32 0x6400000000000000000000000000000000000000000000000000000000000000 PUSH1 0x20 DUP3 ADD MSTORE POP JUMP JUMPDEST PUSH1 0x0 PUSH2 0x42D3 PUSH1 0x21 DUP4 PUSH2 0x3318 JUMP JUMPDEST SWAP2 POP PUSH2 0x42DE DUP3 PUSH2 0x4277 JUMP JUMPDEST PUSH1 0x40 DUP3 ADD SWAP1 POP SWAP2 SWAP1 POP JUMP JUMPDEST PUSH1 0x0 PUSH1 0x20 DUP3 ADD SWAP1 POP DUP2 DUP2 SUB PUSH1 0x0 DUP4 ADD MSTORE PUSH2 0x4302 DUP2 PUSH2 0x42C6 JUMP JUMPDEST SWAP1 POP SWAP2 SWAP1 POP JUMP JUMPDEST PUSH1 0x0 DUP3 DUP3 MSTORE PUSH1 0x20 DUP3 ADD SWAP1 POP SWAP3 SWAP2 POP POP JUMP JUMPDEST PUSH1 0x0 PUSH2 0x4325 DUP3 PUSH2 0x382E JUMP JUMPDEST PUSH2 0x432F DUP2 DUP6 PUSH2 0x4309 JUMP JUMPDEST SWAP4 POP PUSH2 0x433A DUP4 PUSH2 0x384A JUMP JUMPDEST DUP1 PUSH1 0x0 JUMPDEST DUP4 DUP2 LT ISZERO PUSH2 0x436B JUMPI DUP2 MLOAD PUSH2 0x4352 DUP9 DUP3 PUSH2 0x3869 JUMP JUMPDEST SWAP8 POP PUSH2 0x435D DUP4 PUSH2 0x3881 JUMP JUMPDEST SWAP3 POP POP PUSH1 0x1 DUP2 ADD SWAP1 POP PUSH2 0x433E JUMP JUMPDEST POP DUP6 SWAP4 POP POP POP POP SWAP3 SWAP2 POP POP JUMP JUMPDEST PUSH1 0x0 PUSH1 0xA0 DUP3 ADD SWAP1 POP DUP2 DUP2 SUB PUSH1 0x0 DUP4 ADD MSTORE PUSH2 0x4392 DUP2 DUP9 PUSH2 0x431A JUMP JUMPDEST SWAP1 POP PUSH2 0x43A1 PUSH1 0x20 DUP4 ADD DUP8 PUSH2 0x34ED JUMP JUMPDEST PUSH2 0x43AE PUSH1 0x40 DUP4 ADD DUP7 PUSH2 0x34ED JUMP JUMPDEST PUSH2 0x43BB PUSH1 0x60 DUP4 ADD DUP6 PUSH2 0x32E3 JUMP JUMPDEST PUSH2 0x43C8 PUSH1 0x80 DUP4 ADD DUP5 PUSH2 0x3214 JUMP JUMPDEST SWAP7 SWAP6 POP POP POP POP POP POP JUMP JUMPDEST PUSH32 0x4E487B7100000000000000000000000000000000000000000000000000000000 PUSH1 0x0 MSTORE PUSH1 0x11 PUSH1 0x4 MSTORE PUSH1 0x24 PUSH1 0x0 REVERT JUMPDEST PUSH1 0x0 PUSH2 0x440C DUP3 PUSH2 0x320A JUMP JUMPDEST SWAP2 POP PUSH2 0x4417 DUP4 PUSH2 0x320A JUMP JUMPDEST SWAP3 POP DUP3 DUP3 ADD SWAP1 POP DUP1 DUP3 GT ISZERO PUSH2 0x442F JUMPI PUSH2 0x442E PUSH2 0x43D2 JUMP JUMPDEST JUMPDEST SWAP3 SWAP2 POP POP JUMP JUMPDEST PUSH1 0x0 PUSH2 0x4440 DUP3 PUSH2 0x320A JUMP JUMPDEST SWAP2 POP PUSH32 0xFFFFFFFFFFFFFFFFFFFFFFFFFFFFFFFFFFFFFFFFFFFFFFFFFFFFFFFFFFFFFFFF DUP3 SUB PUSH2 0x4472 JUMPI PUSH2 0x4471 PUSH2 0x43D2 JUMP JUMPDEST JUMPDEST PUSH1 0x1 DUP3 ADD SWAP1 POP SWAP2 SWAP1 POP JUMP JUMPDEST PUSH1 0x0 DUP2 SWAP1 POP SWAP3 SWAP2 POP POP JUMP JUMPDEST PUSH32 0x7B226E616D65223A224D61737465726D696E6420230000000000000000000000 PUSH1 0x0 DUP3 ADD MSTORE POP JUMP JUMPDEST PUSH1 0x0 PUSH2 0x44BE PUSH1 0x15 DUP4 PUSH2 0x447D JUMP JUMPDEST SWAP2 POP PUSH2 0x44C9 DUP3 PUSH2 0x4488 JUMP JUMPDEST PUSH1 0x15 DUP3 ADD SWAP1 POP SWAP2 SWAP1 POP JUMP JUMPDEST PUSH1 0x0 PUSH2 0x44DF DUP3 PUSH2 0x330D JUMP JUMPDEST PUSH2 0x44E9 DUP2 DUP6 PUSH2 0x447D JUMP JUMPDEST SWAP4 POP PUSH2 0x44F9 DUP2 DUP6 PUSH1 0x20 DUP7 ADD PUSH2 0x3329 JUMP JUMPDEST DUP1 DUP5 ADD SWAP2 POP POP SWAP3 SWAP2 POP POP JUMP JUMPDEST PUSH32 0x222C20226465736372697074696F6E223A22416E204E46542074686174207265 PUSH1 0x0 DUP3 ADD MSTORE PUSH32 0x666C6563747320746865206F7574636F6D65206F662061204D61737465726D69 PUSH1 0x20 DUP3 ADD MSTORE PUSH32 0x6E642067616D65222C2000000000000000000000000000000000000000000000 PUSH1 0x40 DUP3 ADD MSTORE POP JUMP JUMPDEST PUSH1 0x0 PUSH2 0x4587 PUSH1 0x4A DUP4 PUSH2 0x447D JUMP JUMPDEST SWAP2 POP PUSH2 0x4592 DUP3 PUSH2 0x4505 JUMP JUMPDEST PUSH1 0x4A DUP3 ADD SWAP1 POP SWAP2 SWAP1 POP JUMP JUMPDEST PUSH32 0x2261747472696275746573223A205B7B2274726169745F74797065223A202267 PUSH1 0x0 DUP3 ADD MSTORE PUSH32 0x616D655F726573756C74222C202276616C7565223A2022000000000000000000 PUSH1 0x20 DUP3 ADD MSTORE POP JUMP JUMPDEST PUSH1 0x0 PUSH2 0x45F9 PUSH1 0x37 DUP4 PUSH2 0x447D JUMP JUMPDEST SWAP2 POP PUSH2 0x4604 DUP3 PUSH2 0x459D JUMP JUMPDEST PUSH1 0x37 DUP3 ADD SWAP1 POP SWAP2 SWAP1 POP JUMP JUMPDEST PUSH32 0x227D2C207B2274726169745F74797065223A20226F776E6572222C202276616C PUSH1 0x0 DUP3 ADD MSTORE PUSH32 0x7565223A20220000000000000000000000000000000000000000000000000000 PUSH1 0x20 DUP3 ADD MSTORE POP JUMP JUMPDEST PUSH1 0x0 PUSH2 0x466B PUSH1 0x26 DUP4 PUSH2 0x447D JUMP JUMPDEST SWAP2 POP PUSH2 0x4676 DUP3 PUSH2 0x460F JUMP JUMPDEST PUSH1 0x26 DUP3 ADD SWAP1 POP SWAP2 SWAP1 POP JUMP JUMPDEST PUSH32 0x227D5D2C2022696D616765223A22000000000000000000000000000000000000 PUSH1 0x0 DUP3 ADD MSTORE POP JUMP JUMPDEST PUSH1 0x0 PUSH2 0x46B7 PUSH1 0xE DUP4 PUSH2 0x447D JUMP JUMPDEST SWAP2 POP PUSH2 0x46C2 DUP3 PUSH2 0x4681 JUMP JUMPDEST PUSH1 0xE DUP3 ADD SWAP1 POP SWAP2 SWAP1 POP JUMP JUMPDEST PUSH32 0x227D000000000000000000000000000000000000000000000000000000000000 PUSH1 0x0 DUP3 ADD MSTORE POP JUMP JUMPDEST PUSH1 0x0 PUSH2 0x4703 PUSH1 0x2 DUP4 PUSH2 0x447D JUMP JUMPDEST SWAP2 POP PUSH2 0x470E DUP3 PUSH2 0x46CD JUMP JUMPDEST PUSH1 0x2 DUP3 ADD SWAP1 POP SWAP2 SWAP1 POP JUMP JUMPDEST PUSH1 0x0 PUSH2 0x4724 DUP3 PUSH2 0x44B1 JUMP JUMPDEST SWAP2 POP PUSH2 0x4730 DUP3 DUP8 PUSH2 0x44D4 JUMP JUMPDEST SWAP2 POP PUSH2 0x473B DUP3 PUSH2 0x457A JUMP JUMPDEST SWAP2 POP PUSH2 0x4746 DUP3 PUSH2 0x45EC JUMP JUMPDEST SWAP2 POP PUSH2 0x4752 DUP3 DUP7 PUSH2 0x44D4 JUMP JUMPDEST SWAP2 POP PUSH2 0x475D DUP3 PUSH2 0x465E JUMP JUMPDEST SWAP2 POP PUSH2 0x4769 DUP3 DUP6 PUSH2 0x44D4 JUMP JUMPDEST SWAP2 POP PUSH2 0x4774 DUP3 PUSH2 0x46AA JUMP JUMPDEST SWAP2 POP PUSH2 0x4780 DUP3 DUP5 PUSH2 0x44D4 JUMP JUMPDEST SWAP2 POP PUSH2 0x478B DUP3 PUSH2 0x46F6 JUMP JUMPDEST SWAP2 POP DUP2 SWAP1 POP SWAP6 SWAP5 POP POP POP POP POP JUMP JUMPDEST PUSH1 0x0 PUSH2 0x47A5 DUP3 DUP6 PUSH2 0x44D4 JUMP JUMPDEST SWAP2 POP PUSH2 0x47B1 DUP3 DUP5 PUSH2 0x44D4 JUMP JUMPDEST SWAP2 POP DUP2 SWAP1 POP SWAP4 SWAP3 POP POP POP JUMP JUMPDEST PUSH32 0x4E6F2067756573736573206D6164652079657400000000000000000000000000 PUSH1 0x0 DUP3 ADD MSTORE POP JUMP JUMPDEST PUSH1 0x0 PUSH2 0x47F3 PUSH1 0x13 DUP4 PUSH2 0x3318 JUMP JUMPDEST SWAP2 POP PUSH2 0x47FE DUP3 PUSH2 0x47BD JUMP JUMPDEST PUSH1 0x20 DUP3 ADD SWAP1 POP SWAP2 SWAP1 POP JUMP JUMPDEST PUSH1 0x0 PUSH1 0x20 DUP3 ADD SWAP1 POP DUP2 DUP2 SUB PUSH1 0x0 DUP4 ADD MSTORE PUSH2 0x4822 DUP2 PUSH2 0x47E6 JUMP JUMPDEST SWAP1 POP SWAP2 SWAP1 POP JUMP JUMPDEST PUSH1 0x0 PUSH2 0x4834 DUP3 PUSH2 0x320A JUMP JUMPDEST SWAP2 POP PUSH2 0x483F DUP4 PUSH2 0x320A JUMP JUMPDEST SWAP3 POP DUP3 DUP3 SUB SWAP1 POP DUP2 DUP2 GT ISZERO PUSH2 0x4857 JUMPI PUSH2 0x4856 PUSH2 0x43D2 JUMP JUMPDEST JUMPDEST SWAP3 SWAP2 POP POP JUMP JUMPDEST PUSH32 0x4E487B7100000000000000000000000000000000000000000000000000000000 PUSH1 0x0 MSTORE PUSH1 0x32 PUSH1 0x4 MSTORE PUSH1 0x24 PUSH1 0x0 REVERT JUMPDEST PUSH1 0x0 PUSH2 0x4897 DUP3 PUSH2 0x34E0 JUMP JUMPDEST SWAP2 POP PUSH1 0xFF DUP3 SUB PUSH2 0x48AA JUMPI PUSH2 0x48A9 PUSH2 0x43D2 JUMP JUMPDEST JUMPDEST PUSH1 0x1 DUP3 ADD SWAP1 POP SWAP2 SWAP1 POP JUMP JUMPDEST PUSH1 0x0 DUP2 MLOAD SWAP1 POP SWAP2 SWAP1 POP JUMP JUMPDEST PUSH1 0x0 DUP3 DUP3 MSTORE PUSH1 0x20 DUP3 ADD SWAP1 POP SWAP3 SWAP2 POP POP JUMP JUMPDEST PUSH1 0x0 PUSH2 0x48DC DUP3 PUSH2 0x48B5 JUMP JUMPDEST PUSH2 0x48E6 DUP2 DUP6 PUSH2 0x48C0 JUMP JUMPDEST SWAP4 POP PUSH2 0x48F6 DUP2 DUP6 PUSH1 0x20 DUP7 ADD PUSH2 0x3329 JUMP JUMPDEST PUSH2 0x48FF DUP2 PUSH2 0x3353 JUMP JUMPDEST DUP5 ADD SWAP2 POP POP SWAP3 SWAP2 POP POP JUMP JUMPDEST PUSH1 0x0 PUSH1 0x80 DUP3 ADD SWAP1 POP PUSH2 0x491F PUSH1 0x0 DUP4 ADD DUP8 PUSH2 0x344A JUMP JUMPDEST PUSH2 0x492C PUSH1 0x20 DUP4 ADD DUP7 PUSH2 0x344A JUMP JUMPDEST PUSH2 0x4939 PUSH1 0x40 DUP4 ADD DUP6 PUSH2 0x3214 JUMP JUMPDEST DUP2 DUP2 SUB PUSH1 0x60 DUP4 ADD MSTORE PUSH2 0x494B DUP2 DUP5 PUSH2 0x48D1 JUMP JUMPDEST SWAP1 POP SWAP6 SWAP5 POP POP POP POP POP JUMP JUMPDEST PUSH1 0x0 DUP2 MLOAD SWAP1 POP PUSH2 0x4965 DUP2 PUSH2 0x327E JUMP JUMPDEST SWAP3 SWAP2 POP POP JUMP JUMPDEST PUSH1 0x0 PUSH1 0x20 DUP3 DUP5 SUB SLT ISZERO PUSH2 0x4981 JUMPI PUSH2 0x4980 PUSH2 0x3248 JUMP JUMPDEST JUMPDEST PUSH1 0x0 PUSH2 0x498F DUP5 DUP3 DUP6 ADD PUSH2 0x4956 JUMP JUMPDEST SWAP2 POP POP SWAP3 SWAP2 POP POP JUMP JUMPDEST PUSH32 0x3C7376672077696474683D2233303022206865696768743D223330302220786D PUSH1 0x0 DUP3 ADD MSTORE PUSH32 0x6C6E733D22687474703A2F2F7777772E77332E6F72672F323030302F73766722 PUSH1 0x20 DUP3 ADD MSTORE PUSH32 0x3E00000000000000000000000000000000000000000000000000000000000000 PUSH1 0x40 DUP3 ADD MSTORE POP JUMP JUMPDEST PUSH1 0x0 PUSH2 0x4A1A PUSH1 0x41 DUP4 PUSH2 0x447D JUMP JUMPDEST SWAP2 POP PUSH2 0x4A25 DUP3 PUSH2 0x4998 JUMP JUMPDEST PUSH1 0x41 DUP3 ADD SWAP1 POP SWAP2 SWAP1 POP JUMP JUMPDEST PUSH32 0x3C726563742077696474683D2233303022206865696768743D22333030222066 PUSH1 0x0 DUP3 ADD MSTORE PUSH32 0x696C6C3D2223336330613633222072783D223430222072793D22343022207374 PUSH1 0x20 DUP3 ADD MSTORE PUSH32 0x726F6B653D222366666437303022207374726F6B652D77696474683D22323022 PUSH1 0x40 DUP3 ADD MSTORE PUSH32 0x2F3E000000000000000000000000000000000000000000000000000000000000 PUSH1 0x60 DUP3 ADD MSTORE POP JUMP JUMPDEST PUSH1 0x0 PUSH2 0x4AD8 PUSH1 0x62 DUP4 PUSH2 0x447D JUMP JUMPDEST SWAP2 POP PUSH2 0x4AE3 DUP3 PUSH2 0x4A30 JUMP JUMPDEST PUSH1 0x62 DUP3 ADD SWAP1 POP SWAP2 SWAP1 POP JUMP JUMPDEST PUSH32 0x3C636972636C652063783D22313530222063793D2236302220723D2233302220 PUSH1 0x0 DUP3 ADD MSTORE PUSH32 0x66696C6C3D2223303063666666222F3E00000000000000000000000000000000 PUSH1 0x20 DUP3 ADD MSTORE POP JUMP JUMPDEST PUSH1 0x0 PUSH2 0x4B4A PUSH1 0x30 DUP4 PUSH2 0x447D JUMP JUMPDEST SWAP2 POP PUSH2 0x4B55 DUP3 PUSH2 0x4AEE JUMP JUMPDEST PUSH1 0x30 DUP3 ADD SWAP1 POP SWAP2 SWAP1 POP JUMP JUMPDEST PUSH32 0x3C636972636C652063783D223630222063793D223135302220723D2233302220 PUSH1 0x0 DUP3 ADD MSTORE PUSH32 0x66696C6C3D2223303066663537222F3E00000000000000000000000000000000 PUSH1 0x20 DUP3 ADD MSTORE POP JUMP JUMPDEST PUSH1 0x0 PUSH2 0x4BBC PUSH1 0x30 DUP4 PUSH2 0x447D JUMP JUMPDEST SWAP2 POP PUSH2 0x4BC7 DUP3 PUSH2 0x4B60 JUMP JUMPDEST PUSH1 0x30 DUP3 ADD SWAP1 POP SWAP2 SWAP1 POP JUMP JUMPDEST PUSH32 0x3C636972636C652063783D22313530222063793D223234302220723D22333022 PUSH1 0x0 DUP3 ADD MSTORE PUSH32 0x2066696C6C3D2223666635633563222F3E000000000000000000000000000000 PUSH1 0x20 DUP3 ADD MSTORE POP JUMP JUMPDEST PUSH1 0x0 PUSH2 0x4C2E PUSH1 0x31 DUP4 PUSH2 0x447D JUMP JUMPDEST SWAP2 POP PUSH2 0x4C39 DUP3 PUSH2 0x4BD2 JUMP JUMPDEST PUSH1 0x31 DUP3 ADD SWAP1 POP SWAP2 SWAP1 POP JUMP JUMPDEST PUSH32 0x3C636972636C652063783D22323430222063793D223135302220723D22333022 PUSH1 0x0 DUP3 ADD MSTORE PUSH32 0x2066696C6C3D2223623235636666222F3E000000000000000000000000000000 PUSH1 0x20 DUP3 ADD MSTORE POP JUMP JUMPDEST PUSH1 0x0 PUSH2 0x4CA0 PUSH1 0x31 DUP4 PUSH2 0x447D JUMP JUMPDEST SWAP2 POP PUSH2 0x4CAB DUP3 PUSH2 0x4C44 JUMP JUMPDEST PUSH1 0x31 DUP3 ADD SWAP1 POP SWAP2 SWAP1 POP JUMP JUMPDEST PUSH32 0x3C636972636C652063783D223630222063793D2236302220723D223330222066 PUSH1 0x0 DUP3 ADD MSTORE PUSH32 0x696C6C3D2223666639623030222F3E0000000000000000000000000000000000 PUSH1 0x20 DUP3 ADD MSTORE POP JUMP JUMPDEST PUSH1 0x0 PUSH2 0x4D12 PUSH1 0x2F DUP4 PUSH2 0x447D JUMP JUMPDEST SWAP2 POP PUSH2 0x4D1D DUP3 PUSH2 0x4CB6 JUMP JUMPDEST PUSH1 0x2F DUP3 ADD SWAP1 POP SWAP2 SWAP1 POP JUMP JUMPDEST PUSH32 0x3C636972636C652063783D22323430222063793D2236302220723D2233302220 PUSH1 0x0 DUP3 ADD MSTORE PUSH32 0x66696C6C3D2223666635636632222F3E00000000000000000000000000000000 PUSH1 0x20 DUP3 ADD MSTORE POP JUMP JUMPDEST PUSH1 0x0 PUSH2 0x4D84 PUSH1 0x30 DUP4 PUSH2 0x447D JUMP JUMPDEST SWAP2 POP PUSH2 0x4D8F DUP3 PUSH2 0x4D28 JUMP JUMPDEST PUSH1 0x30 DUP3 ADD SWAP1 POP SWAP2 SWAP1 POP JUMP JUMPDEST PUSH32 0x3C636972636C652063783D22323430222063793D223234302220723D22333022 PUSH1 0x0 DUP3 ADD MSTORE PUSH32 0x2066696C6C3D2223666639623030222F3E000000000000000000000000000000 PUSH1 0x20 DUP3 ADD MSTORE POP JUMP JUMPDEST PUSH1 0x0 PUSH2 0x4DF6 PUSH1 0x31 DUP4 PUSH2 0x447D JUMP JUMPDEST SWAP2 POP PUSH2 0x4E01 DUP3 PUSH2 0x4D9A JUMP JUMPDEST PUSH1 0x31 DUP3 ADD SWAP1 POP SWAP2 SWAP1 POP JUMP JUMPDEST PUSH32 0x3C636972636C652063783D223630222063793D223234302220723D2233302220 PUSH1 0x0 DUP3 ADD MSTORE PUSH32 0x66696C6C3D2223666663663030222F3E00000000000000000000000000000000 PUSH1 0x20 DUP3 ADD MSTORE POP JUMP JUMPDEST PUSH1 0x0 PUSH2 0x4E68 PUSH1 0x30 DUP4 PUSH2 0x447D JUMP JUMPDEST SWAP2 POP PUSH2 0x4E73 DUP3 PUSH2 0x4E0C JUMP JUMPDEST PUSH1 0x30 DUP3 ADD SWAP1 POP SWAP2 SWAP1 POP JUMP JUMPDEST PUSH32 0x3C7465787420783D223135302220793D223136352220666F6E742D66616D696C PUSH1 0x0 DUP3 ADD MSTORE PUSH32 0x793D22417269616C2220666F6E742D73697A653D223732222066696C6C3D2223 PUSH1 0x20 DUP3 ADD MSTORE PUSH32 0x6335363866662220746578742D616E63686F723D226D6964646C652220646F6D PUSH1 0x40 DUP3 ADD MSTORE PUSH32 0x696E616E742D626173656C696E653D226D6964646C65223E6D3C2F746578743E PUSH1 0x60 DUP3 ADD MSTORE POP JUMP JUMPDEST PUSH1 0x0 PUSH2 0x4F26 PUSH1 0x80 DUP4 PUSH2 0x447D JUMP JUMPDEST SWAP2 POP PUSH2 0x4F31 DUP3 PUSH2 0x4E7E JUMP JUMPDEST PUSH1 0x80 DUP3 ADD SWAP1 POP SWAP2 SWAP1 POP JUMP JUMPDEST PUSH32 0x3C7465787420783D2231302220793D223238302220666F6E742D66616D696C79 PUSH1 0x0 DUP3 ADD MSTORE PUSH32 0x3D22417269616C2220666F6E742D73697A653D223136222066696C6C3D22626C PUSH1 0x20 DUP3 ADD MSTORE PUSH32 0x61636B223E000000000000000000000000000000000000000000000000000000 PUSH1 0x40 DUP3 ADD MSTORE POP JUMP JUMPDEST PUSH1 0x0 PUSH2 0x4FBE PUSH1 0x45 DUP4 PUSH2 0x447D JUMP JUMPDEST SWAP2 POP PUSH2 0x4FC9 DUP3 PUSH2 0x4F3C JUMP JUMPDEST PUSH1 0x45 DUP3 ADD SWAP1 POP SWAP2 SWAP1 POP JUMP JUMPDEST PUSH32 0x47616D6520526573756C743A2000000000000000000000000000000000000000 PUSH1 0x0 DUP3 ADD MSTORE POP JUMP JUMPDEST PUSH1 0x0 PUSH2 0x500A PUSH1 0xD DUP4 PUSH2 0x447D JUMP JUMPDEST SWAP2 POP PUSH2 0x5015 DUP3 PUSH2 0x4FD4 JUMP JUMPDEST PUSH1 0xD DUP3 ADD SWAP1 POP SWAP2 SWAP1 POP JUMP JUMPDEST PUSH32 0x3C2F746578743E00000000000000000000000000000000000000000000000000 PUSH1 0x0 DUP3 ADD MSTORE POP JUMP JUMPDEST PUSH1 0x0 PUSH2 0x5056 PUSH1 0x7 DUP4 PUSH2 0x447D JUMP JUMPDEST SWAP2 POP PUSH2 0x5061 DUP3 PUSH2 0x5020 JUMP JUMPDEST PUSH1 0x7 DUP3 ADD SWAP1 POP SWAP2 SWAP1 POP JUMP JUMPDEST PUSH32 0x3C7465787420783D2231302220793D223239352220666F6E742D66616D696C79 PUSH1 0x0 DUP3 ADD MSTORE PUSH32 0x3D22417269616C2220666F6E742D73697A653D223136222066696C6C3D22626C PUSH1 0x20 DUP3 ADD MSTORE PUSH32 0x61636B223E000000000000000000000000000000000000000000000000000000 PUSH1 0x40 DUP3 ADD MSTORE POP JUMP JUMPDEST PUSH1 0x0 PUSH2 0x50EE PUSH1 0x45 DUP4 PUSH2 0x447D JUMP JUMPDEST SWAP2 POP PUSH2 0x50F9 DUP3 PUSH2 0x506C JUMP JUMPDEST PUSH1 0x45 DUP3 ADD SWAP1 POP SWAP2 SWAP1 POP JUMP JUMPDEST PUSH32 0x546F6B656E2049443A2000000000000000000000000000000000000000000000 PUSH1 0x0 DUP3 ADD MSTORE POP JUMP JUMPDEST PUSH1 0x0 PUSH2 0x513A PUSH1 0xA DUP4 PUSH2 0x447D JUMP JUMPDEST SWAP2 POP PUSH2 0x5145 DUP3 PUSH2 0x5104 JUMP JUMPDEST PUSH1 0xA DUP3 ADD SWAP1 POP SWAP2 SWAP1 POP JUMP JUMPDEST PUSH32 0x3C2F7376673E0000000000000000000000000000000000000000000000000000 PUSH1 0x0 DUP3 ADD MSTORE POP JUMP JUMPDEST PUSH1 0x0 PUSH2 0x5186 PUSH1 0x6 DUP4 PUSH2 0x447D JUMP JUMPDEST SWAP2 POP PUSH2 0x5191 DUP3 PUSH2 0x5150 JUMP JUMPDEST PUSH1 0x6 DUP3 ADD SWAP1 POP SWAP2 SWAP1 POP JUMP JUMPDEST PUSH1 0x0 PUSH2 0x51A7 DUP3 PUSH2 0x4A0D JUMP JUMPDEST SWAP2 POP PUSH2 0x51B2 DUP3 PUSH2 0x4ACB JUMP JUMPDEST SWAP2 POP PUSH2 0x51BD DUP3 PUSH2 0x4B3D JUMP JUMPDEST SWAP2 POP PUSH2 0x51C8 DUP3 PUSH2 0x4BAF JUMP JUMPDEST SWAP2 POP PUSH2 0x51D3 DUP3 PUSH2 0x4C21 JUMP JUMPDEST SWAP2 POP PUSH2 0x51DE DUP3 PUSH2 0x4C93 JUMP JUMPDEST SWAP2 POP PUSH2 0x51E9 DUP3 PUSH2 0x4D05 JUMP JUMPDEST SWAP2 POP PUSH2 0x51F4 DUP3 PUSH2 0x4D77 JUMP JUMPDEST SWAP2 POP PUSH2 0x51FF DUP3 PUSH2 0x4DE9 JUMP JUMPDEST SWAP2 POP PUSH2 0x520A DUP3 PUSH2 0x4E5B JUMP JUMPDEST SWAP2 POP PUSH2 0x5215 DUP3 PUSH2 0x4F19 JUMP JUMPDEST SWAP2 POP PUSH2 0x5220 DUP3 PUSH2 0x4FB1 JUMP JUMPDEST SWAP2 POP PUSH2 0x522B DUP3 PUSH2 0x4FFD JUMP JUMPDEST SWAP2 POP PUSH2 0x5237 DUP3 DUP6 PUSH2 0x44D4 JUMP JUMPDEST SWAP2 POP PUSH2 0x5242 DUP3 PUSH2 0x5049 JUMP JUMPDEST SWAP2 POP PUSH2 0x524D DUP3 PUSH2 0x50E1 JUMP JUMPDEST SWAP2 POP PUSH2 0x5258 DUP3 PUSH2 0x512D JUMP JUMPDEST SWAP2 POP PUSH2 0x5264 DUP3 DUP5 PUSH2 0x44D4 JUMP JUMPDEST SWAP2 POP PUSH2 0x526F DUP3 PUSH2 0x5049 JUMP JUMPDEST SWAP2 POP PUSH2 0x527A DUP3 PUSH2 0x5179 JUMP JUMPDEST SWAP2 POP DUP2 SWAP1 POP SWAP4 SWAP3 POP POP POP JUMP JUMPDEST PUSH32 0x646174613A696D6167652F7376672B786D6C3B6261736536342C000000000000 PUSH1 0x0 DUP3 ADD MSTORE POP JUMP JUMPDEST PUSH1 0x0 PUSH2 0x52BC PUSH1 0x1A DUP4 PUSH2 0x447D JUMP JUMPDEST SWAP2 POP PUSH2 0x52C7 DUP3 PUSH2 0x5286 JUMP JUMPDEST PUSH1 0x1A DUP3 ADD SWAP1 POP SWAP2 SWAP1 POP JUMP JUMPDEST PUSH1 0x0 PUSH2 0x52DD DUP3 PUSH2 0x52AF JUMP JUMPDEST SWAP2 POP PUSH2 0x52E9 DUP3 DUP5 PUSH2 0x44D4 JUMP JUMPDEST SWAP2 POP DUP2 SWAP1 POP SWAP3 SWAP2 POP POP JUMP JUMPDEST PUSH32 0x4E487B7100000000000000000000000000000000000000000000000000000000 PUSH1 0x0 MSTORE PUSH1 0x12 PUSH1 0x4 MSTORE PUSH1 0x24 PUSH1 0x0 REVERT JUMPDEST PUSH1 0x0 PUSH2 0x532E DUP3 PUSH2 0x320A JUMP JUMPDEST SWAP2 POP PUSH2 0x5339 DUP4 PUSH2 0x320A JUMP JUMPDEST SWAP3 POP DUP3 PUSH2 0x5349 JUMPI PUSH2 0x5348 PUSH2 0x52F4 JUMP JUMPDEST JUMPDEST DUP3 DUP3 MOD SWAP1 POP SWAP3 SWAP2 POP POP JUMP JUMPDEST PUSH1 0x0 PUSH2 0x535F DUP3 PUSH2 0x320A JUMP JUMPDEST SWAP2 POP PUSH2 0x536A DUP4 PUSH2 0x320A JUMP JUMPDEST SWAP3 POP DUP3 PUSH2 0x537A JUMPI PUSH2 0x5379 PUSH2 0x52F4 JUMP JUMPDEST JUMPDEST DUP3 DUP3 DIV SWAP1 POP SWAP3 SWAP2 POP POP JUMP JUMPDEST PUSH1 0x0 PUSH2 0x5390 DUP3 PUSH2 0x320A JUMP JUMPDEST SWAP2 POP PUSH2 0x539B DUP4 PUSH2 0x320A JUMP JUMPDEST SWAP3 POP DUP3 DUP3 MUL PUSH2 0x53A9 DUP2 PUSH2 0x320A JUMP JUMPDEST SWAP2 POP DUP3 DUP3 DIV DUP5 EQ DUP4 ISZERO OR PUSH2 0x53C0 JUMPI PUSH2 0x53BF PUSH2 0x43D2 JUMP JUMPDEST JUMPDEST POP SWAP3 SWAP2 POP POP JUMP JUMPDEST PUSH1 0x0 DUP2 PUSH1 0x1 SHR SWAP1 POP SWAP2 SWAP1 POP JUMP JUMPDEST PUSH1 0x0 DUP1 DUP3 SWAP2 POP DUP4 SWAP1 POP JUMPDEST PUSH1 0x1 DUP6 GT ISZERO PUSH2 0x541E JUMPI DUP1 DUP7 DIV DUP2 GT ISZERO PUSH2 0x53FA JUMPI PUSH2 0x53F9 PUSH2 0x43D2 JUMP JUMPDEST JUMPDEST PUSH1 0x1 DUP6 AND ISZERO PUSH2 0x5409 JUMPI DUP1 DUP3 MUL SWAP2 POP JUMPDEST DUP1 DUP2 MUL SWAP1 POP PUSH2 0x5417 DUP6 PUSH2 0x53C7 JUMP JUMPDEST SWAP5 POP PUSH2 0x53DE JUMP JUMPDEST SWAP5 POP SWAP5 SWAP3 POP POP POP JUMP JUMPDEST PUSH1 0x0 DUP3 PUSH2 0x5437 JUMPI PUSH1 0x1 SWAP1 POP PUSH2 0x54F3 JUMP JUMPDEST DUP2 PUSH2 0x5445 JUMPI PUSH1 0x0 SWAP1 POP PUSH2 0x54F3 JUMP JUMPDEST DUP2 PUSH1 0x1 DUP2 EQ PUSH2 0x545B JUMPI PUSH1 0x2 DUP2 EQ PUSH2 0x5465 JUMPI PUSH2 0x5494 JUMP JUMPDEST PUSH1 0x1 SWAP2 POP POP PUSH2 0x54F3 JUMP JUMPDEST PUSH1 0xFF DUP5 GT ISZERO PUSH2 0x5477 JUMPI PUSH2 0x5476 PUSH2 0x43D2 JUMP JUMPDEST JUMPDEST DUP4 PUSH1 0x2 EXP SWAP2 POP DUP5 DUP3 GT ISZERO PUSH2 0x548E JUMPI PUSH2 0x548D PUSH2 0x43D2 JUMP JUMPDEST JUMPDEST POP PUSH2 0x54F3 JUMP JUMPDEST POP PUSH1 0x20 DUP4 LT PUSH2 0x133 DUP4 LT AND PUSH1 0x4E DUP5 LT PUSH1 0xB DUP5 LT AND OR ISZERO PUSH2 0x54C9 JUMPI DUP3 DUP3 EXP SWAP1 POP DUP4 DUP2 GT ISZERO PUSH2 0x54C4 JUMPI PUSH2 0x54C3 PUSH2 0x43D2 JUMP JUMPDEST JUMPDEST PUSH2 0x54F3 JUMP JUMPDEST PUSH2 0x54D6 DUP5 DUP5 DUP5 PUSH1 0x1 PUSH2 0x53D4 JUMP JUMPDEST SWAP3 POP SWAP1 POP DUP2 DUP5 DIV DUP2 GT ISZERO PUSH2 0x54ED JUMPI PUSH2 0x54EC PUSH2 0x43D2 JUMP JUMPDEST JUMPDEST DUP2 DUP2 MUL SWAP1 POP JUMPDEST SWAP4 SWAP3 POP POP POP JUMP JUMPDEST PUSH1 0x0 PUSH2 0x5505 DUP3 PUSH2 0x320A JUMP JUMPDEST SWAP2 POP PUSH2 0x5510 DUP4 PUSH2 0x320A JUMP JUMPDEST SWAP3 POP PUSH2 0x553D PUSH32 0xFFFFFFFFFFFFFFFFFFFFFFFFFFFFFFFFFFFFFFFFFFFFFFFFFFFFFFFFFFFFFFFF DUP5 DUP5 PUSH2 0x5427 JUMP JUMPDEST SWAP1 POP SWAP3 SWAP2 POP POP JUMP JUMPDEST PUSH1 0x0 PUSH2 0x5550 DUP3 PUSH2 0x34E0 JUMP JUMPDEST SWAP2 POP PUSH2 0x555B DUP4 PUSH2 0x34E0 JUMP JUMPDEST SWAP3 POP DUP3 PUSH2 0x556B JUMPI PUSH2 0x556A PUSH2 0x52F4 JUMP JUMPDEST JUMPDEST DUP3 DUP3 DIV SWAP1 POP SWAP3 SWAP2 POP POP JUMP JUMPDEST PUSH1 0x0 PUSH2 0x5581 DUP3 PUSH2 0x34E0 JUMP JUMPDEST SWAP2 POP PUSH2 0x558C DUP4 PUSH2 0x34E0 JUMP JUMPDEST SWAP3 POP DUP3 DUP3 MUL PUSH2 0x559A DUP2 PUSH2 0x34E0 JUMP JUMPDEST SWAP2 POP DUP1 DUP3 EQ PUSH2 0x55AC JUMPI PUSH2 0x55AB PUSH2 0x43D2 JUMP JUMPDEST JUMPDEST POP SWAP3 SWAP2 POP POP JUMP JUMPDEST PUSH1 0x0 PUSH2 0x55BE DUP3 PUSH2 0x34E0 JUMP JUMPDEST SWAP2 POP PUSH2 0x55C9 DUP4 PUSH2 0x34E0 JUMP JUMPDEST SWAP3 POP DUP3 DUP3 SUB SWAP1 POP PUSH1 0xFF DUP2 GT ISZERO PUSH2 0x55E2 JUMPI PUSH2 0x55E1 PUSH2 0x43D2 JUMP JUMPDEST JUMPDEST SWAP3 SWAP2 POP POP JUMP JUMPDEST PUSH1 0x0 PUSH1 0x40 DUP3 ADD SWAP1 POP PUSH2 0x55FD PUSH1 0x0 DUP4 ADD DUP6 PUSH2 0x344A JUMP JUMPDEST PUSH2 0x560A PUSH1 0x20 DUP4 ADD DUP5 PUSH2 0x3214 JUMP JUMPDEST SWAP4 SWAP3 POP POP POP JUMP JUMPDEST PUSH1 0x0 PUSH2 0x561C DUP3 PUSH2 0x34E0 JUMP JUMPDEST SWAP2 POP PUSH2 0x5627 DUP4 PUSH2 0x34E0 JUMP JUMPDEST SWAP3 POP DUP3 DUP3 ADD SWAP1 POP PUSH1 0xFF DUP2 GT ISZERO PUSH2 0x5640 JUMPI PUSH2 0x563F PUSH2 0x43D2 JUMP JUMPDEST JUMPDEST SWAP3 SWAP2 POP POP JUMP INVALID COINBASE TIMESTAMP NUMBER PREVRANDAO GASLIMIT CHAINID SELFBALANCE BASEFEE BLOBHASH BLOBBASEFEE 0x4B 0x4C 0x4D 0x4E 0x4F POP MLOAD MSTORE MSTORE8 SLOAD SSTORE JUMP JUMPI PC MSIZE GAS PUSH2 0x6263 PUSH5 0x6566676869 PUSH11 0x6B6C6D6E6F707172737475 PUSH23 0x7778797A303132333435363738392B2FA2646970667358 0x22 SLT KECCAK256 MCOPY SWAP9 MSIZE SWAP7 0xEC LOG3 PUSH6 0xFC022BE3164E DUP3 PUSH4 0xE12C50C 0xC1 0x4D SWAP4 PUSH19 0x42829EA507F8CC284A64736F6C634300081800 CALLER "},"methodIdentifiers":{"approve(address,uint256)":"095ea7b3","balanceOf(address)":"70a08231","codebreaker()":"0e5c05f1","codemaker()":"50633fa7","gameActive()":"f020044f","gameStatus()":"722fed7e","getApproved(uint256)":"081812fc","getBreakerScore()":"801db33d","getGuesses()":"797642db","getGuessesCodes()":"f0d4e2db","getLatestFeedback()":"db1329d5","getMakerScore()":"29b817c8","guessCount()":"c68a9fe4","guesses(uint256)":"1f491389","isApprovedForAll(address,address)":"e985e9c5","makeGuess(uint8[])":"a42dc7b7","name()":"06fdde03","ownerOf(uint256)":"6352211e","safeTransferFrom(address,address,uint256)":"42842e0e","safeTransferFrom(address,address,uint256,bytes)":"b88d4fde","scoreCodebreaker()":"c0e361d2","scoreCodemaker()":"011d7ab2","setApprovalForAll(address,bool)":"a22cb465","setCodebreaker()":"84894606","setCodemaker()":"8e5cd8e9","startGame(uint8[])":"276d2121","supportsInterface(bytes4)":"01ffc9a7","symbol()":"95d89b41","tokenURI(uint256)":"c87b56dd","transferFrom(address,address,uint256)":"23b872dd"}}}}}