{
  "_format": "hh-sol-artifact-1",
  "contractName": "Mastermind",
  "sourceName": "contracts/Mastermind.sol",
  "abi": [
    {
      "inputs": [],
      "stateMutability": "nonpayable",
      "type": "constructor"
    },
    {
      "inputs": [
        {
          "internalType": "address",
          "name": "sender",
          "type": "address"
        },
        {
          "internalType": "uint256",
          "name": "tokenId",
          "type": "uint256"
        },
        {
          "internalType": "address",
          "name": "owner",
          "type": "address"
        }
      ],
      "name": "ERC721IncorrectOwner",
      "type": "error"
    },
    {
      "inputs": [
        {
          "internalType": "address",
          "name": "operator",
          "type": "address"
        },
        {
          "internalType": "uint256",
          "name": "tokenId",
          "type": "uint256"
        }
      ],
      "name": "ERC721InsufficientApproval",
      "type": "error"
    },
    {
      "inputs": [
        {
          "internalType": "address",
          "name": "approver",
          "type": "address"
        }
      ],
      "name": "ERC721InvalidApprover",
      "type": "error"
    },
    {
      "inputs": [
        {
          "internalType": "address",
          "name": "operator",
          "type": "address"
        }
      ],
      "name": "ERC721InvalidOperator",
      "type": "error"
    },
    {
      "inputs": [
        {
          "internalType": "address",
          "name": "owner",
          "type": "address"
        }
      ],
      "name": "ERC721InvalidOwner",
      "type": "error"
    },
    {
      "inputs": [
        {
          "internalType": "address",
          "name": "receiver",
          "type": "address"
        }
      ],
      "name": "ERC721InvalidReceiver",
      "type": "error"
    },
    {
      "inputs": [
        {
          "internalType": "address",
          "name": "sender",
          "type": "address"
        }
      ],
      "name": "ERC721InvalidSender",
      "type": "error"
    },
    {
      "inputs": [
        {
          "internalType": "uint256",
          "name": "tokenId",
          "type": "uint256"
        }
      ],
      "name": "ERC721NonexistentToken",
      "type": "error"
    },
    {
      "inputs": [],
      "name": "Mastermind__GameAlreadyStarted",
      "type": "error"
    },
    {
      "anonymous": false,
      "inputs": [
        {
          "indexed": true,
          "internalType": "address",
          "name": "owner",
          "type": "address"
        },
        {
          "indexed": true,
          "internalType": "address",
          "name": "approved",
          "type": "address"
        },
        {
          "indexed": true,
          "internalType": "uint256",
          "name": "tokenId",
          "type": "uint256"
        }
      ],
      "name": "Approval",
      "type": "event"
    },
    {
      "anonymous": false,
      "inputs": [
        {
          "indexed": true,
          "internalType": "address",
          "name": "owner",
          "type": "address"
        },
        {
          "indexed": true,
          "internalType": "address",
          "name": "operator",
          "type": "address"
        },
        {
          "indexed": false,
          "internalType": "bool",
          "name": "approved",
          "type": "bool"
        }
      ],
      "name": "ApprovalForAll",
      "type": "event"
    },
    {
      "anonymous": false,
      "inputs": [
        {
          "indexed": true,
          "internalType": "address",
          "name": "codebreaker",
          "type": "address"
        },
        {
          "indexed": false,
          "internalType": "uint256",
          "name": "timestamp",
          "type": "uint256"
        }
      ],
      "name": "CodebreakerSet",
      "type": "event"
    },
    {
      "anonymous": false,
      "inputs": [
        {
          "indexed": true,
          "internalType": "address",
          "name": "codemaker",
          "type": "address"
        },
        {
          "indexed": false,
          "internalType": "uint256",
          "name": "timestamp",
          "type": "uint256"
        }
      ],
      "name": "CodemakerSet",
      "type": "event"
    },
    {
      "anonymous": false,
      "inputs": [
        {
          "indexed": true,
          "internalType": "address",
          "name": "winner",
          "type": "address"
        },
        {
          "indexed": false,
          "internalType": "uint256",
          "name": "timestamp",
          "type": "uint256"
        }
      ],
      "name": "GameEnded",
      "type": "event"
    },
    {
      "anonymous": false,
      "inputs": [
        {
          "indexed": true,
          "internalType": "address",
          "name": "codemaker",
          "type": "address"
        },
        {
          "indexed": false,
          "internalType": "uint256",
          "name": "timestamp",
          "type": "uint256"
        }
      ],
      "name": "GameStarted",
      "type": "event"
    },
    {
      "anonymous": false,
      "inputs": [
        {
          "indexed": false,
          "internalType": "enum Mastermind.GameStatus",
          "name": "status",
          "type": "uint8"
        },
        {
          "indexed": false,
          "internalType": "uint256",
          "name": "timestamp",
          "type": "uint256"
        }
      ],
      "name": "GameStatusChanged",
      "type": "event"
    },
    {
      "anonymous": false,
      "inputs": [
        {
          "indexed": true,
          "internalType": "address",
          "name": "codebreaker",
          "type": "address"
        },
        {
          "indexed": false,
          "internalType": "uint8[]",
          "name": "guess",
          "type": "uint8[]"
        },
        {
          "indexed": false,
          "internalType": "uint8",
          "name": "blackPegs",
          "type": "uint8"
        },
        {
          "indexed": false,
          "internalType": "uint8",
          "name": "whitePegs",
          "type": "uint8"
        },
        {
          "indexed": false,
          "internalType": "bool",
          "name": "correct",
          "type": "bool"
        },
        {
          "indexed": false,
          "internalType": "uint256",
          "name": "timestamp",
          "type": "uint256"
        }
      ],
      "name": "GuessMade",
      "type": "event"
    },
    {
      "anonymous": false,
      "inputs": [
        {
          "indexed": false,
          "internalType": "uint256",
          "name": "scoreCodebreaker",
          "type": "uint256"
        },
        {
          "indexed": false,
          "internalType": "uint256",
          "name": "scoreCodemaker",
          "type": "uint256"
        },
        {
          "indexed": false,
          "internalType": "uint256",
          "name": "timestamp",
          "type": "uint256"
        }
      ],
      "name": "ScoreUpdated",
      "type": "event"
    },
    {
      "anonymous": false,
      "inputs": [
        {
          "indexed": true,
          "internalType": "address",
          "name": "from",
          "type": "address"
        },
        {
          "indexed": true,
          "internalType": "address",
          "name": "to",
          "type": "address"
        },
        {
          "indexed": true,
          "internalType": "uint256",
          "name": "tokenId",
          "type": "uint256"
        }
      ],
      "name": "Transfer",
      "type": "event"
    },
    {
      "inputs": [
        {
          "internalType": "address",
          "name": "to",
          "type": "address"
        },
        {
          "internalType": "uint256",
          "name": "tokenId",
          "type": "uint256"
        }
      ],
      "name": "approve",
      "outputs": [],
      "stateMutability": "nonpayable",
      "type": "function"
    },
    {
      "inputs": [
        {
          "internalType": "address",
          "name": "owner",
          "type": "address"
        }
      ],
      "name": "balanceOf",
      "outputs": [
        {
          "internalType": "uint256",
          "name": "",
          "type": "uint256"
        }
      ],
      "stateMutability": "view",
      "type": "function"
    },
    {
      "inputs": [],
      "name": "codebreaker",
      "outputs": [
        {
          "internalType": "address",
          "name": "",
          "type": "address"
        }
      ],
      "stateMutability": "view",
      "type": "function"
    },
    {
      "inputs": [],
      "name": "codemaker",
      "outputs": [
        {
          "internalType": "address",
          "name": "",
          "type": "address"
        }
      ],
      "stateMutability": "view",
      "type": "function"
    },
    {
      "inputs": [],
      "name": "gameActive",
      "outputs": [
        {
          "internalType": "bool",
          "name": "",
          "type": "bool"
        }
      ],
      "stateMutability": "view",
      "type": "function"
    },
    {
      "inputs": [],
      "name": "gameStatus",
      "outputs": [
        {
          "internalType": "enum Mastermind.GameStatus",
          "name": "",
          "type": "uint8"
        }
      ],
      "stateMutability": "view",
      "type": "function"
    },
    {
      "inputs": [
        {
          "internalType": "uint256",
          "name": "tokenId",
          "type": "uint256"
        }
      ],
      "name": "getApproved",
      "outputs": [
        {
          "internalType": "address",
          "name": "",
          "type": "address"
        }
      ],
      "stateMutability": "view",
      "type": "function"
    },
    {
      "inputs": [],
      "name": "getBreakerScore",
      "outputs": [
        {
          "internalType": "uint256",
          "name": "",
          "type": "uint256"
        }
      ],
      "stateMutability": "view",
      "type": "function"
    },
    {
      "inputs": [],
      "name": "getGuesses",
      "outputs": [
        {
          "components": [
            {
              "internalType": "uint8[]",
              "name": "code",
              "type": "uint8[]"
            },
            {
              "internalType": "uint8",
              "name": "blackPegs",
              "type": "uint8"
            },
            {
              "internalType": "uint8",
              "name": "whitePegs",
              "type": "uint8"
            },
            {
              "internalType": "bool",
              "name": "correct",
              "type": "bool"
            }
          ],
          "internalType": "struct Mastermind.Guess[]",
          "name": "",
          "type": "tuple[]"
        }
      ],
      "stateMutability": "view",
      "type": "function"
    },
    {
      "inputs": [],
      "name": "getMakerScore",
      "outputs": [
        {
          "internalType": "uint256",
          "name": "",
          "type": "uint256"
        }
      ],
      "stateMutability": "view",
      "type": "function"
    },
    {
      "inputs": [],
      "name": "guessCount",
      "outputs": [
        {
          "internalType": "uint256",
          "name": "",
          "type": "uint256"
        }
      ],
      "stateMutability": "view",
      "type": "function"
    },
    {
      "inputs": [
        {
          "internalType": "uint256",
          "name": "",
          "type": "uint256"
        }
      ],
      "name": "guesses",
      "outputs": [
        {
          "internalType": "uint8",
          "name": "blackPegs",
          "type": "uint8"
        },
        {
          "internalType": "uint8",
          "name": "whitePegs",
          "type": "uint8"
        },
        {
          "internalType": "bool",
          "name": "correct",
          "type": "bool"
        }
      ],
      "stateMutability": "view",
      "type": "function"
    },
    {
      "inputs": [
        {
          "internalType": "address",
          "name": "owner",
          "type": "address"
        },
        {
          "internalType": "address",
          "name": "operator",
          "type": "address"
        }
      ],
      "name": "isApprovedForAll",
      "outputs": [
        {
          "internalType": "bool",
          "name": "",
          "type": "bool"
        }
      ],
      "stateMutability": "view",
      "type": "function"
    },
    {
      "inputs": [
        {
          "internalType": "uint8[]",
          "name": "_guess",
          "type": "uint8[]"
        }
      ],
      "name": "makeGuess",
      "outputs": [],
      "stateMutability": "nonpayable",
      "type": "function"
    },
    {
      "inputs": [],
      "name": "name",
      "outputs": [
        {
          "internalType": "string",
          "name": "",
          "type": "string"
        }
      ],
      "stateMutability": "view",
      "type": "function"
    },
    {
      "inputs": [
        {
          "internalType": "uint256",
          "name": "tokenId",
          "type": "uint256"
        }
      ],
      "name": "ownerOf",
      "outputs": [
        {
          "internalType": "address",
          "name": "",
          "type": "address"
        }
      ],
      "stateMutability": "view",
      "type": "function"
    },
    {
      "inputs": [
        {
          "internalType": "address",
          "name": "from",
          "type": "address"
        },
        {
          "internalType": "address",
          "name": "to",
          "type": "address"
        },
        {
          "internalType": "uint256",
          "name": "tokenId",
          "type": "uint256"
        }
      ],
      "name": "safeTransferFrom",
      "outputs": [],
      "stateMutability": "nonpayable",
      "type": "function"
    },
    {
      "inputs": [
        {
          "internalType": "address",
          "name": "from",
          "type": "address"
        },
        {
          "internalType": "address",
          "name": "to",
          "type": "address"
        },
        {
          "internalType": "uint256",
          "name": "tokenId",
          "type": "uint256"
        },
        {
          "internalType": "bytes",
          "name": "data",
          "type": "bytes"
        }
      ],
      "name": "safeTransferFrom",
      "outputs": [],
      "stateMutability": "nonpayable",
      "type": "function"
    },
    {
      "inputs": [],
      "name": "scoreCodebreaker",
      "outputs": [
        {
          "internalType": "uint256",
          "name": "",
          "type": "uint256"
        }
      ],
      "stateMutability": "view",
      "type": "function"
    },
    {
      "inputs": [],
      "name": "scoreCodemaker",
      "outputs": [
        {
          "internalType": "uint256",
          "name": "",
          "type": "uint256"
        }
      ],
      "stateMutability": "view",
      "type": "function"
    },
    {
      "inputs": [
        {
          "internalType": "address",
          "name": "operator",
          "type": "address"
        },
        {
          "internalType": "bool",
          "name": "approved",
          "type": "bool"
        }
      ],
      "name": "setApprovalForAll",
      "outputs": [],
      "stateMutability": "nonpayable",
      "type": "function"
    },
    {
      "inputs": [],
      "name": "setCodebreaker",
      "outputs": [],
      "stateMutability": "nonpayable",
      "type": "function"
    },
    {
      "inputs": [],
      "name": "setCodemaker",
      "outputs": [],
      "stateMutability": "nonpayable",
      "type": "function"
    },
    {
      "inputs": [
        {
          "internalType": "uint8[]",
          "name": "_secretCode",
          "type": "uint8[]"
        }
      ],
      "name": "startGame",
      "outputs": [],
      "stateMutability": "nonpayable",
      "type": "function"
    },
    {
      "inputs": [
        {
          "internalType": "bytes4",
          "name": "interfaceId",
          "type": "bytes4"
        }
      ],
      "name": "supportsInterface",
      "outputs": [
        {
          "internalType": "bool",
          "name": "",
          "type": "bool"
        }
      ],
      "stateMutability": "view",
      "type": "function"
    },
    {
      "inputs": [],
      "name": "symbol",
      "outputs": [
        {
          "internalType": "string",
          "name": "",
          "type": "string"
        }
      ],
      "stateMutability": "view",
      "type": "function"
    },
    {
      "inputs": [
        {
          "internalType": "uint256",
          "name": "tokenId",
          "type": "uint256"
        }
      ],
      "name": "tokenURI",
      "outputs": [
        {
          "internalType": "string",
          "name": "",
          "type": "string"
        }
      ],
      "stateMutability": "view",
      "type": "function"
    },
    {
      "inputs": [
        {
          "internalType": "address",
          "name": "from",
          "type": "address"
        },
        {
          "internalType": "address",
          "name": "to",
          "type": "address"
        },
        {
          "internalType": "uint256",
          "name": "tokenId",
          "type": "uint256"
        }
      ],
      "name": "transferFrom",
      "outputs": [],
      "stateMutability": "nonpayable",
      "type": "function"
    }
  ],
  "bytecode": "0x60806040523480156200001157600080fd5b506040518060400160405280600a81526020017f4d61737465724d696e64000000000000000000000000000000000000000000008152506040518060400160405280600381526020017f4d534d000000000000000000000000000000000000000000000000000000000081525081600090816200008f91906200033f565b508060019081620000a191906200033f565b5050506000600c60006101000a81548160ff02191690831515021790555062000426565b600081519050919050565b7f4e487b7100000000000000000000000000000000000000000000000000000000600052604160045260246000fd5b7f4e487b7100000000000000000000000000000000000000000000000000000000600052602260045260246000fd5b600060028204905060018216806200014757607f821691505b6020821081036200015d576200015c620000ff565b5b50919050565b60008190508160005260206000209050919050565b60006020601f8301049050919050565b600082821b905092915050565b600060088302620001c77fffffffffffffffffffffffffffffffffffffffffffffffffffffffffffffffff8262000188565b620001d3868362000188565b95508019841693508086168417925050509392505050565b6000819050919050565b6000819050919050565b6000620002206200021a6200021484620001eb565b620001f5565b620001eb565b9050919050565b6000819050919050565b6200023c83620001ff565b620002546200024b8262000227565b84845462000195565b825550505050565b600090565b6200026b6200025c565b6200027881848462000231565b505050565b5b81811015620002a0576200029460008262000261565b6001810190506200027e565b5050565b601f821115620002ef57620002b98162000163565b620002c48462000178565b81016020851015620002d4578190505b620002ec620002e38562000178565b8301826200027d565b50505b505050565b600082821c905092915050565b60006200031460001984600802620002f4565b1980831691505092915050565b60006200032f838362000301565b9150826002028217905092915050565b6200034a82620000c5565b67ffffffffffffffff811115620003665762000365620000d0565b5b6200037282546200012e565b6200037f828285620002a4565b600060209050601f831160018114620003b75760008415620003a2578287015190505b620003ae858262000321565b8655506200041e565b601f198416620003c78662000163565b60005b82811015620003f157848901518255600182019150602085019450602081019050620003ca565b868310156200041157848901516200040d601f89168262000301565b8355505b6001600288020188555050505b505050505050565b61582880620004366000396000f3fe608060405234801561001057600080fd5b50600436106101c45760003560e01c8063722fed7e116100f9578063a42dc7b711610097578063c68a9fe411610071578063c68a9fe4146104bf578063c87b56dd146104dd578063e985e9c51461050d578063f020044f1461053d576101c4565b8063a42dc7b714610469578063b88d4fde14610485578063c0e361d2146104a1576101c4565b806384894606116100d3578063848946061461041b5780638e5cd8e91461042557806395d89b411461042f578063a22cb4651461044d576101c4565b8063722fed7e146103c1578063797642db146103df578063801db33d146103fd576101c4565b806323b872dd1161016657806342842e0e1161014057806342842e0e1461032757806350633fa7146103435780636352211e1461036157806370a0823114610391576101c4565b806323b872dd146102d1578063276d2121146102ed57806329b817c814610309576101c4565b8063081812fc116101a2578063081812fc14610235578063095ea7b3146102655780630e5c05f1146102815780631f4913891461029f576101c4565b8063011d7ab2146101c957806301ffc9a7146101e757806306fdde0314610217575b600080fd5b6101d161055b565b6040516101de9190612f27565b60405180910390f35b61020160048036038101906101fc9190612fae565b610561565b60405161020e9190612ff6565b60405180910390f35b61021f610643565b60405161022c91906130a1565b60405180910390f35b61024f600480360381019061024a91906130ef565b6106d5565b60405161025c919061315d565b60405180910390f35b61027f600480360381019061027a91906131a4565b6106f1565b005b610289610707565b604051610296919061315d565b60405180910390f35b6102b960048036038101906102b491906130ef565b61072d565b6040516102c893929190613200565b60405180910390f35b6102eb60048036038101906102e69190613237565b61078e565b005b610307600480360381019061030291906133fe565b610890565b005b610311610c80565b60405161031e9190612f27565b60405180910390f35b610341600480360381019061033c9190613237565b610c8a565b005b61034b610caa565b604051610358919061315d565b60405180910390f35b61037b600480360381019061037691906130ef565b610cd0565b604051610388919061315d565b60405180910390f35b6103ab60048036038101906103a69190613447565b610ce2565b6040516103b89190612f27565b60405180910390f35b6103c9610d9c565b6040516103d691906134eb565b60405180910390f35b6103e7610daf565b6040516103f491906136f8565b60405180910390f35b610405610ee1565b6040516104129190612f27565b60405180910390f35b610423610eeb565b005b61042d610fee565b005b6104376110f1565b60405161044491906130a1565b60405180910390f35b61046760048036038101906104629190613746565b611183565b005b610483600480360381019061047e91906133fe565b611199565b005b61049f600480360381019061049a919061383b565b6117e3565b005b6104a9611800565b6040516104b69190612f27565b60405180910390f35b6104c7611806565b6040516104d49190612f27565b60405180910390f35b6104f760048036038101906104f291906130ef565b61180c565b60405161050491906130a1565b60405180910390f35b610527600480360381019061052291906138be565b611950565b6040516105349190612ff6565b60405180910390f35b6105456119e4565b6040516105529190612ff6565b60405180910390f35b600f5481565b60007f80ac58cd000000000000000000000000000000000000000000000000000000007bffffffffffffffffffffffffffffffffffffffffffffffffffffffff1916827bffffffffffffffffffffffffffffffffffffffffffffffffffffffff1916148061062c57507f5b5e139f000000000000000000000000000000000000000000000000000000007bffffffffffffffffffffffffffffffffffffffffffffffffffffffff1916827bffffffffffffffffffffffffffffffffffffffffffffffffffffffff1916145b8061063c575061063b826119f7565b5b9050919050565b6060600080546106529061392d565b80601f016020809104026020016040519081016040528092919081815260200182805461067e9061392d565b80156106cb5780601f106106a0576101008083540402835291602001916106cb565b820191906000526020600020905b8154815290600101906020018083116106ae57829003601f168201915b5050505050905090565b60006106e082611a61565b506106ea82611ae9565b9050919050565b61070382826106fe611b26565b611b2e565b5050565b600860009054906101000a900473ffffffffffffffffffffffffffffffffffffffff1681565b600d818154811061073d57600080fd5b90600052602060002090600202016000915090508060010160009054906101000a900460ff16908060010160019054906101000a900460ff16908060010160029054906101000a900460ff16905083565b600073ffffffffffffffffffffffffffffffffffffffff168273ffffffffffffffffffffffffffffffffffffffff16036108005760006040517f64a0ae920000000000000000000000000000000000000000000000000000000081526004016107f7919061315d565b60405180910390fd5b6000610814838361080f611b26565b611b40565b90508373ffffffffffffffffffffffffffffffffffffffff168173ffffffffffffffffffffffffffffffffffffffff161461088a578382826040517f64283d7b0000000000000000000000000000000000000000000000000000000081526004016108819392919061395e565b60405180910390fd5b50505050565b600760009054906101000a900473ffffffffffffffffffffffffffffffffffffffff1673ffffffffffffffffffffffffffffffffffffffff163373ffffffffffffffffffffffffffffffffffffffff1614610920576040517f08c379a000000000000000000000000000000000000000000000000000000000815260040161091790613a07565b60405180910390fd5b600073ffffffffffffffffffffffffffffffffffffffff16600760009054906101000a900473ffffffffffffffffffffffffffffffffffffffff1673ffffffffffffffffffffffffffffffffffffffff16036109b1576040517f08c379a00000000000000000000000000000000000000000000000000000000081526004016109a890613a73565b60405180910390fd5b600073ffffffffffffffffffffffffffffffffffffffff16600860009054906101000a900473ffffffffffffffffffffffffffffffffffffffff1673ffffffffffffffffffffffffffffffffffffffff1603610a42576040517f08c379a0000000000000000000000000000000000000000000000000000000008152600401610a3990613adf565b60405180910390fd5b600460ff16815114610a89576040517f08c379a0000000000000000000000000000000000000000000000000000000008152600401610a8090613b71565b60405180910390fd5b60011515600c60009054906101000a900460ff16151503610ad6576040517fbcefc32900000000000000000000000000000000000000000000000000000000815260040160405180910390fd5b80600a9080519060200190610aec929190612d79565b5080604051602001610afe9190613c21565b604051602081830303815290604052805190602001206009819055506000600b81905550600d6000610b309190612e20565b6001600c60006101000a81548160ff0219169083151502179055506000600c60016101000a81548160ff02191690836002811115610b7157610b70613474565b5b02179055506000600e819055506000600f81905550600760009054906101000a900473ffffffffffffffffffffffffffffffffffffffff1673ffffffffffffffffffffffffffffffffffffffff167fea32a03505fd9f04d664676d72295a86c5fb0465e69654751907ca305bc1d1c742604051610bee9190612f27565b60405180910390a27fafcf3201aa5a8b6350cd7e42802f62089c82cf3e88f4ef6d7a1cabd94763d8d9600c60019054906101000a900460ff1642604051610c36929190613c38565b60405180910390a17fb2383e82269e758b9ec0fc961ac69cecc166570a12068c11b3f9cf29c8de9e88600e54600f5442604051610c7593929190613c61565b60405180910390a150565b6000600f54905090565b610ca5838383604051806020016040528060008152506117e3565b505050565b600760009054906101000a900473ffffffffffffffffffffffffffffffffffffffff1681565b6000610cdb82611a61565b9050919050565b60008073ffffffffffffffffffffffffffffffffffffffff168273ffffffffffffffffffffffffffffffffffffffff1603610d555760006040517f89c62b64000000000000000000000000000000000000000000000000000000008152600401610d4c919061315d565b60405180910390fd5b600360008373ffffffffffffffffffffffffffffffffffffffff1673ffffffffffffffffffffffffffffffffffffffff168152602001908152602001600020549050919050565b600c60019054906101000a900460ff1681565b6060600d805480602002602001604051908101604052809291908181526020016000905b82821015610ed8578382906000526020600020906002020160405180608001604052908160008201805480602002602001604051908101604052809291908181526020018280548015610e6b57602002820191906000526020600020906000905b82829054906101000a900460ff1660ff1681526020019060010190602082600001049283019260010382029150808411610e345790505b505050505081526020016001820160009054906101000a900460ff1660ff1660ff1681526020016001820160019054906101000a900460ff1660ff1660ff1681526020016001820160029054906101000a900460ff16151515158152505081526020019060010190610dd3565b50505050905090565b6000600e54905090565b600c60009054906101000a900460ff1615610f3b576040517f08c379a0000000000000000000000000000000000000000000000000000000008152600401610f3290613ce4565b60405180910390fd5b33600860006101000a81548173ffffffffffffffffffffffffffffffffffffffff021916908373ffffffffffffffffffffffffffffffffffffffff160217905550600860009054906101000a900473ffffffffffffffffffffffffffffffffffffffff1673ffffffffffffffffffffffffffffffffffffffff167fe030cca42591fdc0fe1e7a7cc3892f5f6d13aaa3aebcafa2563c78df1b9de25142604051610fe49190612f27565b60405180910390a2565b600c60009054906101000a900460ff161561103e576040517f08c379a000000000000000000000000000000000000000000000000000000000815260040161103590613ce4565b60405180910390fd5b33600760006101000a81548173ffffffffffffffffffffffffffffffffffffffff021916908373ffffffffffffffffffffffffffffffffffffffff160217905550600760009054906101000a900473ffffffffffffffffffffffffffffffffffffffff1673ffffffffffffffffffffffffffffffffffffffff167f65bd3084c68c3b9e4a26f0857a1c9a69285e55ded79629480351f98856f096a2426040516110e79190612f27565b60405180910390a2565b6060600180546111009061392d565b80601f016020809104026020016040519081016040528092919081815260200182805461112c9061392d565b80156111795780601f1061114e57610100808354040283529160200191611179565b820191906000526020600020905b81548152906001019060200180831161115c57829003601f168201915b5050505050905090565b61119561118e611b26565b8383611d5a565b5050565b600860009054906101000a900473ffffffffffffffffffffffffffffffffffffffff1673ffffffffffffffffffffffffffffffffffffffff163373ffffffffffffffffffffffffffffffffffffffff1614611229576040517f08c379a000000000000000000000000000000000000000000000000000000000815260040161122090613d76565b60405180910390fd5b600c60009054906101000a900460ff16611278576040517f08c379a000000000000000000000000000000000000000000000000000000000815260040161126f90613de2565b60405180910390fd5b600460ff168151146112bf576040517f08c379a00000000000000000000000000000000000000000000000000000000081526004016112b690613e4e565b60405180910390fd5b600a60ff16600b5410611307576040517f08c379a00000000000000000000000000000000000000000000000000000000081526004016112fe90613ee0565b60405180910390fd5b60008061131383611ec9565b915091506000600460ff168360ff16149050600d60405180608001604052808681526020018560ff1681526020018460ff16815260200183151581525090806001815401808255809150506001900390600052602060002090600202016000909190919091506000820151816000019080519060200190611395929190612d79565b5060208201518160010160006101000a81548160ff021916908360ff16021790555060408201518160010160016101000a81548160ff021916908360ff16021790555060608201518160010160026101000a81548160ff0219169083151502179055505050600860009054906101000a900473ffffffffffffffffffffffffffffffffffffffff1673ffffffffffffffffffffffffffffffffffffffff167f0b733e8664b442058353db00385a5c6640f039b74589925d748092f1d1b6baad858585854260405161146a959493929190613f6f565b60405180910390a2801561161a576000600c60006101000a81548160ff0219169083151502179055506001600c60016101000a81548160ff021916908360028111156114b9576114b8613474565b5b0217905550612710600e60008282546114d29190613ff8565b925050819055506114e360066120f0565b60006114ef6006612106565b905061151d600860009054906101000a900473ffffffffffffffffffffffffffffffffffffffff1682612114565b7fafcf3201aa5a8b6350cd7e42802f62089c82cf3e88f4ef6d7a1cabd94763d8d9600c60019054906101000a900460ff164260405161155d929190613c38565b60405180910390a1600860009054906101000a900473ffffffffffffffffffffffffffffffffffffffff1673ffffffffffffffffffffffffffffffffffffffff167fd4ba6fec82d9b0e8ffe50b9fed9e4be3b25c984ce1e0e016405a5528726e8a2c426040516115cd9190612f27565b60405180910390a27fb2383e82269e758b9ec0fc961ac69cecc166570a12068c11b3f9cf29c8de9e88600e54600f544260405161160c93929190613c61565b60405180910390a1506117dd565b6064600f600082825461162d9190613ff8565b92505081905550600b60008154809291906116479061402c565b9190505550600a60ff16600b54106117dc576000600c60006101000a81548160ff0219169083151502179055506002600c60016101000a81548160ff0219169083600281111561169a57611699613474565b5b02179055506116a960066120f0565b60006116b56006612106565b90506116e3600760009054906101000a900473ffffffffffffffffffffffffffffffffffffffff1682612114565b7fafcf3201aa5a8b6350cd7e42802f62089c82cf3e88f4ef6d7a1cabd94763d8d9600c60019054906101000a900460ff1642604051611723929190613c38565b60405180910390a1600760009054906101000a900473ffffffffffffffffffffffffffffffffffffffff1673ffffffffffffffffffffffffffffffffffffffff167fd4ba6fec82d9b0e8ffe50b9fed9e4be3b25c984ce1e0e016405a5528726e8a2c426040516117939190612f27565b60405180910390a27fb2383e82269e758b9ec0fc961ac69cecc166570a12068c11b3f9cf29c8de9e88600e54600f54426040516117d293929190613c61565b60405180910390a1505b5b50505050565b6117ee84848461078e565b6117fa84848484612132565b50505050565b600e5481565b600b5481565b606060006001600281111561182457611823613474565b5b600c60019054906101000a900460ff16600281111561184657611845613474565b5b14611886576040518060400160405280600481526020017f4c6f7374000000000000000000000000000000000000000000000000000000008152506118bd565b6040518060400160405280600381526020017f576f6e00000000000000000000000000000000000000000000000000000000008152505b905060006118cb82856122e9565b905060006118d885610cd0565b9050600061191a6118e887612350565b856118f28561252b565b866040516020016119069493929190614310565b6040516020818303038152906040526126e8565b905061192461285a565b81604051602001611936929190614390565b604051602081830303815290604052945050505050919050565b6000600560008473ffffffffffffffffffffffffffffffffffffffff1673ffffffffffffffffffffffffffffffffffffffff16815260200190815260200160002060008373ffffffffffffffffffffffffffffffffffffffff1673ffffffffffffffffffffffffffffffffffffffff16815260200190815260200160002060009054906101000a900460ff16905092915050565b600c60009054906101000a900460ff1681565b60007f01ffc9a7000000000000000000000000000000000000000000000000000000007bffffffffffffffffffffffffffffffffffffffffffffffffffffffff1916827bffffffffffffffffffffffffffffffffffffffffffffffffffffffff1916149050919050565b600080611a6d83612897565b9050600073ffffffffffffffffffffffffffffffffffffffff168173ffffffffffffffffffffffffffffffffffffffff1603611ae057826040517f7e273289000000000000000000000000000000000000000000000000000000008152600401611ad79190612f27565b60405180910390fd5b80915050919050565b60006004600083815260200190815260200160002060009054906101000a900473ffffffffffffffffffffffffffffffffffffffff169050919050565b600033905090565b611b3b83838360016128d4565b505050565b600080611b4c84612897565b9050600073ffffffffffffffffffffffffffffffffffffffff168373ffffffffffffffffffffffffffffffffffffffff1614611b8e57611b8d818486612a99565b5b600073ffffffffffffffffffffffffffffffffffffffff168173ffffffffffffffffffffffffffffffffffffffff1614611c1f57611bd06000856000806128d4565b6001600360008373ffffffffffffffffffffffffffffffffffffffff1673ffffffffffffffffffffffffffffffffffffffff168152602001908152602001600020600082825403925050819055505b600073ffffffffffffffffffffffffffffffffffffffff168573ffffffffffffffffffffffffffffffffffffffff1614611ca2576001600360008773ffffffffffffffffffffffffffffffffffffffff1673ffffffffffffffffffffffffffffffffffffffff168152602001908152602001600020600082825401925050819055505b846002600086815260200190815260200160002060006101000a81548173ffffffffffffffffffffffffffffffffffffffff021916908373ffffffffffffffffffffffffffffffffffffffff160217905550838573ffffffffffffffffffffffffffffffffffffffff168273ffffffffffffffffffffffffffffffffffffffff167fddf252ad1be2c89b69c2b068fc378daa952ba7f163c4a11628f55a4df523b3ef60405160405180910390a4809150509392505050565b600073ffffffffffffffffffffffffffffffffffffffff168273ffffffffffffffffffffffffffffffffffffffff1603611dcb57816040517f5b08ba18000000000000000000000000000000000000000000000000000000008152600401611dc2919061315d565b60405180910390fd5b80600560008573ffffffffffffffffffffffffffffffffffffffff1673ffffffffffffffffffffffffffffffffffffffff16815260200190815260200160002060008473ffffffffffffffffffffffffffffffffffffffff1673ffffffffffffffffffffffffffffffffffffffff16815260200190815260200160002060006101000a81548160ff0219169083151502179055508173ffffffffffffffffffffffffffffffffffffffff168373ffffffffffffffffffffffffffffffffffffffff167f17307eab39ab6107e8899845ad3d59bd9653f200f220920489ca2b5937696c3183604051611ebc9190612ff6565b60405180910390a3505050565b600080611ed4612e44565b611edc612e44565b60005b600460ff168160ff161015611fbc57600a8160ff1681548110611f0557611f046143b4565b5b90600052602060002090602091828204019190069054906101000a900460ff1660ff16868260ff1681518110611f3e57611f3d6143b4565b5b602002602001015160ff1603611faf578480611f59906143e3565b9550506001838260ff1660048110611f7457611f736143b4565b5b602002019060ff16908160ff16815250506001828260ff1660048110611f9d57611f9c6143b4565b5b602002019060ff16908160ff16815250505b8080600101915050611edf565b5060005b600460ff168160ff1610156120e8576000828260ff1660048110611fe757611fe66143b4565b5b602002015160ff16036120db5760005b600460ff168160ff1610156120d9576000848260ff166004811061201e5761201d6143b4565b5b602002015160ff1614801561208b5750600a8160ff1681548110612045576120446143b4565b5b90600052602060002090602091828204019190069054906101000a900460ff1660ff16878360ff168151811061207e5761207d6143b4565b5b602002602001015160ff16145b156120cc57848061209b906143e3565b9550506001848260ff16600481106120b6576120b56143b4565b5b602002019060ff16908160ff16815250506120d9565b8080600101915050611ff7565b505b8080600101915050611fc0565b505050915091565b6001816000016000828254019250508190555050565b600081600001549050919050565b61212e828260405180602001604052806000815250612b5d565b5050565b60008373ffffffffffffffffffffffffffffffffffffffff163b11156122e3578273ffffffffffffffffffffffffffffffffffffffff1663150b7a02612176611b26565b8685856040518563ffffffff1660e01b81526004016121989493929190614461565b6020604051808303816000875af19250505080156121d457506040513d601f19601f820116820180604052508101906121d191906144c2565b60015b612258573d8060008114612204576040519150601f19603f3d011682016040523d82523d6000602084013e612209565b606091505b50600081510361225057836040517f64a0ae92000000000000000000000000000000000000000000000000000000008152600401612247919061315d565b60405180910390fd5b805181602001fd5b63150b7a0260e01b7bffffffffffffffffffffffffffffffffffffffffffffffffffffffff1916817bffffffffffffffffffffffffffffffffffffffffffffffffffffffff1916146122e157836040517f64a0ae920000000000000000000000000000000000000000000000000000000081526004016122d8919061315d565b60405180910390fd5b505b50505050565b60606000836122f784612350565b604051602001612308929190615271565b60405160208183030381529060405290506000612324826126e8565b604051602001612334919061540a565b6040516020818303038152906040529050809250505092915050565b60606000604e905060008167ffffffffffffffff8111156123745761237361328f565b5b6040519080825280601f01601f1916602001820160405280156123a65781602001600182028036833780820191505090505b50905060005b60008514612438576000600a866123c3919061545b565b9050600a866123d2919061548c565b95508060306123e19190613ff8565b60f81b8383806123f09061402c565b945081518110612403576124026143b4565b5b60200101907effffffffffffffffffffffffffffffffffffffffffffffffffffffffffffff1916908160001a905350506123ac565b60008167ffffffffffffffff8111156124545761245361328f565b5b6040519080825280601f01601f1916602001820160405280156124865781602001600182028036833780820191505090505b50905060005b828110156125185783600182856124a391906154bd565b6124ad91906154bd565b815181106124be576124bd6143b4565b5b602001015160f81c60f81b8282815181106124dc576124db6143b4565b5b60200101907effffffffffffffffffffffffffffffffffffffffffffffffffffffffffffff1916908160001a905350808060010191505061248c565b5060008190508095505050505050919050565b60606000602867ffffffffffffffff81111561254a5761254961328f565b5b6040519080825280601f01601f19166020018201604052801561257c5781602001600182028036833780820191505090505b50905060005b60148110156126de57600081601361259a91906154bd565b60086125a691906154f1565b60026125b29190615666565b8573ffffffffffffffffffffffffffffffffffffffff166125d3919061548c565b60f81b9050600060108260f81c6125ea91906156b1565b60f81b905060008160f81c601061260191906156e2565b8360f81c61260f919061571f565b60f81b905061261d82612b79565b8585600261262b91906154f1565b8151811061263c5761263b6143b4565b5b60200101907effffffffffffffffffffffffffffffffffffffffffffffffffffffffffffff1916908160001a90535061267481612b79565b85600186600261268491906154f1565b61268e9190613ff8565b8151811061269f5761269e6143b4565b5b60200101907effffffffffffffffffffffffffffffffffffffffffffffffffffffffffffff1916908160001a9053505050508080600101915050612582565b5080915050919050565b6060600082510361270a57604051806020016040528060008152509050612855565b60006040518060600160405280604081526020016157b360409139905060006003600285516127399190613ff8565b612743919061548c565b600461274f91906154f1565b67ffffffffffffffff8111156127685761276761328f565b5b6040519080825280601f01601f19166020018201604052801561279a5781602001600182028036833780820191505090505b50905060018201602082018586518701602081018051600082525b82841015612810576003840193508351603f8160121c168701518653600186019550603f81600c1c168701518653600186019550603f8160061c168701518653600186019550603f81168701518653600186019550506127b5565b80825260038a51066001811461282d576002811461284057612848565b603d6001870353603d6002870353612848565b603d60018703535b5050505050505080925050505b919050565b60606040518060400160405280601d81526020017f646174613a6170706c69636174696f6e2f6a736f6e3b6261736536342c000000815250905090565b60006002600083815260200190815260200160002060009054906101000a900473ffffffffffffffffffffffffffffffffffffffff169050919050565b808061290d5750600073ffffffffffffffffffffffffffffffffffffffff168273ffffffffffffffffffffffffffffffffffffffff1614155b15612a4157600061291d84611a61565b9050600073ffffffffffffffffffffffffffffffffffffffff168373ffffffffffffffffffffffffffffffffffffffff161415801561298857508273ffffffffffffffffffffffffffffffffffffffff168173ffffffffffffffffffffffffffffffffffffffff1614155b801561299b57506129998184611950565b155b156129dd57826040517fa9fbf51f0000000000000000000000000000000000000000000000000000000081526004016129d4919061315d565b60405180910390fd5b8115612a3f57838573ffffffffffffffffffffffffffffffffffffffff168273ffffffffffffffffffffffffffffffffffffffff167f8c5be1e5ebec7d5bd14f71427d1e84f3dd0314c0f7b2291e5b200ac8c7c3b92560405160405180910390a45b505b836004600085815260200190815260200160002060006101000a81548173ffffffffffffffffffffffffffffffffffffffff021916908373ffffffffffffffffffffffffffffffffffffffff16021790555050505050565b612aa4838383612bbf565b612b5857600073ffffffffffffffffffffffffffffffffffffffff168373ffffffffffffffffffffffffffffffffffffffff1603612b1957806040517f7e273289000000000000000000000000000000000000000000000000000000008152600401612b109190612f27565b60405180910390fd5b81816040517f177e802f000000000000000000000000000000000000000000000000000000008152600401612b4f929190615754565b60405180910390fd5b505050565b612b678383612c80565b612b746000848484612132565b505050565b6000600a8260f81c60ff161015612ba45760308260f81c612b9a919061577d565b60f81b9050612bba565b60578260f81c612bb4919061577d565b60f81b90505b919050565b60008073ffffffffffffffffffffffffffffffffffffffff168373ffffffffffffffffffffffffffffffffffffffff1614158015612c7757508273ffffffffffffffffffffffffffffffffffffffff168473ffffffffffffffffffffffffffffffffffffffff161480612c385750612c378484611950565b5b80612c7657508273ffffffffffffffffffffffffffffffffffffffff16612c5e83611ae9565b73ffffffffffffffffffffffffffffffffffffffff16145b5b90509392505050565b600073ffffffffffffffffffffffffffffffffffffffff168273ffffffffffffffffffffffffffffffffffffffff1603612cf25760006040517f64a0ae92000000000000000000000000000000000000000000000000000000008152600401612ce9919061315d565b60405180910390fd5b6000612d0083836000611b40565b9050600073ffffffffffffffffffffffffffffffffffffffff168173ffffffffffffffffffffffffffffffffffffffff1614612d745760006040517f73c6ac6e000000000000000000000000000000000000000000000000000000008152600401612d6b919061315d565b60405180910390fd5b505050565b82805482825590600052602060002090601f01602090048101928215612e0f5791602002820160005b83821115612de057835183826101000a81548160ff021916908360ff1602179055509260200192600101602081600001049283019260010302612da2565b8015612e0d5782816101000a81549060ff0219169055600101602081600001049283019260010302612de0565b505b509050612e1c9190612e66565b5090565b5080546000825560020290600052602060002090810190612e419190612e83565b50565b6040518060800160405280600490602082028036833780820191505090505090565b5b80821115612e7f576000816000905550600101612e67565b5090565b5b80821115612ee25760008082016000612e9d9190612ee6565b6001820160006101000a81549060ff02191690556001820160016101000a81549060ff02191690556001820160026101000a81549060ff021916905550600201612e84565b5090565b50805460008255601f016020900490600052602060002090810190612f0b9190612e66565b50565b6000819050919050565b612f2181612f0e565b82525050565b6000602082019050612f3c6000830184612f18565b92915050565b6000604051905090565b600080fd5b600080fd5b60007fffffffff0000000000000000000000000000000000000000000000000000000082169050919050565b612f8b81612f56565b8114612f9657600080fd5b50565b600081359050612fa881612f82565b92915050565b600060208284031215612fc457612fc3612f4c565b5b6000612fd284828501612f99565b91505092915050565b60008115159050919050565b612ff081612fdb565b82525050565b600060208201905061300b6000830184612fe7565b92915050565b600081519050919050565b600082825260208201905092915050565b60005b8381101561304b578082015181840152602081019050613030565b60008484015250505050565b6000601f19601f8301169050919050565b600061307382613011565b61307d818561301c565b935061308d81856020860161302d565b61309681613057565b840191505092915050565b600060208201905081810360008301526130bb8184613068565b905092915050565b6130cc81612f0e565b81146130d757600080fd5b50565b6000813590506130e9816130c3565b92915050565b60006020828403121561310557613104612f4c565b5b6000613113848285016130da565b91505092915050565b600073ffffffffffffffffffffffffffffffffffffffff82169050919050565b60006131478261311c565b9050919050565b6131578161313c565b82525050565b6000602082019050613172600083018461314e565b92915050565b6131818161313c565b811461318c57600080fd5b50565b60008135905061319e81613178565b92915050565b600080604083850312156131bb576131ba612f4c565b5b60006131c98582860161318f565b92505060206131da858286016130da565b9150509250929050565b600060ff82169050919050565b6131fa816131e4565b82525050565b600060608201905061321560008301866131f1565b61322260208301856131f1565b61322f6040830184612fe7565b949350505050565b6000806000606084860312156132505761324f612f4c565b5b600061325e8682870161318f565b935050602061326f8682870161318f565b9250506040613280868287016130da565b9150509250925092565b600080fd5b7f4e487b7100000000000000000000000000000000000000000000000000000000600052604160045260246000fd5b6132c782613057565b810181811067ffffffffffffffff821117156132e6576132e561328f565b5b80604052505050565b60006132f9612f42565b905061330582826132be565b919050565b600067ffffffffffffffff8211156133255761332461328f565b5b602082029050602081019050919050565b600080fd5b613344816131e4565b811461334f57600080fd5b50565b6000813590506133618161333b565b92915050565b600061337a6133758461330a565b6132ef565b9050808382526020820190506020840283018581111561339d5761339c613336565b5b835b818110156133c657806133b28882613352565b84526020840193505060208101905061339f565b5050509392505050565b600082601f8301126133e5576133e461328a565b5b81356133f5848260208601613367565b91505092915050565b60006020828403121561341457613413612f4c565b5b600082013567ffffffffffffffff81111561343257613431612f51565b5b61343e848285016133d0565b91505092915050565b60006020828403121561345d5761345c612f4c565b5b600061346b8482850161318f565b91505092915050565b7f4e487b7100000000000000000000000000000000000000000000000000000000600052602160045260246000fd5b600381106134b4576134b3613474565b5b50565b60008190506134c5826134a3565b919050565b60006134d5826134b7565b9050919050565b6134e5816134ca565b82525050565b600060208201905061350060008301846134dc565b92915050565b600081519050919050565b600082825260208201905092915050565b6000819050602082019050919050565b600081519050919050565b600082825260208201905092915050565b6000819050602082019050919050565b613567816131e4565b82525050565b6000613579838361355e565b60208301905092915050565b6000602082019050919050565b600061359d82613532565b6135a7818561353d565b93506135b28361354e565b8060005b838110156135e35781516135ca888261356d565b97506135d583613585565b9250506001810190506135b6565b5085935050505092915050565b6135f981612fdb565b82525050565b6000608083016000830151848203600086015261361c8282613592565b9150506020830151613631602086018261355e565b506040830151613644604086018261355e565b50606083015161365760608601826135f0565b508091505092915050565b600061366e83836135ff565b905092915050565b6000602082019050919050565b600061368e82613506565b6136988185613511565b9350836020820285016136aa85613522565b8060005b858110156136e657848403895281516136c78582613662565b94506136d283613676565b925060208a019950506001810190506136ae565b50829750879550505050505092915050565b600060208201905081810360008301526137128184613683565b905092915050565b61372381612fdb565b811461372e57600080fd5b50565b6000813590506137408161371a565b92915050565b6000806040838503121561375d5761375c612f4c565b5b600061376b8582860161318f565b925050602061377c85828601613731565b9150509250929050565b600080fd5b600067ffffffffffffffff8211156137a6576137a561328f565b5b6137af82613057565b9050602081019050919050565b82818337600083830152505050565b60006137de6137d98461378b565b6132ef565b9050828152602081018484840111156137fa576137f9613786565b5b6138058482856137bc565b509392505050565b600082601f8301126138225761382161328a565b5b81356138328482602086016137cb565b91505092915050565b6000806000806080858703121561385557613854612f4c565b5b60006138638782880161318f565b94505060206138748782880161318f565b9350506040613885878288016130da565b925050606085013567ffffffffffffffff8111156138a6576138a5612f51565b5b6138b28782880161380d565b91505092959194509250565b600080604083850312156138d5576138d4612f4c565b5b60006138e38582860161318f565b92505060206138f48582860161318f565b9150509250929050565b7f4e487b7100000000000000000000000000000000000000000000000000000000600052602260045260246000fd5b6000600282049050600182168061394557607f821691505b602082108103613958576139576138fe565b5b50919050565b6000606082019050613973600083018661314e565b6139806020830185612f18565b61398d604083018461314e565b949350505050565b7f4f6e6c792074686520636f64656d616b65722063616e2063616c6c207468697360008201527f2066756e6374696f6e0000000000000000000000000000000000000000000000602082015250565b60006139f160298361301c565b91506139fc82613995565b604082019050919050565b60006020820190508181036000830152613a20816139e4565b9050919050565b7f636f64656d616b65722061646472657373206d75737420626520736574000000600082015250565b6000613a5d601d8361301c565b9150613a6882613a27565b602082019050919050565b60006020820190508181036000830152613a8c81613a50565b9050919050565b7f436f6465627265616b65722061646472657373206d7573742062652073657400600082015250565b6000613ac9601f8361301c565b9150613ad482613a93565b602082019050919050565b60006020820190508181036000830152613af881613abc565b9050919050565b7f53656372657420636f6465206d757374206265203420646967697473206c6f6e60008201527f6700000000000000000000000000000000000000000000000000000000000000602082015250565b6000613b5b60218361301c565b9150613b6682613aff565b604082019050919050565b60006020820190508181036000830152613b8a81613b4e565b9050919050565b600081905092915050565b613ba5816131e4565b82525050565b6000613bb78383613b9c565b60208301905092915050565b6000613bce82613532565b613bd88185613b91565b9350613be38361354e565b8060005b83811015613c14578151613bfb8882613bab565b9750613c0683613585565b925050600181019050613be7565b5085935050505092915050565b6000613c2d8284613bc3565b915081905092915050565b6000604082019050613c4d60008301856134dc565b613c5a6020830184612f18565b9392505050565b6000606082019050613c766000830186612f18565b613c836020830185612f18565b613c906040830184612f18565b949350505050565b7f47616d6520696e2073657373696f6e0000000000000000000000000000000000600082015250565b6000613cce600f8361301c565b9150613cd982613c98565b602082019050919050565b60006020820190508181036000830152613cfd81613cc1565b9050919050565b7f4f6e6c792074686520636f6465627265616b65722063616e2063616c6c20746860008201527f69732066756e6374696f6e000000000000000000000000000000000000000000602082015250565b6000613d60602b8361301c565b9150613d6b82613d04565b604082019050919050565b60006020820190508181036000830152613d8f81613d53565b9050919050565b7f47616d65206973206e6f74206163746976650000000000000000000000000000600082015250565b6000613dcc60128361301c565b9150613dd782613d96565b602082019050919050565b60006020820190508181036000830152613dfb81613dbf565b9050919050565b7f4775657373206d757374206265203420646967697473206c6f6e670000000000600082015250565b6000613e38601b8361301c565b9150613e4382613e02565b602082019050919050565b60006020820190508181036000830152613e6781613e2b565b9050919050565b7f4d6178696d756d206e756d626572206f6620677565737365732072656163686560008201527f6400000000000000000000000000000000000000000000000000000000000000602082015250565b6000613eca60218361301c565b9150613ed582613e6e565b604082019050919050565b60006020820190508181036000830152613ef981613ebd565b9050919050565b600082825260208201905092915050565b6000613f1c82613532565b613f268185613f00565b9350613f318361354e565b8060005b83811015613f62578151613f49888261356d565b9750613f5483613585565b925050600181019050613f35565b5085935050505092915050565b600060a0820190508181036000830152613f898188613f11565b9050613f9860208301876131f1565b613fa560408301866131f1565b613fb26060830185612fe7565b613fbf6080830184612f18565b9695505050505050565b7f4e487b7100000000000000000000000000000000000000000000000000000000600052601160045260246000fd5b600061400382612f0e565b915061400e83612f0e565b925082820190508082111561402657614025613fc9565b5b92915050565b600061403782612f0e565b91507fffffffffffffffffffffffffffffffffffffffffffffffffffffffffffffffff820361406957614068613fc9565b5b600182019050919050565b600081905092915050565b7f7b226e616d65223a224d61737465726d696e6420230000000000000000000000600082015250565b60006140b5601583614074565b91506140c08261407f565b601582019050919050565b60006140d682613011565b6140e08185614074565b93506140f081856020860161302d565b80840191505092915050565b7f222c20226465736372697074696f6e223a22416e204e4654207468617420726560008201527f666c6563747320746865206f7574636f6d65206f662061204d61737465726d6960208201527f6e642067616d65222c2000000000000000000000000000000000000000000000604082015250565b600061417e604a83614074565b9150614189826140fc565b604a82019050919050565b7f2261747472696275746573223a205b7b2274726169745f74797065223a20226760008201527f616d655f726573756c74222c202276616c7565223a2022000000000000000000602082015250565b60006141f0603783614074565b91506141fb82614194565b603782019050919050565b7f227d2c207b2274726169745f74797065223a20226f776e6572222c202276616c60008201527f7565223a20220000000000000000000000000000000000000000000000000000602082015250565b6000614262602683614074565b915061426d82614206565b602682019050919050565b7f227d5d2c2022696d616765223a22000000000000000000000000000000000000600082015250565b60006142ae600e83614074565b91506142b982614278565b600e82019050919050565b7f227d000000000000000000000000000000000000000000000000000000000000600082015250565b60006142fa600283614074565b9150614305826142c4565b600282019050919050565b600061431b826140a8565b915061432782876140cb565b915061433282614171565b915061433d826141e3565b915061434982866140cb565b915061435482614255565b915061436082856140cb565b915061436b826142a1565b915061437782846140cb565b9150614382826142ed565b915081905095945050505050565b600061439c82856140cb565b91506143a882846140cb565b91508190509392505050565b7f4e487b7100000000000000000000000000000000000000000000000000000000600052603260045260246000fd5b60006143ee826131e4565b915060ff820361440157614400613fc9565b5b600182019050919050565b600081519050919050565b600082825260208201905092915050565b60006144338261440c565b61443d8185614417565b935061444d81856020860161302d565b61445681613057565b840191505092915050565b6000608082019050614476600083018761314e565b614483602083018661314e565b6144906040830185612f18565b81810360608301526144a28184614428565b905095945050505050565b6000815190506144bc81612f82565b92915050565b6000602082840312156144d8576144d7612f4c565b5b60006144e6848285016144ad565b91505092915050565b7f3c7376672077696474683d2233303022206865696768743d223430302220786d60008201527f6c6e733d22687474703a2f2f7777772e77332e6f72672f323030302f7376672260208201527f3e00000000000000000000000000000000000000000000000000000000000000604082015250565b6000614571604183614074565b915061457c826144ef565b604182019050919050565b7f3c726563742077696474683d2233303022206865696768743d2234303022206660008201527f696c6c3d227768697465222f3e00000000000000000000000000000000000000602082015250565b60006145e3602d83614074565b91506145ee82614587565b602d82019050919050565b7f3c7465787420783d2231302220793d2233302220666f6e742d66616d696c793d60008201527f22417269616c2220666f6e742d73697a653d223234222066696c6c3d2270757260208201527f706c65223e4d61737465726d696e643c2f746578743e00000000000000000000604082015250565b600061467b605683614074565b9150614686826145f9565b605682019050919050565b7f3c6c696e652078313d223130222079313d223530222078323d2232393022207960008201527f323d22353022207374726f6b653d22626c61636b22207374726f6b652d77696460208201527f74683d2232222f3e000000000000000000000000000000000000000000000000604082015250565b6000614713604883614074565b915061471e82614691565b604882019050919050565b7f3c636972636c652063783d223530222063793d2238302220723d22313022206660008201527f696c6c3d2272656422202f3e0000000000000000000000000000000000000000602082015250565b6000614785602c83614074565b915061479082614729565b602c82019050919050565b7f3c636972636c652063783d223830222063793d2238302220723d22313022206660008201527f696c6c3d22626c756522202f3e00000000000000000000000000000000000000602082015250565b60006147f7602d83614074565b91506148028261479b565b602d82019050919050565b7f3c636972636c652063783d22313130222063793d2238302220723d223130222060008201527f66696c6c3d22677265656e22202f3e0000000000000000000000000000000000602082015250565b6000614869602f83614074565b91506148748261480d565b602f82019050919050565b7f3c636972636c652063783d22313430222063793d2238302220723d223130222060008201527f66696c6c3d2279656c6c6f7722202f3e00000000000000000000000000000000602082015250565b60006148db603083614074565b91506148e68261487f565b603082019050919050565b7f3c636972636c652063783d223530222063793d223132302220723d223130222060008201527f66696c6c3d22776869746522207374726f6b653d22626c61636b22207374726f60208201527f6b652d77696474683d2232222f3e000000000000000000000000000000000000604082015250565b6000614973604e83614074565b915061497e826148f1565b604e82019050919050565b7f3c636972636c652063783d223830222063793d223132302220723d223130222060008201527f66696c6c3d22776869746522207374726f6b653d22626c61636b22207374726f60208201527f6b652d77696474683d2232222f3e000000000000000000000000000000000000604082015250565b6000614a0b604e83614074565b9150614a1682614989565b604e82019050919050565b7f3c636972636c652063783d22313130222063793d223132302220723d2231302260008201527f2066696c6c3d22776869746522207374726f6b653d22626c61636b222073747260208201527f6f6b652d77696474683d2232222f3e0000000000000000000000000000000000604082015250565b6000614aa3604f83614074565b9150614aae82614a21565b604f82019050919050565b7f3c636972636c652063783d22313430222063793d223132302220723d2231302260008201527f2066696c6c3d22776869746522207374726f6b653d22626c61636b222073747260208201527f6f6b652d77696474683d2232222f3e0000000000000000000000000000000000604082015250565b6000614b3b604f83614074565b9150614b4682614ab9565b604f82019050919050565b7f3c636972636c652063783d223530222063793d223136302220723d223130222060008201527f66696c6c3d22776869746522207374726f6b653d22626c61636b22207374726f60208201527f6b652d77696474683d2232222f3e000000000000000000000000000000000000604082015250565b6000614bd3604e83614074565b9150614bde82614b51565b604e82019050919050565b7f3c636972636c652063783d223830222063793d223136302220723d223130222060008201527f66696c6c3d22776869746522207374726f6b653d22626c61636b22207374726f60208201527f6b652d77696474683d2232222f3e000000000000000000000000000000000000604082015250565b6000614c6b604e83614074565b9150614c7682614be9565b604e82019050919050565b7f3c636972636c652063783d22313130222063793d223136302220723d2231302260008201527f2066696c6c3d22776869746522207374726f6b653d22626c61636b222073747260208201527f6f6b652d77696474683d2232222f3e0000000000000000000000000000000000604082015250565b6000614d03604f83614074565b9150614d0e82614c81565b604f82019050919050565b7f3c636972636c652063783d22313430222063793d223136302220723d2231302260008201527f2066696c6c3d22776869746522207374726f6b653d22626c61636b222073747260208201527f6f6b652d77696474683d2232222f3e0000000000000000000000000000000000604082015250565b6000614d9b604f83614074565b9150614da682614d19565b604f82019050919050565b7f3c636972636c652063783d223530222063793d223230302220723d223130222060008201527f66696c6c3d22776869746522207374726f6b653d22626c61636b22207374726f60208201527f6b652d77696474683d2232222f3e000000000000000000000000000000000000604082015250565b6000614e33604e83614074565b9150614e3e82614db1565b604e82019050919050565b7f3c636972636c652063783d223830222063793d223230302220723d223130222060008201527f66696c6c3d22776869746522207374726f6b653d22626c61636b22207374726f60208201527f6b652d77696474683d2232222f3e000000000000000000000000000000000000604082015250565b6000614ecb604e83614074565b9150614ed682614e49565b604e82019050919050565b7f3c636972636c652063783d22313130222063793d223230302220723d2231302260008201527f2066696c6c3d22776869746522207374726f6b653d22626c61636b222073747260208201527f6f6b652d77696474683d2232222f3e0000000000000000000000000000000000604082015250565b6000614f63604f83614074565b9150614f6e82614ee1565b604f82019050919050565b7f3c636972636c652063783d22313430222063793d223230302220723d2231302260008201527f2066696c6c3d22776869746522207374726f6b653d22626c61636b222073747260208201527f6f6b652d77696474683d2232222f3e0000000000000000000000000000000000604082015250565b6000614ffb604f83614074565b915061500682614f79565b604f82019050919050565b7f3c7465787420783d2231302220793d223335302220666f6e742d66616d696c7960008201527f3d22417269616c2220666f6e742d73697a653d223136222066696c6c3d22626c60208201527f61636b223e000000000000000000000000000000000000000000000000000000604082015250565b6000615093604583614074565b915061509e82615011565b604582019050919050565b7f47616d6520526573756c743a2000000000000000000000000000000000000000600082015250565b60006150df600d83614074565b91506150ea826150a9565b600d82019050919050565b7f3c2f746578743e00000000000000000000000000000000000000000000000000600082015250565b600061512b600783614074565b9150615136826150f5565b600782019050919050565b7f3c7465787420783d2231302220793d223338302220666f6e742d66616d696c7960008201527f3d22417269616c2220666f6e742d73697a653d223136222066696c6c3d22626c60208201527f61636b223e000000000000000000000000000000000000000000000000000000604082015250565b60006151c3604583614074565b91506151ce82615141565b604582019050919050565b7f546f6b656e2049443a2000000000000000000000000000000000000000000000600082015250565b600061520f600a83614074565b915061521a826151d9565b600a82019050919050565b7f3c2f7376673e0000000000000000000000000000000000000000000000000000600082015250565b600061525b600683614074565b915061526682615225565b600682019050919050565b600061527c82614564565b9150615287826145d6565b91506152928261466e565b915061529d82614706565b91506152a882614778565b91506152b3826147ea565b91506152be8261485c565b91506152c9826148ce565b91506152d482614966565b91506152df826149fe565b91506152ea82614a96565b91506152f582614b2e565b915061530082614bc6565b915061530b82614c5e565b915061531682614cf6565b915061532182614d8e565b915061532c82614e26565b915061533782614ebe565b915061534282614f56565b915061534d82614fee565b915061535882615086565b9150615363826150d2565b915061536f82856140cb565b915061537a8261511e565b9150615385826151b6565b915061539082615202565b915061539c82846140cb565b91506153a78261511e565b91506153b28261524e565b91508190509392505050565b7f646174613a696d6167652f7376672b786d6c3b6261736536342c000000000000600082015250565b60006153f4601a83614074565b91506153ff826153be565b601a82019050919050565b6000615415826153e7565b915061542182846140cb565b915081905092915050565b7f4e487b7100000000000000000000000000000000000000000000000000000000600052601260045260246000fd5b600061546682612f0e565b915061547183612f0e565b9250826154815761548061542c565b5b828206905092915050565b600061549782612f0e565b91506154a283612f0e565b9250826154b2576154b161542c565b5b828204905092915050565b60006154c882612f0e565b91506154d383612f0e565b92508282039050818111156154eb576154ea613fc9565b5b92915050565b60006154fc82612f0e565b915061550783612f0e565b925082820261551581612f0e565b9150828204841483151761552c5761552b613fc9565b5b5092915050565b60008160011c9050919050565b6000808291508390505b600185111561558a5780860481111561556657615565613fc9565b5b60018516156155755780820291505b808102905061558385615533565b945061554a565b94509492505050565b6000826155a3576001905061565f565b816155b1576000905061565f565b81600181146155c757600281146155d157615600565b600191505061565f565b60ff8411156155e3576155e2613fc9565b5b8360020a9150848211156155fa576155f9613fc9565b5b5061565f565b5060208310610133831016604e8410600b84101617156156355782820a9050838111156156305761562f613fc9565b5b61565f565b6156428484846001615540565b9250905081840481111561565957615658613fc9565b5b81810290505b9392505050565b600061567182612f0e565b915061567c83612f0e565b92506156a97fffffffffffffffffffffffffffffffffffffffffffffffffffffffffffffffff8484615593565b905092915050565b60006156bc826131e4565b91506156c7836131e4565b9250826156d7576156d661542c565b5b828204905092915050565b60006156ed826131e4565b91506156f8836131e4565b9250828202615706816131e4565b915080821461571857615717613fc9565b5b5092915050565b600061572a826131e4565b9150615735836131e4565b9250828203905060ff81111561574e5761574d613fc9565b5b92915050565b6000604082019050615769600083018561314e565b6157766020830184612f18565b9392505050565b6000615788826131e4565b9150615793836131e4565b9250828201905060ff8111156157ac576157ab613fc9565b5b9291505056fe4142434445464748494a4b4c4d4e4f505152535455565758595a6162636465666768696a6b6c6d6e6f707172737475767778797a303132333435363738392b2fa264697066735822122074cec63d12772420dbac8826ec75f3dfa19e5c60ef1ca89c877d4a88ecc3824264736f6c63430008180033",
  "linkReferences": {},
  "deployedLinkReferences": {}
}