{
  "_format": "hh-sol-artifact-1",
  "contractName": "Mastermind",
  "sourceName": "contracts/Mastermind.sol",
  "abi": [
    {
      "inputs": [],
      "stateMutability": "nonpayable",
      "type": "constructor"
    },
    {
      "inputs": [
        {
          "internalType": "address",
          "name": "sender",
          "type": "address"
        },
        {
          "internalType": "uint256",
          "name": "tokenId",
          "type": "uint256"
        },
        {
          "internalType": "address",
          "name": "owner",
          "type": "address"
        }
      ],
      "name": "ERC721IncorrectOwner",
      "type": "error"
    },
    {
      "inputs": [
        {
          "internalType": "address",
          "name": "operator",
          "type": "address"
        },
        {
          "internalType": "uint256",
          "name": "tokenId",
          "type": "uint256"
        }
      ],
      "name": "ERC721InsufficientApproval",
      "type": "error"
    },
    {
      "inputs": [
        {
          "internalType": "address",
          "name": "approver",
          "type": "address"
        }
      ],
      "name": "ERC721InvalidApprover",
      "type": "error"
    },
    {
      "inputs": [
        {
          "internalType": "address",
          "name": "operator",
          "type": "address"
        }
      ],
      "name": "ERC721InvalidOperator",
      "type": "error"
    },
    {
      "inputs": [
        {
          "internalType": "address",
          "name": "owner",
          "type": "address"
        }
      ],
      "name": "ERC721InvalidOwner",
      "type": "error"
    },
    {
      "inputs": [
        {
          "internalType": "address",
          "name": "receiver",
          "type": "address"
        }
      ],
      "name": "ERC721InvalidReceiver",
      "type": "error"
    },
    {
      "inputs": [
        {
          "internalType": "address",
          "name": "sender",
          "type": "address"
        }
      ],
      "name": "ERC721InvalidSender",
      "type": "error"
    },
    {
      "inputs": [
        {
          "internalType": "uint256",
          "name": "tokenId",
          "type": "uint256"
        }
      ],
      "name": "ERC721NonexistentToken",
      "type": "error"
    },
    {
      "anonymous": false,
      "inputs": [
        {
          "indexed": true,
          "internalType": "address",
          "name": "owner",
          "type": "address"
        },
        {
          "indexed": true,
          "internalType": "address",
          "name": "approved",
          "type": "address"
        },
        {
          "indexed": true,
          "internalType": "uint256",
          "name": "tokenId",
          "type": "uint256"
        }
      ],
      "name": "Approval",
      "type": "event"
    },
    {
      "anonymous": false,
      "inputs": [
        {
          "indexed": true,
          "internalType": "address",
          "name": "owner",
          "type": "address"
        },
        {
          "indexed": true,
          "internalType": "address",
          "name": "operator",
          "type": "address"
        },
        {
          "indexed": false,
          "internalType": "bool",
          "name": "approved",
          "type": "bool"
        }
      ],
      "name": "ApprovalForAll",
      "type": "event"
    },
    {
      "anonymous": false,
      "inputs": [
        {
          "indexed": true,
          "internalType": "address",
          "name": "codebreaker",
          "type": "address"
        },
        {
          "indexed": false,
          "internalType": "uint256",
          "name": "timestamp",
          "type": "uint256"
        }
      ],
      "name": "CodebreakerSet",
      "type": "event"
    },
    {
      "anonymous": false,
      "inputs": [
        {
          "indexed": true,
          "internalType": "address",
          "name": "codemaker",
          "type": "address"
        },
        {
          "indexed": false,
          "internalType": "uint256",
          "name": "timestamp",
          "type": "uint256"
        }
      ],
      "name": "CodemakerSet",
      "type": "event"
    },
    {
      "anonymous": false,
      "inputs": [
        {
          "indexed": true,
          "internalType": "address",
          "name": "winner",
          "type": "address"
        },
        {
          "indexed": false,
          "internalType": "uint256",
          "name": "timestamp",
          "type": "uint256"
        }
      ],
      "name": "GameEnded",
      "type": "event"
    },
    {
      "anonymous": false,
      "inputs": [
        {
          "indexed": true,
          "internalType": "address",
          "name": "codemaker",
          "type": "address"
        },
        {
          "indexed": false,
          "internalType": "uint256",
          "name": "timestamp",
          "type": "uint256"
        }
      ],
      "name": "GameStarted",
      "type": "event"
    },
    {
      "anonymous": false,
      "inputs": [
        {
          "indexed": false,
          "internalType": "enum Mastermind.GameStatus",
          "name": "status",
          "type": "uint8"
        },
        {
          "indexed": false,
          "internalType": "uint256",
          "name": "timestamp",
          "type": "uint256"
        }
      ],
      "name": "GameStatusChanged",
      "type": "event"
    },
    {
      "anonymous": false,
      "inputs": [
        {
          "indexed": true,
          "internalType": "address",
          "name": "codebreaker",
          "type": "address"
        },
        {
          "indexed": false,
          "internalType": "uint8[]",
          "name": "guess",
          "type": "uint8[]"
        },
        {
          "indexed": false,
          "internalType": "uint8",
          "name": "blackPegs",
          "type": "uint8"
        },
        {
          "indexed": false,
          "internalType": "uint8",
          "name": "whitePegs",
          "type": "uint8"
        },
        {
          "indexed": false,
          "internalType": "bool",
          "name": "correct",
          "type": "bool"
        },
        {
          "indexed": false,
          "internalType": "uint256",
          "name": "timestamp",
          "type": "uint256"
        }
      ],
      "name": "GuessMade",
      "type": "event"
    },
    {
      "anonymous": false,
      "inputs": [
        {
          "indexed": false,
          "internalType": "uint256",
          "name": "scoreCodebreaker",
          "type": "uint256"
        },
        {
          "indexed": false,
          "internalType": "uint256",
          "name": "scoreCodemaker",
          "type": "uint256"
        },
        {
          "indexed": false,
          "internalType": "uint256",
          "name": "timestamp",
          "type": "uint256"
        }
      ],
      "name": "ScoreUpdated",
      "type": "event"
    },
    {
      "anonymous": false,
      "inputs": [
        {
          "indexed": true,
          "internalType": "address",
          "name": "from",
          "type": "address"
        },
        {
          "indexed": true,
          "internalType": "address",
          "name": "to",
          "type": "address"
        },
        {
          "indexed": true,
          "internalType": "uint256",
          "name": "tokenId",
          "type": "uint256"
        }
      ],
      "name": "Transfer",
      "type": "event"
    },
    {
      "inputs": [
        {
          "internalType": "address",
          "name": "to",
          "type": "address"
        },
        {
          "internalType": "uint256",
          "name": "tokenId",
          "type": "uint256"
        }
      ],
      "name": "approve",
      "outputs": [],
      "stateMutability": "nonpayable",
      "type": "function"
    },
    {
      "inputs": [
        {
          "internalType": "address",
          "name": "owner",
          "type": "address"
        }
      ],
      "name": "balanceOf",
      "outputs": [
        {
          "internalType": "uint256",
          "name": "",
          "type": "uint256"
        }
      ],
      "stateMutability": "view",
      "type": "function"
    },
    {
      "inputs": [],
      "name": "codebreaker",
      "outputs": [
        {
          "internalType": "address",
          "name": "",
          "type": "address"
        }
      ],
      "stateMutability": "view",
      "type": "function"
    },
    {
      "inputs": [],
      "name": "codemaker",
      "outputs": [
        {
          "internalType": "address",
          "name": "",
          "type": "address"
        }
      ],
      "stateMutability": "view",
      "type": "function"
    },
    {
      "inputs": [],
      "name": "gameActive",
      "outputs": [
        {
          "internalType": "bool",
          "name": "",
          "type": "bool"
        }
      ],
      "stateMutability": "view",
      "type": "function"
    },
    {
      "inputs": [],
      "name": "gameStatus",
      "outputs": [
        {
          "internalType": "enum Mastermind.GameStatus",
          "name": "",
          "type": "uint8"
        }
      ],
      "stateMutability": "view",
      "type": "function"
    },
    {
      "inputs": [
        {
          "internalType": "uint256",
          "name": "tokenId",
          "type": "uint256"
        }
      ],
      "name": "getApproved",
      "outputs": [
        {
          "internalType": "address",
          "name": "",
          "type": "address"
        }
      ],
      "stateMutability": "view",
      "type": "function"
    },
    {
      "inputs": [],
      "name": "getBreakerScore",
      "outputs": [
        {
          "internalType": "uint256",
          "name": "",
          "type": "uint256"
        }
      ],
      "stateMutability": "view",
      "type": "function"
    },
    {
      "inputs": [],
      "name": "getGuesses",
      "outputs": [
        {
          "components": [
            {
              "internalType": "uint8[]",
              "name": "code",
              "type": "uint8[]"
            },
            {
              "internalType": "uint8",
              "name": "blackPegs",
              "type": "uint8"
            },
            {
              "internalType": "uint8",
              "name": "whitePegs",
              "type": "uint8"
            },
            {
              "internalType": "bool",
              "name": "correct",
              "type": "bool"
            }
          ],
          "internalType": "struct Mastermind.Guess[]",
          "name": "",
          "type": "tuple[]"
        }
      ],
      "stateMutability": "view",
      "type": "function"
    },
    {
      "inputs": [],
      "name": "getMakerScore",
      "outputs": [
        {
          "internalType": "uint256",
          "name": "",
          "type": "uint256"
        }
      ],
      "stateMutability": "view",
      "type": "function"
    },
    {
      "inputs": [],
      "name": "guessCount",
      "outputs": [
        {
          "internalType": "uint256",
          "name": "",
          "type": "uint256"
        }
      ],
      "stateMutability": "view",
      "type": "function"
    },
    {
      "inputs": [
        {
          "internalType": "uint256",
          "name": "",
          "type": "uint256"
        }
      ],
      "name": "guesses",
      "outputs": [
        {
          "internalType": "uint8",
          "name": "blackPegs",
          "type": "uint8"
        },
        {
          "internalType": "uint8",
          "name": "whitePegs",
          "type": "uint8"
        },
        {
          "internalType": "bool",
          "name": "correct",
          "type": "bool"
        }
      ],
      "stateMutability": "view",
      "type": "function"
    },
    {
      "inputs": [
        {
          "internalType": "address",
          "name": "owner",
          "type": "address"
        },
        {
          "internalType": "address",
          "name": "operator",
          "type": "address"
        }
      ],
      "name": "isApprovedForAll",
      "outputs": [
        {
          "internalType": "bool",
          "name": "",
          "type": "bool"
        }
      ],
      "stateMutability": "view",
      "type": "function"
    },
    {
      "inputs": [
        {
          "internalType": "uint8[]",
          "name": "_guess",
          "type": "uint8[]"
        }
      ],
      "name": "makeGuess",
      "outputs": [],
      "stateMutability": "nonpayable",
      "type": "function"
    },
    {
      "inputs": [],
      "name": "name",
      "outputs": [
        {
          "internalType": "string",
          "name": "",
          "type": "string"
        }
      ],
      "stateMutability": "view",
      "type": "function"
    },
    {
      "inputs": [
        {
          "internalType": "uint256",
          "name": "tokenId",
          "type": "uint256"
        }
      ],
      "name": "ownerOf",
      "outputs": [
        {
          "internalType": "address",
          "name": "",
          "type": "address"
        }
      ],
      "stateMutability": "view",
      "type": "function"
    },
    {
      "inputs": [
        {
          "internalType": "address",
          "name": "from",
          "type": "address"
        },
        {
          "internalType": "address",
          "name": "to",
          "type": "address"
        },
        {
          "internalType": "uint256",
          "name": "tokenId",
          "type": "uint256"
        }
      ],
      "name": "safeTransferFrom",
      "outputs": [],
      "stateMutability": "nonpayable",
      "type": "function"
    },
    {
      "inputs": [
        {
          "internalType": "address",
          "name": "from",
          "type": "address"
        },
        {
          "internalType": "address",
          "name": "to",
          "type": "address"
        },
        {
          "internalType": "uint256",
          "name": "tokenId",
          "type": "uint256"
        },
        {
          "internalType": "bytes",
          "name": "data",
          "type": "bytes"
        }
      ],
      "name": "safeTransferFrom",
      "outputs": [],
      "stateMutability": "nonpayable",
      "type": "function"
    },
    {
      "inputs": [],
      "name": "scoreCodebreaker",
      "outputs": [
        {
          "internalType": "uint256",
          "name": "",
          "type": "uint256"
        }
      ],
      "stateMutability": "view",
      "type": "function"
    },
    {
      "inputs": [],
      "name": "scoreCodemaker",
      "outputs": [
        {
          "internalType": "uint256",
          "name": "",
          "type": "uint256"
        }
      ],
      "stateMutability": "view",
      "type": "function"
    },
    {
      "inputs": [
        {
          "internalType": "address",
          "name": "operator",
          "type": "address"
        },
        {
          "internalType": "bool",
          "name": "approved",
          "type": "bool"
        }
      ],
      "name": "setApprovalForAll",
      "outputs": [],
      "stateMutability": "nonpayable",
      "type": "function"
    },
    {
      "inputs": [],
      "name": "setCodebreaker",
      "outputs": [],
      "stateMutability": "nonpayable",
      "type": "function"
    },
    {
      "inputs": [],
      "name": "setCodemaker",
      "outputs": [],
      "stateMutability": "nonpayable",
      "type": "function"
    },
    {
      "inputs": [
        {
          "internalType": "uint8[]",
          "name": "_secretCode",
          "type": "uint8[]"
        }
      ],
      "name": "startGame",
      "outputs": [],
      "stateMutability": "nonpayable",
      "type": "function"
    },
    {
      "inputs": [
        {
          "internalType": "bytes4",
          "name": "interfaceId",
          "type": "bytes4"
        }
      ],
      "name": "supportsInterface",
      "outputs": [
        {
          "internalType": "bool",
          "name": "",
          "type": "bool"
        }
      ],
      "stateMutability": "view",
      "type": "function"
    },
    {
      "inputs": [],
      "name": "symbol",
      "outputs": [
        {
          "internalType": "string",
          "name": "",
          "type": "string"
        }
      ],
      "stateMutability": "view",
      "type": "function"
    },
    {
      "inputs": [
        {
          "internalType": "uint256",
          "name": "tokenId",
          "type": "uint256"
        }
      ],
      "name": "tokenURI",
      "outputs": [
        {
          "internalType": "string",
          "name": "",
          "type": "string"
        }
      ],
      "stateMutability": "view",
      "type": "function"
    },
    {
      "inputs": [
        {
          "internalType": "address",
          "name": "from",
          "type": "address"
        },
        {
          "internalType": "address",
          "name": "to",
          "type": "address"
        },
        {
          "internalType": "uint256",
          "name": "tokenId",
          "type": "uint256"
        }
      ],
      "name": "transferFrom",
      "outputs": [],
      "stateMutability": "nonpayable",
      "type": "function"
    }
  ],
  "bytecode": "0x60806040523480156200001157600080fd5b506040518060400160405280600a81526020017f4d61737465724d696e64000000000000000000000000000000000000000000008152506040518060400160405280600381526020017f4d534d000000000000000000000000000000000000000000000000000000000081525081600090816200008f919062000380565b508060019081620000a1919062000380565b50505033600760006101000a81548173ffffffffffffffffffffffffffffffffffffffff021916908373ffffffffffffffffffffffffffffffffffffffff1602179055506000600c60006101000a81548160ff02191690831515021790555062000467565b600081519050919050565b7f4e487b7100000000000000000000000000000000000000000000000000000000600052604160045260246000fd5b7f4e487b7100000000000000000000000000000000000000000000000000000000600052602260045260246000fd5b600060028204905060018216806200018857607f821691505b6020821081036200019e576200019d62000140565b5b50919050565b60008190508160005260206000209050919050565b60006020601f8301049050919050565b600082821b905092915050565b600060088302620002087fffffffffffffffffffffffffffffffffffffffffffffffffffffffffffffffff82620001c9565b620002148683620001c9565b95508019841693508086168417925050509392505050565b6000819050919050565b6000819050919050565b6000620002616200025b62000255846200022c565b62000236565b6200022c565b9050919050565b6000819050919050565b6200027d8362000240565b620002956200028c8262000268565b848454620001d6565b825550505050565b600090565b620002ac6200029d565b620002b981848462000272565b505050565b5b81811015620002e157620002d5600082620002a2565b600181019050620002bf565b5050565b601f8211156200033057620002fa81620001a4565b6200030584620001b9565b8101602085101562000315578190505b6200032d6200032485620001b9565b830182620002be565b50505b505050565b600082821c905092915050565b6000620003556000198460080262000335565b1980831691505092915050565b600062000370838362000342565b9150826002028217905092915050565b6200038b8262000106565b67ffffffffffffffff811115620003a757620003a662000111565b5b620003b382546200016f565b620003c0828285620002e5565b600060209050601f831160018114620003f85760008415620003e3578287015190505b620003ef858262000362565b8655506200045f565b601f1984166200040886620001a4565b60005b8281101562000432578489015182556001820191506020850194506020810190506200040b565b868310156200045257848901516200044e601f89168262000342565b8355505b6001600288020188555050505b505050505050565b6156de80620004776000396000f3fe608060405234801561001057600080fd5b50600436106101c45760003560e01c8063722fed7e116100f9578063a42dc7b711610097578063c68a9fe411610071578063c68a9fe4146104bf578063c87b56dd146104dd578063e985e9c51461050d578063f020044f1461053d576101c4565b8063a42dc7b714610469578063b88d4fde14610485578063c0e361d2146104a1576101c4565b806384894606116100d3578063848946061461041b5780638e5cd8e91461042557806395d89b411461042f578063a22cb4651461044d576101c4565b8063722fed7e146103c1578063797642db146103df578063801db33d146103fd576101c4565b806323b872dd1161016657806342842e0e1161014057806342842e0e1461032757806350633fa7146103435780636352211e1461036157806370a0823114610391576101c4565b806323b872dd146102d1578063276d2121146102ed57806329b817c814610309576101c4565b8063081812fc116101a2578063081812fc14610235578063095ea7b3146102655780630e5c05f1146102815780631f4913891461029f576101c4565b8063011d7ab2146101c957806301ffc9a7146101e757806306fdde0314610217575b600080fd5b6101d161055b565b6040516101de9190612e49565b60405180910390f35b61020160048036038101906101fc9190612ed0565b610561565b60405161020e9190612f18565b60405180910390f35b61021f610643565b60405161022c9190612fc3565b60405180910390f35b61024f600480360381019061024a9190613011565b6106d5565b60405161025c919061307f565b60405180910390f35b61027f600480360381019061027a91906130c6565b6106f1565b005b610289610707565b604051610296919061307f565b60405180910390f35b6102b960048036038101906102b49190613011565b61072d565b6040516102c893929190613122565b60405180910390f35b6102eb60048036038101906102e69190613159565b61078e565b005b61030760048036038101906103029190613320565b610890565b005b610311610ba2565b60405161031e9190612e49565b60405180910390f35b610341600480360381019061033c9190613159565b610bac565b005b61034b610bcc565b604051610358919061307f565b60405180910390f35b61037b60048036038101906103769190613011565b610bf2565b604051610388919061307f565b60405180910390f35b6103ab60048036038101906103a69190613369565b610c04565b6040516103b89190612e49565b60405180910390f35b6103c9610cbe565b6040516103d6919061340d565b60405180910390f35b6103e7610cd1565b6040516103f4919061361a565b60405180910390f35b610405610e03565b6040516104129190612e49565b60405180910390f35b610423610e0d565b005b61042d610f10565b005b610437611013565b6040516104449190612fc3565b60405180910390f35b61046760048036038101906104629190613668565b6110a5565b005b610483600480360381019061047e9190613320565b6110bb565b005b61049f600480360381019061049a919061375d565b611705565b005b6104a9611722565b6040516104b69190612e49565b60405180910390f35b6104c7611728565b6040516104d49190612e49565b60405180910390f35b6104f760048036038101906104f29190613011565b61172e565b6040516105049190612fc3565b60405180910390f35b610527600480360381019061052291906137e0565b611872565b6040516105349190612f18565b60405180910390f35b610545611906565b6040516105529190612f18565b60405180910390f35b600f5481565b60007f80ac58cd000000000000000000000000000000000000000000000000000000007bffffffffffffffffffffffffffffffffffffffffffffffffffffffff1916827bffffffffffffffffffffffffffffffffffffffffffffffffffffffff1916148061062c57507f5b5e139f000000000000000000000000000000000000000000000000000000007bffffffffffffffffffffffffffffffffffffffffffffffffffffffff1916827bffffffffffffffffffffffffffffffffffffffffffffffffffffffff1916145b8061063c575061063b82611919565b5b9050919050565b6060600080546106529061384f565b80601f016020809104026020016040519081016040528092919081815260200182805461067e9061384f565b80156106cb5780601f106106a0576101008083540402835291602001916106cb565b820191906000526020600020905b8154815290600101906020018083116106ae57829003601f168201915b5050505050905090565b60006106e082611983565b506106ea82611a0b565b9050919050565b61070382826106fe611a48565b611a50565b5050565b600860009054906101000a900473ffffffffffffffffffffffffffffffffffffffff1681565b600d818154811061073d57600080fd5b90600052602060002090600202016000915090508060010160009054906101000a900460ff16908060010160019054906101000a900460ff16908060010160029054906101000a900460ff16905083565b600073ffffffffffffffffffffffffffffffffffffffff168273ffffffffffffffffffffffffffffffffffffffff16036108005760006040517f64a0ae920000000000000000000000000000000000000000000000000000000081526004016107f7919061307f565b60405180910390fd5b6000610814838361080f611a48565b611a62565b90508373ffffffffffffffffffffffffffffffffffffffff168173ffffffffffffffffffffffffffffffffffffffff161461088a578382826040517f64283d7b00000000000000000000000000000000000000000000000000000000815260040161088193929190613880565b60405180910390fd5b50505050565b600760009054906101000a900473ffffffffffffffffffffffffffffffffffffffff1673ffffffffffffffffffffffffffffffffffffffff163373ffffffffffffffffffffffffffffffffffffffff1614610920576040517f08c379a000000000000000000000000000000000000000000000000000000000815260040161091790613929565b60405180910390fd5b600073ffffffffffffffffffffffffffffffffffffffff16600860009054906101000a900473ffffffffffffffffffffffffffffffffffffffff1673ffffffffffffffffffffffffffffffffffffffff16036109b1576040517f08c379a00000000000000000000000000000000000000000000000000000000081526004016109a890613995565b60405180910390fd5b600460ff168151146109f8576040517f08c379a00000000000000000000000000000000000000000000000000000000081526004016109ef90613a27565b60405180910390fd5b80600a9080519060200190610a0e929190612c9b565b5080604051602001610a209190613ad7565b604051602081830303815290604052805190602001206009819055506000600b81905550600d6000610a529190612d42565b6001600c60006101000a81548160ff0219169083151502179055506000600c60016101000a81548160ff02191690836002811115610a9357610a92613396565b5b02179055506000600e819055506000600f81905550600760009054906101000a900473ffffffffffffffffffffffffffffffffffffffff1673ffffffffffffffffffffffffffffffffffffffff167fea32a03505fd9f04d664676d72295a86c5fb0465e69654751907ca305bc1d1c742604051610b109190612e49565b60405180910390a27fafcf3201aa5a8b6350cd7e42802f62089c82cf3e88f4ef6d7a1cabd94763d8d9600c60019054906101000a900460ff1642604051610b58929190613aee565b60405180910390a17fb2383e82269e758b9ec0fc961ac69cecc166570a12068c11b3f9cf29c8de9e88600e54600f5442604051610b9793929190613b17565b60405180910390a150565b6000600f54905090565b610bc783838360405180602001604052806000815250611705565b505050565b600760009054906101000a900473ffffffffffffffffffffffffffffffffffffffff1681565b6000610bfd82611983565b9050919050565b60008073ffffffffffffffffffffffffffffffffffffffff168273ffffffffffffffffffffffffffffffffffffffff1603610c775760006040517f89c62b64000000000000000000000000000000000000000000000000000000008152600401610c6e919061307f565b60405180910390fd5b600360008373ffffffffffffffffffffffffffffffffffffffff1673ffffffffffffffffffffffffffffffffffffffff168152602001908152602001600020549050919050565b600c60019054906101000a900460ff1681565b6060600d805480602002602001604051908101604052809291908181526020016000905b82821015610dfa578382906000526020600020906002020160405180608001604052908160008201805480602002602001604051908101604052809291908181526020018280548015610d8d57602002820191906000526020600020906000905b82829054906101000a900460ff1660ff1681526020019060010190602082600001049283019260010382029150808411610d565790505b505050505081526020016001820160009054906101000a900460ff1660ff1660ff1681526020016001820160019054906101000a900460ff1660ff1660ff1681526020016001820160029054906101000a900460ff16151515158152505081526020019060010190610cf5565b50505050905090565b6000600e54905090565b600c60009054906101000a900460ff1615610e5d576040517f08c379a0000000000000000000000000000000000000000000000000000000008152600401610e5490613b9a565b60405180910390fd5b33600860006101000a81548173ffffffffffffffffffffffffffffffffffffffff021916908373ffffffffffffffffffffffffffffffffffffffff160217905550600860009054906101000a900473ffffffffffffffffffffffffffffffffffffffff1673ffffffffffffffffffffffffffffffffffffffff167fe030cca42591fdc0fe1e7a7cc3892f5f6d13aaa3aebcafa2563c78df1b9de25142604051610f069190612e49565b60405180910390a2565b600c60009054906101000a900460ff1615610f60576040517f08c379a0000000000000000000000000000000000000000000000000000000008152600401610f5790613b9a565b60405180910390fd5b33600760006101000a81548173ffffffffffffffffffffffffffffffffffffffff021916908373ffffffffffffffffffffffffffffffffffffffff160217905550600760009054906101000a900473ffffffffffffffffffffffffffffffffffffffff1673ffffffffffffffffffffffffffffffffffffffff167f65bd3084c68c3b9e4a26f0857a1c9a69285e55ded79629480351f98856f096a2426040516110099190612e49565b60405180910390a2565b6060600180546110229061384f565b80601f016020809104026020016040519081016040528092919081815260200182805461104e9061384f565b801561109b5780601f106110705761010080835404028352916020019161109b565b820191906000526020600020905b81548152906001019060200180831161107e57829003601f168201915b5050505050905090565b6110b76110b0611a48565b8383611c7c565b5050565b600860009054906101000a900473ffffffffffffffffffffffffffffffffffffffff1673ffffffffffffffffffffffffffffffffffffffff163373ffffffffffffffffffffffffffffffffffffffff161461114b576040517f08c379a000000000000000000000000000000000000000000000000000000000815260040161114290613c2c565b60405180910390fd5b600c60009054906101000a900460ff1661119a576040517f08c379a000000000000000000000000000000000000000000000000000000000815260040161119190613c98565b60405180910390fd5b600460ff168151146111e1576040517f08c379a00000000000000000000000000000000000000000000000000000000081526004016111d890613d04565b60405180910390fd5b600a60ff16600b5410611229576040517f08c379a000000000000000000000000000000000000000000000000000000000815260040161122090613d96565b60405180910390fd5b60008061123583611deb565b915091506000600460ff168360ff16149050600d60405180608001604052808681526020018560ff1681526020018460ff168152602001831515815250908060018154018082558091505060019003906000526020600020906002020160009091909190915060008201518160000190805190602001906112b7929190612c9b565b5060208201518160010160006101000a81548160ff021916908360ff16021790555060408201518160010160016101000a81548160ff021916908360ff16021790555060608201518160010160026101000a81548160ff0219169083151502179055505050600860009054906101000a900473ffffffffffffffffffffffffffffffffffffffff1673ffffffffffffffffffffffffffffffffffffffff167f0b733e8664b442058353db00385a5c6640f039b74589925d748092f1d1b6baad858585854260405161138c959493929190613e25565b60405180910390a2801561153c576000600c60006101000a81548160ff0219169083151502179055506001600c60016101000a81548160ff021916908360028111156113db576113da613396565b5b0217905550612710600e60008282546113f49190613eae565b925050819055506114056006612012565b60006114116006612028565b905061143f600860009054906101000a900473ffffffffffffffffffffffffffffffffffffffff1682612036565b7fafcf3201aa5a8b6350cd7e42802f62089c82cf3e88f4ef6d7a1cabd94763d8d9600c60019054906101000a900460ff164260405161147f929190613aee565b60405180910390a1600860009054906101000a900473ffffffffffffffffffffffffffffffffffffffff1673ffffffffffffffffffffffffffffffffffffffff167fd4ba6fec82d9b0e8ffe50b9fed9e4be3b25c984ce1e0e016405a5528726e8a2c426040516114ef9190612e49565b60405180910390a27fb2383e82269e758b9ec0fc961ac69cecc166570a12068c11b3f9cf29c8de9e88600e54600f544260405161152e93929190613b17565b60405180910390a1506116ff565b6064600f600082825461154f9190613eae565b92505081905550600b600081548092919061156990613ee2565b9190505550600a60ff16600b54106116fe576000600c60006101000a81548160ff0219169083151502179055506002600c60016101000a81548160ff021916908360028111156115bc576115bb613396565b5b02179055506115cb6006612012565b60006115d76006612028565b9050611605600760009054906101000a900473ffffffffffffffffffffffffffffffffffffffff1682612036565b7fafcf3201aa5a8b6350cd7e42802f62089c82cf3e88f4ef6d7a1cabd94763d8d9600c60019054906101000a900460ff1642604051611645929190613aee565b60405180910390a1600760009054906101000a900473ffffffffffffffffffffffffffffffffffffffff1673ffffffffffffffffffffffffffffffffffffffff167fd4ba6fec82d9b0e8ffe50b9fed9e4be3b25c984ce1e0e016405a5528726e8a2c426040516116b59190612e49565b60405180910390a27fb2383e82269e758b9ec0fc961ac69cecc166570a12068c11b3f9cf29c8de9e88600e54600f54426040516116f493929190613b17565b60405180910390a1505b5b50505050565b61171084848461078e565b61171c84848484612054565b50505050565b600e5481565b600b5481565b606060006001600281111561174657611745613396565b5b600c60019054906101000a900460ff16600281111561176857611767613396565b5b146117a8576040518060400160405280600481526020017f4c6f7374000000000000000000000000000000000000000000000000000000008152506117df565b6040518060400160405280600381526020017f576f6e00000000000000000000000000000000000000000000000000000000008152505b905060006117ed828561220b565b905060006117fa85610bf2565b9050600061183c61180a87612272565b856118148561244d565b8660405160200161182894939291906141c6565b60405160208183030381529060405261260a565b905061184661277c565b81604051602001611858929190614246565b604051602081830303815290604052945050505050919050565b6000600560008473ffffffffffffffffffffffffffffffffffffffff1673ffffffffffffffffffffffffffffffffffffffff16815260200190815260200160002060008373ffffffffffffffffffffffffffffffffffffffff1673ffffffffffffffffffffffffffffffffffffffff16815260200190815260200160002060009054906101000a900460ff16905092915050565b600c60009054906101000a900460ff1681565b60007f01ffc9a7000000000000000000000000000000000000000000000000000000007bffffffffffffffffffffffffffffffffffffffffffffffffffffffff1916827bffffffffffffffffffffffffffffffffffffffffffffffffffffffff1916149050919050565b60008061198f836127b9565b9050600073ffffffffffffffffffffffffffffffffffffffff168173ffffffffffffffffffffffffffffffffffffffff1603611a0257826040517f7e2732890000000000000000000000000000000000000000000000000000000081526004016119f99190612e49565b60405180910390fd5b80915050919050565b60006004600083815260200190815260200160002060009054906101000a900473ffffffffffffffffffffffffffffffffffffffff169050919050565b600033905090565b611a5d83838360016127f6565b505050565b600080611a6e846127b9565b9050600073ffffffffffffffffffffffffffffffffffffffff168373ffffffffffffffffffffffffffffffffffffffff1614611ab057611aaf8184866129bb565b5b600073ffffffffffffffffffffffffffffffffffffffff168173ffffffffffffffffffffffffffffffffffffffff1614611b4157611af26000856000806127f6565b6001600360008373ffffffffffffffffffffffffffffffffffffffff1673ffffffffffffffffffffffffffffffffffffffff168152602001908152602001600020600082825403925050819055505b600073ffffffffffffffffffffffffffffffffffffffff168573ffffffffffffffffffffffffffffffffffffffff1614611bc4576001600360008773ffffffffffffffffffffffffffffffffffffffff1673ffffffffffffffffffffffffffffffffffffffff168152602001908152602001600020600082825401925050819055505b846002600086815260200190815260200160002060006101000a81548173ffffffffffffffffffffffffffffffffffffffff021916908373ffffffffffffffffffffffffffffffffffffffff160217905550838573ffffffffffffffffffffffffffffffffffffffff168273ffffffffffffffffffffffffffffffffffffffff167fddf252ad1be2c89b69c2b068fc378daa952ba7f163c4a11628f55a4df523b3ef60405160405180910390a4809150509392505050565b600073ffffffffffffffffffffffffffffffffffffffff168273ffffffffffffffffffffffffffffffffffffffff1603611ced57816040517f5b08ba18000000000000000000000000000000000000000000000000000000008152600401611ce4919061307f565b60405180910390fd5b80600560008573ffffffffffffffffffffffffffffffffffffffff1673ffffffffffffffffffffffffffffffffffffffff16815260200190815260200160002060008473ffffffffffffffffffffffffffffffffffffffff1673ffffffffffffffffffffffffffffffffffffffff16815260200190815260200160002060006101000a81548160ff0219169083151502179055508173ffffffffffffffffffffffffffffffffffffffff168373ffffffffffffffffffffffffffffffffffffffff167f17307eab39ab6107e8899845ad3d59bd9653f200f220920489ca2b5937696c3183604051611dde9190612f18565b60405180910390a3505050565b600080611df6612d66565b611dfe612d66565b60005b600460ff168160ff161015611ede57600a8160ff1681548110611e2757611e2661426a565b5b90600052602060002090602091828204019190069054906101000a900460ff1660ff16868260ff1681518110611e6057611e5f61426a565b5b602002602001015160ff1603611ed1578480611e7b90614299565b9550506001838260ff1660048110611e9657611e9561426a565b5b602002019060ff16908160ff16815250506001828260ff1660048110611ebf57611ebe61426a565b5b602002019060ff16908160ff16815250505b8080600101915050611e01565b5060005b600460ff168160ff16101561200a576000828260ff1660048110611f0957611f0861426a565b5b602002015160ff1603611ffd5760005b600460ff168160ff161015611ffb576000848260ff1660048110611f4057611f3f61426a565b5b602002015160ff16148015611fad5750600a8160ff1681548110611f6757611f6661426a565b5b90600052602060002090602091828204019190069054906101000a900460ff1660ff16878360ff1681518110611fa057611f9f61426a565b5b602002602001015160ff16145b15611fee578480611fbd90614299565b9550506001848260ff1660048110611fd857611fd761426a565b5b602002019060ff16908160ff1681525050611ffb565b8080600101915050611f19565b505b8080600101915050611ee2565b505050915091565b6001816000016000828254019250508190555050565b600081600001549050919050565b612050828260405180602001604052806000815250612a7f565b5050565b60008373ffffffffffffffffffffffffffffffffffffffff163b1115612205578273ffffffffffffffffffffffffffffffffffffffff1663150b7a02612098611a48565b8685856040518563ffffffff1660e01b81526004016120ba9493929190614317565b6020604051808303816000875af19250505080156120f657506040513d601f19601f820116820180604052508101906120f39190614378565b60015b61217a573d8060008114612126576040519150601f19603f3d011682016040523d82523d6000602084013e61212b565b606091505b50600081510361217257836040517f64a0ae92000000000000000000000000000000000000000000000000000000008152600401612169919061307f565b60405180910390fd5b805181602001fd5b63150b7a0260e01b7bffffffffffffffffffffffffffffffffffffffffffffffffffffffff1916817bffffffffffffffffffffffffffffffffffffffffffffffffffffffff19161461220357836040517f64a0ae920000000000000000000000000000000000000000000000000000000081526004016121fa919061307f565b60405180910390fd5b505b50505050565b606060008361221984612272565b60405160200161222a929190615127565b604051602081830303815290604052905060006122468261260a565b60405160200161225691906152c0565b6040516020818303038152906040529050809250505092915050565b60606000604e905060008167ffffffffffffffff811115612296576122956131b1565b5b6040519080825280601f01601f1916602001820160405280156122c85781602001600182028036833780820191505090505b50905060005b6000851461235a576000600a866122e59190615311565b9050600a866122f49190615342565b95508060306123039190613eae565b60f81b83838061231290613ee2565b9450815181106123255761232461426a565b5b60200101907effffffffffffffffffffffffffffffffffffffffffffffffffffffffffffff1916908160001a905350506122ce565b60008167ffffffffffffffff811115612376576123756131b1565b5b6040519080825280601f01601f1916602001820160405280156123a85781602001600182028036833780820191505090505b50905060005b8281101561243a5783600182856123c59190615373565b6123cf9190615373565b815181106123e0576123df61426a565b5b602001015160f81c60f81b8282815181106123fe576123fd61426a565b5b60200101907effffffffffffffffffffffffffffffffffffffffffffffffffffffffffffff1916908160001a90535080806001019150506123ae565b5060008190508095505050505050919050565b60606000602867ffffffffffffffff81111561246c5761246b6131b1565b5b6040519080825280601f01601f19166020018201604052801561249e5781602001600182028036833780820191505090505b50905060005b60148110156126005760008160136124bc9190615373565b60086124c891906153a7565b60026124d4919061551c565b8573ffffffffffffffffffffffffffffffffffffffff166124f59190615342565b60f81b9050600060108260f81c61250c9190615567565b60f81b905060008160f81c60106125239190615598565b8360f81c61253191906155d5565b60f81b905061253f82612a9b565b8585600261254d91906153a7565b8151811061255e5761255d61426a565b5b60200101907effffffffffffffffffffffffffffffffffffffffffffffffffffffffffffff1916908160001a90535061259681612a9b565b8560018660026125a691906153a7565b6125b09190613eae565b815181106125c1576125c061426a565b5b60200101907effffffffffffffffffffffffffffffffffffffffffffffffffffffffffffff1916908160001a90535050505080806001019150506124a4565b5080915050919050565b6060600082510361262c57604051806020016040528060008152509050612777565b6000604051806060016040528060408152602001615669604091399050600060036002855161265b9190613eae565b6126659190615342565b600461267191906153a7565b67ffffffffffffffff81111561268a576126896131b1565b5b6040519080825280601f01601f1916602001820160405280156126bc5781602001600182028036833780820191505090505b50905060018201602082018586518701602081018051600082525b82841015612732576003840193508351603f8160121c168701518653600186019550603f81600c1c168701518653600186019550603f8160061c168701518653600186019550603f81168701518653600186019550506126d7565b80825260038a51066001811461274f57600281146127625761276a565b603d6001870353603d600287035361276a565b603d60018703535b5050505050505080925050505b919050565b60606040518060400160405280601d81526020017f646174613a6170706c69636174696f6e2f6a736f6e3b6261736536342c000000815250905090565b60006002600083815260200190815260200160002060009054906101000a900473ffffffffffffffffffffffffffffffffffffffff169050919050565b808061282f5750600073ffffffffffffffffffffffffffffffffffffffff168273ffffffffffffffffffffffffffffffffffffffff1614155b1561296357600061283f84611983565b9050600073ffffffffffffffffffffffffffffffffffffffff168373ffffffffffffffffffffffffffffffffffffffff16141580156128aa57508273ffffffffffffffffffffffffffffffffffffffff168173ffffffffffffffffffffffffffffffffffffffff1614155b80156128bd57506128bb8184611872565b155b156128ff57826040517fa9fbf51f0000000000000000000000000000000000000000000000000000000081526004016128f6919061307f565b60405180910390fd5b811561296157838573ffffffffffffffffffffffffffffffffffffffff168273ffffffffffffffffffffffffffffffffffffffff167f8c5be1e5ebec7d5bd14f71427d1e84f3dd0314c0f7b2291e5b200ac8c7c3b92560405160405180910390a45b505b836004600085815260200190815260200160002060006101000a81548173ffffffffffffffffffffffffffffffffffffffff021916908373ffffffffffffffffffffffffffffffffffffffff16021790555050505050565b6129c6838383612ae1565b612a7a57600073ffffffffffffffffffffffffffffffffffffffff168373ffffffffffffffffffffffffffffffffffffffff1603612a3b57806040517f7e273289000000000000000000000000000000000000000000000000000000008152600401612a329190612e49565b60405180910390fd5b81816040517f177e802f000000000000000000000000000000000000000000000000000000008152600401612a7192919061560a565b60405180910390fd5b505050565b612a898383612ba2565b612a966000848484612054565b505050565b6000600a8260f81c60ff161015612ac65760308260f81c612abc9190615633565b60f81b9050612adc565b60578260f81c612ad69190615633565b60f81b90505b919050565b60008073ffffffffffffffffffffffffffffffffffffffff168373ffffffffffffffffffffffffffffffffffffffff1614158015612b9957508273ffffffffffffffffffffffffffffffffffffffff168473ffffffffffffffffffffffffffffffffffffffff161480612b5a5750612b598484611872565b5b80612b9857508273ffffffffffffffffffffffffffffffffffffffff16612b8083611a0b565b73ffffffffffffffffffffffffffffffffffffffff16145b5b90509392505050565b600073ffffffffffffffffffffffffffffffffffffffff168273ffffffffffffffffffffffffffffffffffffffff1603612c145760006040517f64a0ae92000000000000000000000000000000000000000000000000000000008152600401612c0b919061307f565b60405180910390fd5b6000612c2283836000611a62565b9050600073ffffffffffffffffffffffffffffffffffffffff168173ffffffffffffffffffffffffffffffffffffffff1614612c965760006040517f73c6ac6e000000000000000000000000000000000000000000000000000000008152600401612c8d919061307f565b60405180910390fd5b505050565b82805482825590600052602060002090601f01602090048101928215612d315791602002820160005b83821115612d0257835183826101000a81548160ff021916908360ff1602179055509260200192600101602081600001049283019260010302612cc4565b8015612d2f5782816101000a81549060ff0219169055600101602081600001049283019260010302612d02565b505b509050612d3e9190612d88565b5090565b5080546000825560020290600052602060002090810190612d639190612da5565b50565b6040518060800160405280600490602082028036833780820191505090505090565b5b80821115612da1576000816000905550600101612d89565b5090565b5b80821115612e045760008082016000612dbf9190612e08565b6001820160006101000a81549060ff02191690556001820160016101000a81549060ff02191690556001820160026101000a81549060ff021916905550600201612da6565b5090565b50805460008255601f016020900490600052602060002090810190612e2d9190612d88565b50565b6000819050919050565b612e4381612e30565b82525050565b6000602082019050612e5e6000830184612e3a565b92915050565b6000604051905090565b600080fd5b600080fd5b60007fffffffff0000000000000000000000000000000000000000000000000000000082169050919050565b612ead81612e78565b8114612eb857600080fd5b50565b600081359050612eca81612ea4565b92915050565b600060208284031215612ee657612ee5612e6e565b5b6000612ef484828501612ebb565b91505092915050565b60008115159050919050565b612f1281612efd565b82525050565b6000602082019050612f2d6000830184612f09565b92915050565b600081519050919050565b600082825260208201905092915050565b60005b83811015612f6d578082015181840152602081019050612f52565b60008484015250505050565b6000601f19601f8301169050919050565b6000612f9582612f33565b612f9f8185612f3e565b9350612faf818560208601612f4f565b612fb881612f79565b840191505092915050565b60006020820190508181036000830152612fdd8184612f8a565b905092915050565b612fee81612e30565b8114612ff957600080fd5b50565b60008135905061300b81612fe5565b92915050565b60006020828403121561302757613026612e6e565b5b600061303584828501612ffc565b91505092915050565b600073ffffffffffffffffffffffffffffffffffffffff82169050919050565b60006130698261303e565b9050919050565b6130798161305e565b82525050565b60006020820190506130946000830184613070565b92915050565b6130a38161305e565b81146130ae57600080fd5b50565b6000813590506130c08161309a565b92915050565b600080604083850312156130dd576130dc612e6e565b5b60006130eb858286016130b1565b92505060206130fc85828601612ffc565b9150509250929050565b600060ff82169050919050565b61311c81613106565b82525050565b60006060820190506131376000830186613113565b6131446020830185613113565b6131516040830184612f09565b949350505050565b60008060006060848603121561317257613171612e6e565b5b6000613180868287016130b1565b9350506020613191868287016130b1565b92505060406131a286828701612ffc565b9150509250925092565b600080fd5b7f4e487b7100000000000000000000000000000000000000000000000000000000600052604160045260246000fd5b6131e982612f79565b810181811067ffffffffffffffff82111715613208576132076131b1565b5b80604052505050565b600061321b612e64565b905061322782826131e0565b919050565b600067ffffffffffffffff821115613247576132466131b1565b5b602082029050602081019050919050565b600080fd5b61326681613106565b811461327157600080fd5b50565b6000813590506132838161325d565b92915050565b600061329c6132978461322c565b613211565b905080838252602082019050602084028301858111156132bf576132be613258565b5b835b818110156132e857806132d48882613274565b8452602084019350506020810190506132c1565b5050509392505050565b600082601f830112613307576133066131ac565b5b8135613317848260208601613289565b91505092915050565b60006020828403121561333657613335612e6e565b5b600082013567ffffffffffffffff81111561335457613353612e73565b5b613360848285016132f2565b91505092915050565b60006020828403121561337f5761337e612e6e565b5b600061338d848285016130b1565b91505092915050565b7f4e487b7100000000000000000000000000000000000000000000000000000000600052602160045260246000fd5b600381106133d6576133d5613396565b5b50565b60008190506133e7826133c5565b919050565b60006133f7826133d9565b9050919050565b613407816133ec565b82525050565b600060208201905061342260008301846133fe565b92915050565b600081519050919050565b600082825260208201905092915050565b6000819050602082019050919050565b600081519050919050565b600082825260208201905092915050565b6000819050602082019050919050565b61348981613106565b82525050565b600061349b8383613480565b60208301905092915050565b6000602082019050919050565b60006134bf82613454565b6134c9818561345f565b93506134d483613470565b8060005b838110156135055781516134ec888261348f565b97506134f7836134a7565b9250506001810190506134d8565b5085935050505092915050565b61351b81612efd565b82525050565b6000608083016000830151848203600086015261353e82826134b4565b91505060208301516135536020860182613480565b5060408301516135666040860182613480565b5060608301516135796060860182613512565b508091505092915050565b60006135908383613521565b905092915050565b6000602082019050919050565b60006135b082613428565b6135ba8185613433565b9350836020820285016135cc85613444565b8060005b8581101561360857848403895281516135e98582613584565b94506135f483613598565b925060208a019950506001810190506135d0565b50829750879550505050505092915050565b6000602082019050818103600083015261363481846135a5565b905092915050565b61364581612efd565b811461365057600080fd5b50565b6000813590506136628161363c565b92915050565b6000806040838503121561367f5761367e612e6e565b5b600061368d858286016130b1565b925050602061369e85828601613653565b9150509250929050565b600080fd5b600067ffffffffffffffff8211156136c8576136c76131b1565b5b6136d182612f79565b9050602081019050919050565b82818337600083830152505050565b60006137006136fb846136ad565b613211565b90508281526020810184848401111561371c5761371b6136a8565b5b6137278482856136de565b509392505050565b600082601f830112613744576137436131ac565b5b81356137548482602086016136ed565b91505092915050565b6000806000806080858703121561377757613776612e6e565b5b6000613785878288016130b1565b9450506020613796878288016130b1565b93505060406137a787828801612ffc565b925050606085013567ffffffffffffffff8111156137c8576137c7612e73565b5b6137d48782880161372f565b91505092959194509250565b600080604083850312156137f7576137f6612e6e565b5b6000613805858286016130b1565b9250506020613816858286016130b1565b9150509250929050565b7f4e487b7100000000000000000000000000000000000000000000000000000000600052602260045260246000fd5b6000600282049050600182168061386757607f821691505b60208210810361387a57613879613820565b5b50919050565b60006060820190506138956000830186613070565b6138a26020830185612e3a565b6138af6040830184613070565b949350505050565b7f4f6e6c792074686520636f64656d616b65722063616e2063616c6c207468697360008201527f2066756e6374696f6e0000000000000000000000000000000000000000000000602082015250565b6000613913602983612f3e565b915061391e826138b7565b604082019050919050565b6000602082019050818103600083015261394281613906565b9050919050565b7f436f6465627265616b65722061646472657373206d7573742062652073657400600082015250565b600061397f601f83612f3e565b915061398a82613949565b602082019050919050565b600060208201905081810360008301526139ae81613972565b9050919050565b7f53656372657420636f6465206d757374206265203420646967697473206c6f6e60008201527f6700000000000000000000000000000000000000000000000000000000000000602082015250565b6000613a11602183612f3e565b9150613a1c826139b5565b604082019050919050565b60006020820190508181036000830152613a4081613a04565b9050919050565b600081905092915050565b613a5b81613106565b82525050565b6000613a6d8383613a52565b60208301905092915050565b6000613a8482613454565b613a8e8185613a47565b9350613a9983613470565b8060005b83811015613aca578151613ab18882613a61565b9750613abc836134a7565b925050600181019050613a9d565b5085935050505092915050565b6000613ae38284613a79565b915081905092915050565b6000604082019050613b0360008301856133fe565b613b106020830184612e3a565b9392505050565b6000606082019050613b2c6000830186612e3a565b613b396020830185612e3a565b613b466040830184612e3a565b949350505050565b7f47616d6520696e2073657373696f6e0000000000000000000000000000000000600082015250565b6000613b84600f83612f3e565b9150613b8f82613b4e565b602082019050919050565b60006020820190508181036000830152613bb381613b77565b9050919050565b7f4f6e6c792074686520636f6465627265616b65722063616e2063616c6c20746860008201527f69732066756e6374696f6e000000000000000000000000000000000000000000602082015250565b6000613c16602b83612f3e565b9150613c2182613bba565b604082019050919050565b60006020820190508181036000830152613c4581613c09565b9050919050565b7f47616d65206973206e6f74206163746976650000000000000000000000000000600082015250565b6000613c82601283612f3e565b9150613c8d82613c4c565b602082019050919050565b60006020820190508181036000830152613cb181613c75565b9050919050565b7f4775657373206d757374206265203420646967697473206c6f6e670000000000600082015250565b6000613cee601b83612f3e565b9150613cf982613cb8565b602082019050919050565b60006020820190508181036000830152613d1d81613ce1565b9050919050565b7f4d6178696d756d206e756d626572206f6620677565737365732072656163686560008201527f6400000000000000000000000000000000000000000000000000000000000000602082015250565b6000613d80602183612f3e565b9150613d8b82613d24565b604082019050919050565b60006020820190508181036000830152613daf81613d73565b9050919050565b600082825260208201905092915050565b6000613dd282613454565b613ddc8185613db6565b9350613de783613470565b8060005b83811015613e18578151613dff888261348f565b9750613e0a836134a7565b925050600181019050613deb565b5085935050505092915050565b600060a0820190508181036000830152613e3f8188613dc7565b9050613e4e6020830187613113565b613e5b6040830186613113565b613e686060830185612f09565b613e756080830184612e3a565b9695505050505050565b7f4e487b7100000000000000000000000000000000000000000000000000000000600052601160045260246000fd5b6000613eb982612e30565b9150613ec483612e30565b9250828201905080821115613edc57613edb613e7f565b5b92915050565b6000613eed82612e30565b91507fffffffffffffffffffffffffffffffffffffffffffffffffffffffffffffffff8203613f1f57613f1e613e7f565b5b600182019050919050565b600081905092915050565b7f7b226e616d65223a224d61737465726d696e6420230000000000000000000000600082015250565b6000613f6b601583613f2a565b9150613f7682613f35565b601582019050919050565b6000613f8c82612f33565b613f968185613f2a565b9350613fa6818560208601612f4f565b80840191505092915050565b7f222c20226465736372697074696f6e223a22416e204e4654207468617420726560008201527f666c6563747320746865206f7574636f6d65206f662061204d61737465726d6960208201527f6e642067616d65222c2000000000000000000000000000000000000000000000604082015250565b6000614034604a83613f2a565b915061403f82613fb2565b604a82019050919050565b7f2261747472696275746573223a205b7b2274726169745f74797065223a20226760008201527f616d655f726573756c74222c202276616c7565223a2022000000000000000000602082015250565b60006140a6603783613f2a565b91506140b18261404a565b603782019050919050565b7f227d2c207b2274726169745f74797065223a20226f776e6572222c202276616c60008201527f7565223a20220000000000000000000000000000000000000000000000000000602082015250565b6000614118602683613f2a565b9150614123826140bc565b602682019050919050565b7f227d5d2c2022696d616765223a22000000000000000000000000000000000000600082015250565b6000614164600e83613f2a565b915061416f8261412e565b600e82019050919050565b7f227d000000000000000000000000000000000000000000000000000000000000600082015250565b60006141b0600283613f2a565b91506141bb8261417a565b600282019050919050565b60006141d182613f5e565b91506141dd8287613f81565b91506141e882614027565b91506141f382614099565b91506141ff8286613f81565b915061420a8261410b565b91506142168285613f81565b915061422182614157565b915061422d8284613f81565b9150614238826141a3565b915081905095945050505050565b60006142528285613f81565b915061425e8284613f81565b91508190509392505050565b7f4e487b7100000000000000000000000000000000000000000000000000000000600052603260045260246000fd5b60006142a482613106565b915060ff82036142b7576142b6613e7f565b5b600182019050919050565b600081519050919050565b600082825260208201905092915050565b60006142e9826142c2565b6142f381856142cd565b9350614303818560208601612f4f565b61430c81612f79565b840191505092915050565b600060808201905061432c6000830187613070565b6143396020830186613070565b6143466040830185612e3a565b818103606083015261435881846142de565b905095945050505050565b60008151905061437281612ea4565b92915050565b60006020828403121561438e5761438d612e6e565b5b600061439c84828501614363565b91505092915050565b7f3c7376672077696474683d2233303022206865696768743d223430302220786d60008201527f6c6e733d22687474703a2f2f7777772e77332e6f72672f323030302f7376672260208201527f3e00000000000000000000000000000000000000000000000000000000000000604082015250565b6000614427604183613f2a565b9150614432826143a5565b604182019050919050565b7f3c726563742077696474683d2233303022206865696768743d2234303022206660008201527f696c6c3d227768697465222f3e00000000000000000000000000000000000000602082015250565b6000614499602d83613f2a565b91506144a48261443d565b602d82019050919050565b7f3c7465787420783d2231302220793d2233302220666f6e742d66616d696c793d60008201527f22417269616c2220666f6e742d73697a653d223234222066696c6c3d2270757260208201527f706c65223e4d61737465726d696e643c2f746578743e00000000000000000000604082015250565b6000614531605683613f2a565b915061453c826144af565b605682019050919050565b7f3c6c696e652078313d223130222079313d223530222078323d2232393022207960008201527f323d22353022207374726f6b653d22626c61636b22207374726f6b652d77696460208201527f74683d2232222f3e000000000000000000000000000000000000000000000000604082015250565b60006145c9604883613f2a565b91506145d482614547565b604882019050919050565b7f3c636972636c652063783d223530222063793d2238302220723d22313022206660008201527f696c6c3d2272656422202f3e0000000000000000000000000000000000000000602082015250565b600061463b602c83613f2a565b9150614646826145df565b602c82019050919050565b7f3c636972636c652063783d223830222063793d2238302220723d22313022206660008201527f696c6c3d22626c756522202f3e00000000000000000000000000000000000000602082015250565b60006146ad602d83613f2a565b91506146b882614651565b602d82019050919050565b7f3c636972636c652063783d22313130222063793d2238302220723d223130222060008201527f66696c6c3d22677265656e22202f3e0000000000000000000000000000000000602082015250565b600061471f602f83613f2a565b915061472a826146c3565b602f82019050919050565b7f3c636972636c652063783d22313430222063793d2238302220723d223130222060008201527f66696c6c3d2279656c6c6f7722202f3e00000000000000000000000000000000602082015250565b6000614791603083613f2a565b915061479c82614735565b603082019050919050565b7f3c636972636c652063783d223530222063793d223132302220723d223130222060008201527f66696c6c3d22776869746522207374726f6b653d22626c61636b22207374726f60208201527f6b652d77696474683d2232222f3e000000000000000000000000000000000000604082015250565b6000614829604e83613f2a565b9150614834826147a7565b604e82019050919050565b7f3c636972636c652063783d223830222063793d223132302220723d223130222060008201527f66696c6c3d22776869746522207374726f6b653d22626c61636b22207374726f60208201527f6b652d77696474683d2232222f3e000000000000000000000000000000000000604082015250565b60006148c1604e83613f2a565b91506148cc8261483f565b604e82019050919050565b7f3c636972636c652063783d22313130222063793d223132302220723d2231302260008201527f2066696c6c3d22776869746522207374726f6b653d22626c61636b222073747260208201527f6f6b652d77696474683d2232222f3e0000000000000000000000000000000000604082015250565b6000614959604f83613f2a565b9150614964826148d7565b604f82019050919050565b7f3c636972636c652063783d22313430222063793d223132302220723d2231302260008201527f2066696c6c3d22776869746522207374726f6b653d22626c61636b222073747260208201527f6f6b652d77696474683d2232222f3e0000000000000000000000000000000000604082015250565b60006149f1604f83613f2a565b91506149fc8261496f565b604f82019050919050565b7f3c636972636c652063783d223530222063793d223136302220723d223130222060008201527f66696c6c3d22776869746522207374726f6b653d22626c61636b22207374726f60208201527f6b652d77696474683d2232222f3e000000000000000000000000000000000000604082015250565b6000614a89604e83613f2a565b9150614a9482614a07565b604e82019050919050565b7f3c636972636c652063783d223830222063793d223136302220723d223130222060008201527f66696c6c3d22776869746522207374726f6b653d22626c61636b22207374726f60208201527f6b652d77696474683d2232222f3e000000000000000000000000000000000000604082015250565b6000614b21604e83613f2a565b9150614b2c82614a9f565b604e82019050919050565b7f3c636972636c652063783d22313130222063793d223136302220723d2231302260008201527f2066696c6c3d22776869746522207374726f6b653d22626c61636b222073747260208201527f6f6b652d77696474683d2232222f3e0000000000000000000000000000000000604082015250565b6000614bb9604f83613f2a565b9150614bc482614b37565b604f82019050919050565b7f3c636972636c652063783d22313430222063793d223136302220723d2231302260008201527f2066696c6c3d22776869746522207374726f6b653d22626c61636b222073747260208201527f6f6b652d77696474683d2232222f3e0000000000000000000000000000000000604082015250565b6000614c51604f83613f2a565b9150614c5c82614bcf565b604f82019050919050565b7f3c636972636c652063783d223530222063793d223230302220723d223130222060008201527f66696c6c3d22776869746522207374726f6b653d22626c61636b22207374726f60208201527f6b652d77696474683d2232222f3e000000000000000000000000000000000000604082015250565b6000614ce9604e83613f2a565b9150614cf482614c67565b604e82019050919050565b7f3c636972636c652063783d223830222063793d223230302220723d223130222060008201527f66696c6c3d22776869746522207374726f6b653d22626c61636b22207374726f60208201527f6b652d77696474683d2232222f3e000000000000000000000000000000000000604082015250565b6000614d81604e83613f2a565b9150614d8c82614cff565b604e82019050919050565b7f3c636972636c652063783d22313130222063793d223230302220723d2231302260008201527f2066696c6c3d22776869746522207374726f6b653d22626c61636b222073747260208201527f6f6b652d77696474683d2232222f3e0000000000000000000000000000000000604082015250565b6000614e19604f83613f2a565b9150614e2482614d97565b604f82019050919050565b7f3c636972636c652063783d22313430222063793d223230302220723d2231302260008201527f2066696c6c3d22776869746522207374726f6b653d22626c61636b222073747260208201527f6f6b652d77696474683d2232222f3e0000000000000000000000000000000000604082015250565b6000614eb1604f83613f2a565b9150614ebc82614e2f565b604f82019050919050565b7f3c7465787420783d2231302220793d223335302220666f6e742d66616d696c7960008201527f3d22417269616c2220666f6e742d73697a653d223136222066696c6c3d22626c60208201527f61636b223e000000000000000000000000000000000000000000000000000000604082015250565b6000614f49604583613f2a565b9150614f5482614ec7565b604582019050919050565b7f47616d6520526573756c743a2000000000000000000000000000000000000000600082015250565b6000614f95600d83613f2a565b9150614fa082614f5f565b600d82019050919050565b7f3c2f746578743e00000000000000000000000000000000000000000000000000600082015250565b6000614fe1600783613f2a565b9150614fec82614fab565b600782019050919050565b7f3c7465787420783d2231302220793d223338302220666f6e742d66616d696c7960008201527f3d22417269616c2220666f6e742d73697a653d223136222066696c6c3d22626c60208201527f61636b223e000000000000000000000000000000000000000000000000000000604082015250565b6000615079604583613f2a565b915061508482614ff7565b604582019050919050565b7f546f6b656e2049443a2000000000000000000000000000000000000000000000600082015250565b60006150c5600a83613f2a565b91506150d08261508f565b600a82019050919050565b7f3c2f7376673e0000000000000000000000000000000000000000000000000000600082015250565b6000615111600683613f2a565b915061511c826150db565b600682019050919050565b60006151328261441a565b915061513d8261448c565b915061514882614524565b9150615153826145bc565b915061515e8261462e565b9150615169826146a0565b915061517482614712565b915061517f82614784565b915061518a8261481c565b9150615195826148b4565b91506151a08261494c565b91506151ab826149e4565b91506151b682614a7c565b91506151c182614b14565b91506151cc82614bac565b91506151d782614c44565b91506151e282614cdc565b91506151ed82614d74565b91506151f882614e0c565b915061520382614ea4565b915061520e82614f3c565b915061521982614f88565b91506152258285613f81565b915061523082614fd4565b915061523b8261506c565b9150615246826150b8565b91506152528284613f81565b915061525d82614fd4565b915061526882615104565b91508190509392505050565b7f646174613a696d6167652f7376672b786d6c3b6261736536342c000000000000600082015250565b60006152aa601a83613f2a565b91506152b582615274565b601a82019050919050565b60006152cb8261529d565b91506152d78284613f81565b915081905092915050565b7f4e487b7100000000000000000000000000000000000000000000000000000000600052601260045260246000fd5b600061531c82612e30565b915061532783612e30565b925082615337576153366152e2565b5b828206905092915050565b600061534d82612e30565b915061535883612e30565b925082615368576153676152e2565b5b828204905092915050565b600061537e82612e30565b915061538983612e30565b92508282039050818111156153a1576153a0613e7f565b5b92915050565b60006153b282612e30565b91506153bd83612e30565b92508282026153cb81612e30565b915082820484148315176153e2576153e1613e7f565b5b5092915050565b60008160011c9050919050565b6000808291508390505b60018511156154405780860481111561541c5761541b613e7f565b5b600185161561542b5780820291505b8081029050615439856153e9565b9450615400565b94509492505050565b6000826154595760019050615515565b816154675760009050615515565b816001811461547d5760028114615487576154b6565b6001915050615515565b60ff84111561549957615498613e7f565b5b8360020a9150848211156154b0576154af613e7f565b5b50615515565b5060208310610133831016604e8410600b84101617156154eb5782820a9050838111156154e6576154e5613e7f565b5b615515565b6154f884848460016153f6565b9250905081840481111561550f5761550e613e7f565b5b81810290505b9392505050565b600061552782612e30565b915061553283612e30565b925061555f7fffffffffffffffffffffffffffffffffffffffffffffffffffffffffffffffff8484615449565b905092915050565b600061557282613106565b915061557d83613106565b92508261558d5761558c6152e2565b5b828204905092915050565b60006155a382613106565b91506155ae83613106565b92508282026155bc81613106565b91508082146155ce576155cd613e7f565b5b5092915050565b60006155e082613106565b91506155eb83613106565b9250828203905060ff81111561560457615603613e7f565b5b92915050565b600060408201905061561f6000830185613070565b61562c6020830184612e3a565b9392505050565b600061563e82613106565b915061564983613106565b9250828201905060ff81111561566257615661613e7f565b5b9291505056fe4142434445464748494a4b4c4d4e4f505152535455565758595a6162636465666768696a6b6c6d6e6f707172737475767778797a303132333435363738392b2fa2646970667358221220f832820cb8ae2686aa6d35260a768f691e0b61bd4b3ea5a8a5989256c153527664736f6c63430008180033",
  "linkReferences": {},
  "deployedLinkReferences": {}
}